{
  "contractName": "PatientManagement",
  "abi": [
    {
      "inputs": [
        {
          "internalType": "address[]",
          "name": "initialDoctors",
          "type": "address[]"
        }
      ],
      "stateMutability": "nonpayable",
      "type": "constructor"
    },
    {
      "anonymous": false,
      "inputs": [
        {
          "indexed": false,
          "internalType": "string",
          "name": "newAgePercentages",
          "type": "string"
        }
      ],
      "name": "AgePercentagesChanged",
      "type": "event"
    },
    {
      "anonymous": false,
      "inputs": [
        {
          "indexed": false,
          "internalType": "string",
          "name": "newAverageDeathRate",
          "type": "string"
        }
      ],
      "name": "AverageDeathRateChanged",
      "type": "event"
    },
    {
      "anonymous": false,
      "inputs": [
        {
          "indexed": false,
          "internalType": "string",
          "name": "newDistrictWithMostPatients",
          "type": "string"
        }
      ],
      "name": "DistrictWithMostPatientsChanged",
      "type": "event"
    },
    {
      "inputs": [],
      "name": "admin",
      "outputs": [
        {
          "internalType": "address",
          "name": "",
          "type": "address"
        }
      ],
      "stateMutability": "view",
      "type": "function",
      "constant": true
    },
    {
      "inputs": [],
      "name": "deathCount",
      "outputs": [
        {
          "internalType": "uint256",
          "name": "",
          "type": "uint256"
        }
      ],
      "stateMutability": "view",
      "type": "function",
      "constant": true
    },
    {
      "inputs": [
        {
          "internalType": "address",
          "name": "",
          "type": "address"
        }
      ],
      "name": "doctors",
      "outputs": [
        {
          "internalType": "bool",
          "name": "",
          "type": "bool"
        }
      ],
      "stateMutability": "view",
      "type": "function",
      "constant": true
    },
    {
      "inputs": [
        {
          "internalType": "uint256",
          "name": "",
          "type": "uint256"
        }
      ],
      "name": "patientAddresses",
      "outputs": [
        {
          "internalType": "address",
          "name": "",
          "type": "address"
        }
      ],
      "stateMutability": "view",
      "type": "function",
      "constant": true
    },
    {
      "inputs": [],
      "name": "patientCount",
      "outputs": [
        {
          "internalType": "uint256",
          "name": "",
          "type": "uint256"
        }
      ],
      "stateMutability": "view",
      "type": "function",
      "constant": true
    },
    {
      "inputs": [
        {
          "internalType": "address",
          "name": "",
          "type": "address"
        }
      ],
      "name": "patients",
      "outputs": [
        {
          "internalType": "uint256",
          "name": "id",
          "type": "uint256"
        },
        {
          "internalType": "address",
          "name": "patientAddress",
          "type": "address"
        },
        {
          "internalType": "string",
          "name": "name",
          "type": "string"
        },
        {
          "internalType": "uint256",
          "name": "age",
          "type": "uint256"
        },
        {
          "internalType": "string",
          "name": "gender",
          "type": "string"
        },
        {
          "internalType": "enum PatientManagement.VaccineStatus",
          "name": "vaccineStatus",
          "type": "uint8"
        },
        {
          "internalType": "string",
          "name": "district",
          "type": "string"
        },
        {
          "internalType": "string",
          "name": "symptomsDetails",
          "type": "string"
        },
        {
          "internalType": "bool",
          "name": "isDead",
          "type": "bool"
        },
        {
          "internalType": "bool",
          "name": "hasInfo",
          "type": "bool"
        },
        {
          "internalType": "uint256",
          "name": "deathDate",
          "type": "uint256"
        }
      ],
      "stateMutability": "view",
      "type": "function",
      "constant": true
    },
    {
      "inputs": [],
      "name": "adminSignin",
      "outputs": [
        {
          "internalType": "bool",
          "name": "",
          "type": "bool"
        }
      ],
      "stateMutability": "view",
      "type": "function",
      "constant": true
    },
    {
      "inputs": [],
      "name": "patientSignin",
      "outputs": [
        {
          "internalType": "bool",
          "name": "",
          "type": "bool"
        }
      ],
      "stateMutability": "view",
      "type": "function",
      "constant": true
    },
    {
      "inputs": [
        {
          "internalType": "string",
          "name": "_name",
          "type": "string"
        },
        {
          "internalType": "uint256",
          "name": "_age",
          "type": "uint256"
        },
        {
          "internalType": "string",
          "name": "_gender",
          "type": "string"
        },
        {
          "internalType": "enum PatientManagement.VaccineStatus",
          "name": "_vaccineStatus",
          "type": "uint8"
        },
        {
          "internalType": "string",
          "name": "_district",
          "type": "string"
        },
        {
          "internalType": "string",
          "name": "_symptomsDetails",
          "type": "string"
        }
      ],
      "name": "addPatient",
      "outputs": [],
      "stateMutability": "nonpayable",
      "type": "function"
    },
    {
      "inputs": [
        {
          "internalType": "address",
          "name": "_patientAddress",
          "type": "address"
        },
        {
          "internalType": "string",
          "name": "_name",
          "type": "string"
        },
        {
          "internalType": "uint256",
          "name": "_age",
          "type": "uint256"
        },
        {
          "internalType": "string",
          "name": "_gender",
          "type": "string"
        },
        {
          "internalType": "uint256",
          "name": "_vaccineStatus",
          "type": "uint256"
        },
        {
          "internalType": "string",
          "name": "_district",
          "type": "string"
        },
        {
          "internalType": "string",
          "name": "_symptomsDetails",
          "type": "string"
        },
        {
          "internalType": "bool",
          "name": "_isDead",
          "type": "bool"
        },
        {
          "internalType": "bool",
          "name": "_hasInfo",
          "type": "bool"
        },
        {
          "internalType": "uint256",
          "name": "_deathDate",
          "type": "uint256"
        }
      ],
      "name": "updatePatient",
      "outputs": [],
      "stateMutability": "nonpayable",
      "type": "function"
    },
    {
      "inputs": [
        {
          "internalType": "string",
          "name": "_patientAddressString",
          "type": "string"
        }
      ],
      "name": "deletePatient",
      "outputs": [],
      "stateMutability": "nonpayable",
      "type": "function"
    },
    {
      "inputs": [],
      "name": "getAllPatientAddresses",
      "outputs": [
        {
          "internalType": "address[]",
          "name": "",
          "type": "address[]"
        }
      ],
      "stateMutability": "view",
      "type": "function",
      "constant": true
    },
    {
      "inputs": [],
      "name": "getAllPatients",
      "outputs": [
        {
          "components": [
            {
              "internalType": "uint256",
              "name": "id",
              "type": "uint256"
            },
            {
              "internalType": "address",
              "name": "patientAddress",
              "type": "address"
            },
            {
              "internalType": "string",
              "name": "name",
              "type": "string"
            },
            {
              "internalType": "uint256",
              "name": "age",
              "type": "uint256"
            },
            {
              "internalType": "string",
              "name": "gender",
              "type": "string"
            },
            {
              "internalType": "enum PatientManagement.VaccineStatus",
              "name": "vaccineStatus",
              "type": "uint8"
            },
            {
              "internalType": "string",
              "name": "district",
              "type": "string"
            },
            {
              "internalType": "string",
              "name": "symptomsDetails",
              "type": "string"
            },
            {
              "internalType": "bool",
              "name": "isDead",
              "type": "bool"
            },
            {
              "internalType": "bool",
              "name": "hasInfo",
              "type": "bool"
            },
            {
              "internalType": "uint256",
              "name": "deathDate",
              "type": "uint256"
            }
          ],
          "internalType": "struct PatientManagement.Patient[]",
          "name": "",
          "type": "tuple[]"
        }
      ],
      "stateMutability": "view",
      "type": "function",
      "constant": true
    },
    {
      "inputs": [],
      "name": "averageDeathRate",
      "outputs": [
        {
          "internalType": "string",
          "name": "",
          "type": "string"
        }
      ],
      "stateMutability": "view",
      "type": "function",
      "constant": true
    },
    {
      "inputs": [],
      "name": "getDistrictWithMostPatients",
      "outputs": [
        {
          "internalType": "string",
          "name": "",
          "type": "string"
        }
      ],
      "stateMutability": "view",
      "type": "function",
      "constant": true
    },
    {
      "inputs": [
        {
          "internalType": "uint256",
          "name": "decimalPlaces",
          "type": "uint256"
        },
        {
          "internalType": "uint256",
          "name": "numerator",
          "type": "uint256"
        },
        {
          "internalType": "uint256",
          "name": "denominator",
          "type": "uint256"
        }
      ],
      "name": "division",
      "outputs": [
        {
          "internalType": "string",
          "name": "",
          "type": "string"
        }
      ],
      "stateMutability": "pure",
      "type": "function",
      "constant": true
    },
    {
      "inputs": [],
      "name": "agePercentages",
      "outputs": [
        {
          "internalType": "string",
          "name": "",
          "type": "string"
        }
      ],
      "stateMutability": "view",
      "type": "function",
      "constant": true
    }
  ],
  "bytecode": "0x60806040523480156200001157600080fd5b50604051620038f8380380620038f8833981810160405281019062000037919062000304565b336000806101000a81548173ffffffffffffffffffffffffffffffffffffffff021916908373ffffffffffffffffffffffffffffffffffffffff16021790555060005b81518110156200010e5760018060008484815181106200009f576200009e62000355565b5b602002602001015173ffffffffffffffffffffffffffffffffffffffff1673ffffffffffffffffffffffffffffffffffffffff16815260200190815260200160002060006101000a81548160ff02191690831515021790555080806200010590620003bd565b9150506200007a565b50506200040a565b6000604051905090565b600080fd5b600080fd5b600080fd5b6000601f19601f8301169050919050565b7f4e487b7100000000000000000000000000000000000000000000000000000000600052604160045260246000fd5b6200017a826200012f565b810181811067ffffffffffffffff821117156200019c576200019b62000140565b5b80604052505050565b6000620001b162000116565b9050620001bf82826200016f565b919050565b600067ffffffffffffffff821115620001e257620001e162000140565b5b602082029050602081019050919050565b600080fd5b600073ffffffffffffffffffffffffffffffffffffffff82169050919050565b60006200022582620001f8565b9050919050565b620002378162000218565b81146200024357600080fd5b50565b60008151905062000257816200022c565b92915050565b6000620002746200026e84620001c4565b620001a5565b905080838252602082019050602084028301858111156200029a5762000299620001f3565b5b835b81811015620002c75780620002b2888262000246565b8452602084019350506020810190506200029c565b5050509392505050565b600082601f830112620002e957620002e86200012a565b5b8151620002fb8482602086016200025d565b91505092915050565b6000602082840312156200031d576200031c62000120565b5b600082015167ffffffffffffffff8111156200033e576200033d62000125565b5b6200034c84828501620002d1565b91505092915050565b7f4e487b7100000000000000000000000000000000000000000000000000000000600052603260045260246000fd5b7f4e487b7100000000000000000000000000000000000000000000000000000000600052601160045260246000fd5b6000819050919050565b6000620003ca82620003b3565b91507fffffffffffffffffffffffffffffffffffffffffffffffffffffffffffffffff8203620003ff57620003fe62000384565b5b600182019050919050565b6134de806200041a6000396000f3fe608060405234801561001057600080fd5b506004361061010b5760003560e01c8063968d8078116100a2578063b40f169111610071578063b40f1691146102b6578063b652807c146102e6578063c9076c9b14610302578063dd89ed551461031e578063f851a4401461033c5761010b565b8063968d80781461022c578063a0303c411461024a578063a9583c2214610268578063b40621a4146102985761010b565b80634c9d6881116100de5780634c9d6881146101b45780636d19770d146101d257806375c5a122146101f057806392be3e651461020e5761010b565b80630869cfbc1461011057806317557a9f1461014a57806318a231a9146101665780632336b59114610184575b600080fd5b61012a60048036038101906101259190612031565b61035a565b6040516101419b9a999897969594939291906121b1565b60405180910390f35b610164600480360381019061015f91906123fe565b61061b565b005b61016e610986565b60405161017b9190612747565b60405180910390f35b61019e60048036038101906101999190612769565b610e72565b6040516101ab91906127bc565b60405180910390f35b6101bc610f35565b6040516101c991906127de565b60405180910390f35b6101da610f82565b6040516101e791906127bc565b60405180910390f35b6101f8611014565b60405161020591906127f9565b60405180910390f35b61021661101a565b60405161022391906128c3565b60405180910390f35b6102346110a8565b60405161024191906127de565b60405180910390f35b6102526110ff565b60405161025f91906127f9565b60405180910390f35b610282600480360381019061027d9190612031565b611105565b60405161028f91906127de565b60405180910390f35b6102a0611125565b6040516102ad91906127bc565b60405180910390f35b6102d060048036038101906102cb91906128e5565b611401565b6040516102dd9190612912565b60405180910390f35b61030060048036038101906102fb9190612959565b611440565b005b61031c60048036038101906103179190612aa8565b61177b565b005b610326611aea565b60405161033391906127bc565b60405180910390f35b610344611cd2565b6040516103519190612912565b60405180910390f35b60026020528060005260406000206000915090508060000154908060010160009054906101000a900473ffffffffffffffffffffffffffffffffffffffff16908060020180546103a990612b20565b80601f01602080910402602001604051908101604052809291908181526020018280546103d590612b20565b80156104225780601f106103f757610100808354040283529160200191610422565b820191906000526020600020905b81548152906001019060200180831161040557829003601f168201915b50505050509080600301549080600401805461043d90612b20565b80601f016020809104026020016040519081016040528092919081815260200182805461046990612b20565b80156104b65780601f1061048b576101008083540402835291602001916104b6565b820191906000526020600020905b81548152906001019060200180831161049957829003601f168201915b5050505050908060050160009054906101000a900460ff16908060060180546104de90612b20565b80601f016020809104026020016040519081016040528092919081815260200182805461050a90612b20565b80156105575780601f1061052c57610100808354040283529160200191610557565b820191906000526020600020905b81548152906001019060200180831161053a57829003601f168201915b50505050509080600701805461056c90612b20565b80601f016020809104026020016040519081016040528092919081815260200182805461059890612b20565b80156105e55780601f106105ba576101008083540402835291602001916105e5565b820191906000526020600020905b8154815290600101906020018083116105c857829003601f168201915b5050505050908060080160009054906101000a900460ff16908060080160019054906101000a900460ff1690806009015490508b565b600086511161065f576040517f08c379a000000000000000000000000000000000000000000000000000000000815260040161065690612b9d565b60405180910390fd5b6003600081548092919061067290612bec565b919050555060405180610160016040528060035481526020013373ffffffffffffffffffffffffffffffffffffffff1681526020018781526020018681526020018581526020018460028111156106cc576106cb61211f565b5b81526020018381526020018281526020016000151581526020016001151581526020016000815250600260003373ffffffffffffffffffffffffffffffffffffffff1673ffffffffffffffffffffffffffffffffffffffff1681526020019081526020016000206000820151816000015560208201518160010160006101000a81548173ffffffffffffffffffffffffffffffffffffffff021916908373ffffffffffffffffffffffffffffffffffffffff16021790555060408201518160020190805190602001906107a0929190611e56565b506060820151816003015560808201518160040190805190602001906107c7929190611e56565b5060a08201518160050160006101000a81548160ff021916908360028111156107f3576107f261211f565b5b021790555060c0820151816006019080519060200190610814929190611e56565b5060e0820151816007019080519060200190610831929190611e56565b506101008201518160080160006101000a81548160ff0219169083151502179055506101208201518160080160016101000a81548160ff02191690831515021790555061014082015181600901559050506005339080600181540180825580915050600190039060005260206000200160009091909190916101000a81548173ffffffffffffffffffffffffffffffffffffffff021916908373ffffffffffffffffffffffffffffffffffffffff1602179055506006826040516108f59190612c70565b9081526020016040518091039020600081548092919061091490612bec565b919050555060085460068360405161092c9190612c70565b908152602001604051809103902054111561097e576006826040516109519190612c70565b908152602001604051809103902054600881905550816007908051906020019061097c929190611e56565b505b505050505050565b606060008054906101000a900473ffffffffffffffffffffffffffffffffffffffff1673ffffffffffffffffffffffffffffffffffffffff163373ffffffffffffffffffffffffffffffffffffffff1614610a16576040517f08c379a0000000000000000000000000000000000000000000000000000000008152600401610a0d90612cf9565b60405180910390fd5b600060035467ffffffffffffffff811115610a3457610a33612282565b5b604051908082528060200260200182016040528015610a6d57816020015b610a5a611edc565b815260200190600190039081610a525790505b50905060005b600354811015610e6a57600060058281548110610a9357610a92612d19565b5b9060005260206000200160009054906101000a900473ffffffffffffffffffffffffffffffffffffffff169050600260008273ffffffffffffffffffffffffffffffffffffffff1673ffffffffffffffffffffffffffffffffffffffff16815260200190815260200160002060405180610160016040529081600082015481526020016001820160009054906101000a900473ffffffffffffffffffffffffffffffffffffffff1673ffffffffffffffffffffffffffffffffffffffff1673ffffffffffffffffffffffffffffffffffffffff168152602001600282018054610b7b90612b20565b80601f0160208091040260200160405190810160405280929190818152602001828054610ba790612b20565b8015610bf45780601f10610bc957610100808354040283529160200191610bf4565b820191906000526020600020905b815481529060010190602001808311610bd757829003601f168201915b5050505050815260200160038201548152602001600482018054610c1790612b20565b80601f0160208091040260200160405190810160405280929190818152602001828054610c4390612b20565b8015610c905780601f10610c6557610100808354040283529160200191610c90565b820191906000526020600020905b815481529060010190602001808311610c7357829003601f168201915b505050505081526020016005820160009054906101000a900460ff166002811115610cbe57610cbd61211f565b5b6002811115610cd057610ccf61211f565b5b8152602001600682018054610ce490612b20565b80601f0160208091040260200160405190810160405280929190818152602001828054610d1090612b20565b8015610d5d5780601f10610d3257610100808354040283529160200191610d5d565b820191906000526020600020905b815481529060010190602001808311610d4057829003601f168201915b50505050508152602001600782018054610d7690612b20565b80601f0160208091040260200160405190810160405280929190818152602001828054610da290612b20565b8015610def5780601f10610dc457610100808354040283529160200191610def565b820191906000526020600020905b815481529060010190602001808311610dd257829003601f168201915b505050505081526020016008820160009054906101000a900460ff161515151581526020016008820160019054906101000a900460ff16151515158152602001600982015481525050838381518110610e4b57610e4a612d19565b5b6020026020010181905250508080610e6290612bec565b915050610a73565b508091505090565b606060008284610e829190612d77565b9050600085600a610e939190612edb565b8487600a610ea19190612edb565b87610eac9190612f26565b610eb69190612d77565b610ec09190612f80565b90506000848583610ed19190612f80565b6002610edd9190612f26565b101590508015610ef757600182610ef49190612fb1565b91505b610f0083611cf6565b610f0983611cf6565b604051602001610f1a929190613053565b60405160208183030381529060405293505050509392505050565b600080600260003373ffffffffffffffffffffffffffffffffffffffff1673ffffffffffffffffffffffffffffffffffffffff168152602001908152602001600020600001541415905090565b606060078054610f9190612b20565b80601f0160208091040260200160405190810160405280929190818152602001828054610fbd90612b20565b801561100a5780601f10610fdf5761010080835404028352916020019161100a565b820191906000526020600020905b815481529060010190602001808311610fed57829003601f168201915b5050505050905090565b60045481565b6060600580548060200260200160405190810160405280929190818152602001828054801561109e57602002820191906000526020600020905b8160009054906101000a900473ffffffffffffffffffffffffffffffffffffffff1673ffffffffffffffffffffffffffffffffffffffff1681526020019060010190808311611054575b5050505050905090565b60008060009054906101000a900473ffffffffffffffffffffffffffffffffffffffff1673ffffffffffffffffffffffffffffffffffffffff163373ffffffffffffffffffffffffffffffffffffffff1614905090565b60035481565b60016020528060005260406000206000915054906101000a900460ff1681565b6060600060045411156113c5576000806000805b6005805490508110156113a157600260006005838154811061115e5761115d612d19565b5b9060005260206000200160009054906101000a900473ffffffffffffffffffffffffffffffffffffffff1673ffffffffffffffffffffffffffffffffffffffff1673ffffffffffffffffffffffffffffffffffffffff16815260200190815260200160002060080160009054906101000a900460ff1680156112605750600060026000600584815481106111f5576111f4612d19565b5b9060005260206000200160009054906101000a900473ffffffffffffffffffffffffffffffffffffffff1673ffffffffffffffffffffffffffffffffffffffff1673ffffffffffffffffffffffffffffffffffffffff16815260200190815260200160002060090154115b1561138e5781600260006005848154811061127e5761127d612d19565b5b9060005260206000200160009054906101000a900473ffffffffffffffffffffffffffffffffffffffff1673ffffffffffffffffffffffffffffffffffffffff1673ffffffffffffffffffffffffffffffffffffffff168152602001908152602001600020600901541461137f576001846112f99190612fb1565b9350600260006005838154811061131357611312612d19565b5b9060005260206000200160009054906101000a900473ffffffffffffffffffffffffffffffffffffffff1673ffffffffffffffffffffffffffffffffffffffff1673ffffffffffffffffffffffffffffffffffffffff1681526020019081526020016000206009015491505b828061138a90612bec565b9350505b808061139990612bec565b915050611139565b5060008211156113c1576113b760028385610e72565b93505050506113fe565b5050505b6040518060400160405280600181526020017f300000000000000000000000000000000000000000000000000000000000000081525090505b90565b6005818154811061141157600080fd5b906000526020600020016000915054906101000a900473ffffffffffffffffffffffffffffffffffffffff1681565b60008054906101000a900473ffffffffffffffffffffffffffffffffffffffff1673ffffffffffffffffffffffffffffffffffffffff163373ffffffffffffffffffffffffffffffffffffffff16146114ce576040517f08c379a00000000000000000000000000000000000000000000000000000000081526004016114c590612cf9565b60405180910390fd5b6000600260008c73ffffffffffffffffffffffffffffffffffffffff1673ffffffffffffffffffffffffffffffffffffffff1681526020019081526020016000206000015403611553576040517f08c379a000000000000000000000000000000000000000000000000000000000815260040161154a906130ce565b60405180910390fd5b6000600260008c73ffffffffffffffffffffffffffffffffffffffff1673ffffffffffffffffffffffffffffffffffffffff1681526020019081526020016000209050898160020190805190602001906115ae929190611e56565b50888160030181905550878160040190805190602001906115d0929190611e56565b508660028111156115e4576115e361211f565b5b8160050160006101000a81548160ff0219169083600281111561160a5761160961211f565b5b021790555085816006019080519060200190611627929190611e56565b5084816007019080519060200190611640929190611e56565b50838160080160006101000a81548160ff021916908315150217905550828160080160016101000a81548160ff021916908315150217905550818160090181905550600082118015611696575060011515841515145b1561176e57600460008154809291906116ae90612bec565b91905055507f407fc563a89fd34ca24a71d737f97596d78a90d3a1e9c2a8bd37285b1a89e5876116dc611125565b6040516116e991906127bc565b60405180910390a17f954a212bdbbeea1018df1ac1e39d60a664fff76aa092fad23faed6237da3122a61171a611aea565b60405161172791906127bc565b60405180910390a17fd9f7619ad7d2d45abc2eefcfdb730f1e7c1755d2c4de695316c695e63752133a611758610f82565b60405161176591906127bc565b60405180910390a15b5050505050505050505050565b60008054906101000a900473ffffffffffffffffffffffffffffffffffffffff1673ffffffffffffffffffffffffffffffffffffffff163373ffffffffffffffffffffffffffffffffffffffff1614611809576040517f08c379a000000000000000000000000000000000000000000000000000000000815260040161180090612cf9565b60405180910390fd5b60008161181590613157565b60601c9050600260008273ffffffffffffffffffffffffffffffffffffffff1673ffffffffffffffffffffffffffffffffffffffff1681526020019081526020016000206000808201600090556001820160006101000a81549073ffffffffffffffffffffffffffffffffffffffff02191690556002820160006118999190611f62565b60038201600090556004820160006118b19190611f62565b6005820160006101000a81549060ff02191690556006820160006118d59190611f62565b6007820160006118e59190611f62565b6008820160006101000a81549060ff02191690556008820160016101000a81549060ff02191690556009820160009055505060005b600580549050811015611acd578173ffffffffffffffffffffffffffffffffffffffff166005828154811061195257611951612d19565b5b9060005260206000200160009054906101000a900473ffffffffffffffffffffffffffffffffffffffff1673ffffffffffffffffffffffffffffffffffffffff1603611aba5760008190505b60016005805490506119b091906131be565b811015611a715760056001836119c69190612fb1565b815481106119d7576119d6612d19565b5b9060005260206000200160009054906101000a900473ffffffffffffffffffffffffffffffffffffffff1660058381548110611a1657611a15612d19565b5b9060005260206000200160006101000a81548173ffffffffffffffffffffffffffffffffffffffff021916908373ffffffffffffffffffffffffffffffffffffffff1602179055508080611a6990612bec565b91505061199e565b506005805480611a8457611a836131f2565b5b6001900381819060005260206000200160006101000a81549073ffffffffffffffffffffffffffffffffffffffff021916905590555b8080611ac590612bec565b91505061191a565b5060036000815480929190611ae190613221565b91905055505050565b606060008060008060005b600580549050811015611c235760006002600060058481548110611b1c57611b1b612d19565b5b9060005260206000200160009054906101000a900473ffffffffffffffffffffffffffffffffffffffff1673ffffffffffffffffffffffffffffffffffffffff1673ffffffffffffffffffffffffffffffffffffffff168152602001908152602001600020600301549050600d811015611ba3578580611b9b90612bec565b965050611c0f565b600d8110158015611bb45750601481105b15611bcc578480611bc490612bec565b955050611c0e565b60148110158015611bdd5750603281105b15611bf5578380611bed90612bec565b945050611c0d565b60328110611c0c578280611c0890612bec565b9350505b5b5b5b508080611c1b90612bec565b915050611af5565b50600060058054905090506000611c486002606488611c429190612f26565b84610e72565b90506000611c646002606488611c5e9190612f26565b85610e72565b90506000611c806002606488611c7a9190612f26565b86610e72565b90506000611c9c6002606488611c969190612f26565b87610e72565b905083838383604051602001611cb59493929190613412565b604051602081830303815290604052995050505050505050505090565b60008054906101000a900473ffffffffffffffffffffffffffffffffffffffff1681565b606060008203611d3d576040518060400160405280600181526020017f30000000000000000000000000000000000000000000000000000000000000008152509050611e51565b600082905060005b60008214611d6f578080611d5890612bec565b915050600a82611d689190612d77565b9150611d45565b60008167ffffffffffffffff811115611d8b57611d8a612282565b5b6040519080825280601f01601f191660200182016040528015611dbd5781602001600182028036833780820191505090505b5090505b60008514611e4a57600182611dd691906131be565b9150600a85611de59190612f80565b6030611df19190612fb1565b60f81b818381518110611e0757611e06612d19565b5b60200101907effffffffffffffffffffffffffffffffffffffffffffffffffffffffffffff1916908160001a905350600a85611e439190612d77565b9450611dc1565b8093505050505b919050565b828054611e6290612b20565b90600052602060002090601f016020900481019282611e845760008555611ecb565b82601f10611e9d57805160ff1916838001178555611ecb565b82800160010185558215611ecb579182015b82811115611eca578251825591602001919060010190611eaf565b5b509050611ed89190611fa2565b5090565b60405180610160016040528060008152602001600073ffffffffffffffffffffffffffffffffffffffff16815260200160608152602001600081526020016060815260200160006002811115611f3557611f3461211f565b5b81526020016060815260200160608152602001600015158152602001600015158152602001600081525090565b508054611f6e90612b20565b6000825580601f10611f805750611f9f565b601f016020900490600052602060002090810190611f9e9190611fa2565b5b50565b5b80821115611fbb576000816000905550600101611fa3565b5090565b6000604051905090565b600080fd5b600080fd5b600073ffffffffffffffffffffffffffffffffffffffff82169050919050565b6000611ffe82611fd3565b9050919050565b61200e81611ff3565b811461201957600080fd5b50565b60008135905061202b81612005565b92915050565b60006020828403121561204757612046611fc9565b5b60006120558482850161201c565b91505092915050565b6000819050919050565b6120718161205e565b82525050565b61208081611ff3565b82525050565b600081519050919050565b600082825260208201905092915050565b60005b838110156120c05780820151818401526020810190506120a5565b838111156120cf576000848401525b50505050565b6000601f19601f8301169050919050565b60006120f182612086565b6120fb8185612091565b935061210b8185602086016120a2565b612114816120d5565b840191505092915050565b7f4e487b7100000000000000000000000000000000000000000000000000000000600052602160045260246000fd5b6003811061215f5761215e61211f565b5b50565b60008190506121708261214e565b919050565b600061218082612162565b9050919050565b61219081612175565b82525050565b60008115159050919050565b6121ab81612196565b82525050565b6000610160820190506121c7600083018e612068565b6121d4602083018d612077565b81810360408301526121e6818c6120e6565b90506121f5606083018b612068565b8181036080830152612207818a6120e6565b905061221660a0830189612187565b81810360c083015261222881886120e6565b905081810360e083015261223c81876120e6565b905061224c6101008301866121a2565b61225a6101208301856121a2565b612268610140830184612068565b9c9b505050505050505050505050565b600080fd5b600080fd5b7f4e487b7100000000000000000000000000000000000000000000000000000000600052604160045260246000fd5b6122ba826120d5565b810181811067ffffffffffffffff821117156122d9576122d8612282565b5b80604052505050565b60006122ec611fbf565b90506122f882826122b1565b919050565b600067ffffffffffffffff82111561231857612317612282565b5b612321826120d5565b9050602081019050919050565b82818337600083830152505050565b600061235061234b846122fd565b6122e2565b90508281526020810184848401111561236c5761236b61227d565b5b61237784828561232e565b509392505050565b600082601f83011261239457612393612278565b5b81356123a484826020860161233d565b91505092915050565b6123b68161205e565b81146123c157600080fd5b50565b6000813590506123d3816123ad565b92915050565b600381106123e657600080fd5b50565b6000813590506123f8816123d9565b92915050565b60008060008060008060c0878903121561241b5761241a611fc9565b5b600087013567ffffffffffffffff81111561243957612438611fce565b5b61244589828a0161237f565b965050602061245689828a016123c4565b955050604087013567ffffffffffffffff81111561247757612476611fce565b5b61248389828a0161237f565b945050606061249489828a016123e9565b935050608087013567ffffffffffffffff8111156124b5576124b4611fce565b5b6124c189828a0161237f565b92505060a087013567ffffffffffffffff8111156124e2576124e1611fce565b5b6124ee89828a0161237f565b9150509295509295509295565b600081519050919050565b600082825260208201905092915050565b6000819050602082019050919050565b6125308161205e565b82525050565b61253f81611ff3565b82525050565b600082825260208201905092915050565b600061256182612086565b61256b8185612545565b935061257b8185602086016120a2565b612584816120d5565b840191505092915050565b61259881612175565b82525050565b6125a781612196565b82525050565b6000610160830160008301516125c66000860182612527565b5060208301516125d96020860182612536565b50604083015184820360408601526125f18282612556565b91505060608301516126066060860182612527565b506080830151848203608086015261261e8282612556565b91505060a083015161263360a086018261258f565b5060c083015184820360c086015261264b8282612556565b91505060e083015184820360e08601526126658282612556565b91505061010083015161267c61010086018261259e565b5061012083015161269161012086018261259e565b506101408301516126a6610140860182612527565b508091505092915050565b60006126bd83836125ad565b905092915050565b6000602082019050919050565b60006126dd826124fb565b6126e78185612506565b9350836020820285016126f985612517565b8060005b85811015612735578484038952815161271685826126b1565b9450612721836126c5565b925060208a019950506001810190506126fd565b50829750879550505050505092915050565b6000602082019050818103600083015261276181846126d2565b905092915050565b60008060006060848603121561278257612781611fc9565b5b6000612790868287016123c4565b93505060206127a1868287016123c4565b92505060406127b2868287016123c4565b9150509250925092565b600060208201905081810360008301526127d681846120e6565b905092915050565b60006020820190506127f360008301846121a2565b92915050565b600060208201905061280e6000830184612068565b92915050565b600081519050919050565b600082825260208201905092915050565b6000819050602082019050919050565b600061284c8383612536565b60208301905092915050565b6000602082019050919050565b600061287082612814565b61287a818561281f565b935061288583612830565b8060005b838110156128b657815161289d8882612840565b97506128a883612858565b925050600181019050612889565b5085935050505092915050565b600060208201905081810360008301526128dd8184612865565b905092915050565b6000602082840312156128fb576128fa611fc9565b5b6000612909848285016123c4565b91505092915050565b60006020820190506129276000830184612077565b92915050565b61293681612196565b811461294157600080fd5b50565b6000813590506129538161292d565b92915050565b6000806000806000806000806000806101408b8d03121561297d5761297c611fc9565b5b600061298b8d828e0161201c565b9a505060208b013567ffffffffffffffff8111156129ac576129ab611fce565b5b6129b88d828e0161237f565b99505060406129c98d828e016123c4565b98505060608b013567ffffffffffffffff8111156129ea576129e9611fce565b5b6129f68d828e0161237f565b9750506080612a078d828e016123c4565b96505060a08b013567ffffffffffffffff811115612a2857612a27611fce565b5b612a348d828e0161237f565b95505060c08b013567ffffffffffffffff811115612a5557612a54611fce565b5b612a618d828e0161237f565b94505060e0612a728d828e01612944565b935050610100612a848d828e01612944565b925050610120612a968d828e016123c4565b9150509295989b9194979a5092959850565b600060208284031215612abe57612abd611fc9565b5b600082013567ffffffffffffffff811115612adc57612adb611fce565b5b612ae88482850161237f565b91505092915050565b7f4e487b7100000000000000000000000000000000000000000000000000000000600052602260045260246000fd5b60006002820490506001821680612b3857607f821691505b602082108103612b4b57612b4a612af1565b5b50919050565b7f4e616d65206d757374206e6f7420626520656d70747900000000000000000000600082015250565b6000612b87601683612091565b9150612b9282612b51565b602082019050919050565b60006020820190508181036000830152612bb681612b7a565b9050919050565b7f4e487b7100000000000000000000000000000000000000000000000000000000600052601160045260246000fd5b6000612bf78261205e565b91507fffffffffffffffffffffffffffffffffffffffffffffffffffffffffffffffff8203612c2957612c28612bbd565b5b600182019050919050565b600081905092915050565b6000612c4a82612086565b612c548185612c34565b9350612c648185602086016120a2565b80840191505092915050565b6000612c7c8284612c3f565b915081905092915050565b7f4f6e6c792061646d696e2063616e20706572666f726d2074686973206163746960008201527f6f6e000000000000000000000000000000000000000000000000000000000000602082015250565b6000612ce3602283612091565b9150612cee82612c87565b604082019050919050565b60006020820190508181036000830152612d1281612cd6565b9050919050565b7f4e487b7100000000000000000000000000000000000000000000000000000000600052603260045260246000fd5b7f4e487b7100000000000000000000000000000000000000000000000000000000600052601260045260246000fd5b6000612d828261205e565b9150612d8d8361205e565b925082612d9d57612d9c612d48565b5b828204905092915050565b60008160011c9050919050565b6000808291508390505b6001851115612dff57808604811115612ddb57612dda612bbd565b5b6001851615612dea5780820291505b8081029050612df885612da8565b9450612dbf565b94509492505050565b600082612e185760019050612ed4565b81612e265760009050612ed4565b8160018114612e3c5760028114612e4657612e75565b6001915050612ed4565b60ff841115612e5857612e57612bbd565b5b8360020a915084821115612e6f57612e6e612bbd565b5b50612ed4565b5060208310610133831016604e8410600b8410161715612eaa5782820a905083811115612ea557612ea4612bbd565b5b612ed4565b612eb78484846001612db5565b92509050818404811115612ece57612ecd612bbd565b5b81810290505b9392505050565b6000612ee68261205e565b9150612ef18361205e565b9250612f1e7fffffffffffffffffffffffffffffffffffffffffffffffffffffffffffffffff8484612e08565b905092915050565b6000612f318261205e565b9150612f3c8361205e565b9250817fffffffffffffffffffffffffffffffffffffffffffffffffffffffffffffffff0483118215151615612f7557612f74612bbd565b5b828202905092915050565b6000612f8b8261205e565b9150612f968361205e565b925082612fa657612fa5612d48565b5b828206905092915050565b6000612fbc8261205e565b9150612fc78361205e565b9250827fffffffffffffffffffffffffffffffffffffffffffffffffffffffffffffffff03821115612ffc57612ffb612bbd565b5b828201905092915050565b7f2e00000000000000000000000000000000000000000000000000000000000000600082015250565b600061303d600183612c34565b915061304882613007565b600182019050919050565b600061305f8285612c3f565b915061306a82613030565b91506130768284612c3f565b91508190509392505050565b7f50617469656e74206e6f7420666f756e64000000000000000000000000000000600082015250565b60006130b8601183612091565b91506130c382613082565b602082019050919050565b600060208201905081810360008301526130e7816130ab565b9050919050565b600081519050919050565b6000819050602082019050919050565b60007fffffffffffffffffffffffffffffffffffffffff00000000000000000000000082169050919050565b60006131418251613109565b80915050919050565b600082821b905092915050565b6000613162826130ee565b8261316c846130f9565b905061317781613135565b925060148210156131b7576131b27fffffffffffffffffffffffffffffffffffffffff0000000000000000000000008360140360080261314a565b831692505b5050919050565b60006131c98261205e565b91506131d48361205e565b9250828210156131e7576131e6612bbd565b5b828203905092915050565b7f4e487b7100000000000000000000000000000000000000000000000000000000600052603160045260246000fd5b600061322c8261205e565b91506000820361323f5761323e612bbd565b5b600182039050919050565b7f4368696c6472656e3a2000000000000000000000000000000000000000000000600082015250565b6000613280600a83612c34565b915061328b8261324a565b600a82019050919050565b7f20252c2000000000000000000000000000000000000000000000000000000000600082015250565b60006132cc600483612c34565b91506132d782613296565b600482019050919050565b7f5465656e61676572733a20000000000000000000000000000000000000000000600082015250565b6000613318600b83612c34565b9150613323826132e2565b600b82019050919050565b7f596f756e673a2000000000000000000000000000000000000000000000000000600082015250565b6000613364600783612c34565b915061336f8261332e565b600782019050919050565b7f456c6465723a2000000000000000000000000000000000000000000000000000600082015250565b60006133b0600783612c34565b91506133bb8261337a565b600782019050919050565b7f2025000000000000000000000000000000000000000000000000000000000000600082015250565b60006133fc600283612c34565b9150613407826133c6565b600282019050919050565b600061341d82613273565b91506134298287612c3f565b9150613434826132bf565b915061343f8261330b565b915061344b8286612c3f565b9150613456826132bf565b915061346182613357565b915061346d8285612c3f565b9150613478826132bf565b9150613483826133a3565b915061348f8284612c3f565b915061349a826133ef565b91508190509594505050505056fea2646970667358221220a1a152a8a4f41889bd9758f5a687ebcbf633897842987e8ce0f4311802c8dca164736f6c634300080d0033",
  "immutableReferences": {},
  "source": "// SPDX-License-Identifier: MIT\npragma solidity >=0.4.22 <0.9.0;\n\ncontract PatientManagement {\n    enum VaccineStatus { NotVaccinated, OneDose, TwoDose }\n\n    event AverageDeathRateChanged(string newAverageDeathRate);\n    event AgePercentagesChanged(string newAgePercentages);\n    event DistrictWithMostPatientsChanged(string newDistrictWithMostPatients);\n\n    struct Patient {\n        uint id;\n        address patientAddress;\n        string name;\n        uint age;\n        string gender;\n        VaccineStatus vaccineStatus;\n        string district;\n        string symptomsDetails;\n        bool isDead;\n        bool hasInfo;\n        uint deathDate;\n    }\n\n    address public admin;\n    mapping(address => bool) public doctors; // Added mapping to track doctors\n    mapping(address => Patient) public patients;\n    uint public patientCount;\n    uint public deathCount;\n    address[] public patientAddresses;\n    mapping(string => uint) districtCounts;\n    string mostPatientsDistrict;\n    uint mostPatientsCount;\n\n    modifier onlyAdmin() {\n        require(msg.sender == admin, \"Only admin can perform this action\");\n        _;\n    }\n\n    constructor(address[] memory initialDoctors) {\n        admin = msg.sender; // The first account of Ganache becomes the admin\n        for (uint i = 0; i < initialDoctors.length; i++) {\n            doctors[initialDoctors[i]] = true;\n        }\n    }\n\n    function adminSignin() public view returns (bool) {\n        return msg.sender == admin;\n    }\n\n    function patientSignin() public view returns (bool) {\n        return patients[msg.sender].id != 0;\n    }\n\n    function addPatient(\n        string memory _name,\n        uint _age,\n        string memory _gender,\n        VaccineStatus _vaccineStatus,\n        string memory _district,\n        string memory _symptomsDetails\n    ) public {\n        require(bytes(_name).length > 0, \"Name must not be empty\");\n        patientCount++;\n        patients[msg.sender] = Patient({\n            id: patientCount,\n            patientAddress: msg.sender,\n            name: _name,\n            age: _age,\n            gender: _gender,\n            vaccineStatus: _vaccineStatus,\n            district: _district,\n            symptomsDetails: _symptomsDetails,\n            isDead: false,\n            hasInfo: true,\n            deathDate: 0\n        });\n\n        patientAddresses.push(msg.sender);\n        districtCounts[_district]++;\n        if (districtCounts[_district] > mostPatientsCount) {\n            mostPatientsCount = districtCounts[_district];\n            mostPatientsDistrict = _district;\n        }\n    }\n\n    function updatePatient(\n        address _patientAddress,\n        string memory _name,\n        uint _age,\n        string memory _gender,\n        uint _vaccineStatus,\n        string memory _district,\n        string memory _symptomsDetails,\n        bool _isDead,\n        bool _hasInfo,\n        uint _deathDate\n    ) public onlyAdmin {\n        require(patients[_patientAddress].id != 0, \"Patient not found\");\n        Patient storage patient = patients[_patientAddress];\n        patient.name = _name;\n        patient.age = _age;\n        patient.gender = _gender;\n        patient.vaccineStatus = VaccineStatus(_vaccineStatus);\n        patient.district = _district;\n        patient.symptomsDetails = _symptomsDetails;\n        patient.isDead = _isDead;\n        patient.hasInfo = _hasInfo;\n        patient.deathDate = _deathDate;\n\n        if (_deathDate > 0 && _isDead == true) {\n            deathCount++;\n            emit AverageDeathRateChanged(averageDeathRate());\n            emit AgePercentagesChanged(agePercentages());\n            emit DistrictWithMostPatientsChanged(getDistrictWithMostPatients());\n        }\n    }\n\n    function deletePatient(string memory _patientAddressString) public onlyAdmin {\n        address patientAddress = address(bytes20(bytes(_patientAddressString)));\n        delete patients[patientAddress];\n        for (uint i = 0; i < patientAddresses.length; i++) {\n            if (patientAddresses[i] == patientAddress) {\n                for (uint j = i; j < patientAddresses.length - 1; j++) {\n                    patientAddresses[i] = patientAddresses[i + 1];\n                }\n                patientAddresses.pop();\n            }\n        }\n        patientCount--;\n    }\n\n    function getAllPatientAddresses() public view returns (address[] memory) {\n        return patientAddresses;\n    }\n\n    function getAllPatients() public view onlyAdmin returns (Patient[] memory) {\n        Patient[] memory allPatients = new Patient[](patientCount);\n        for (uint i = 0; i < patientCount; i++) {\n            address patientAddress = patientAddresses[i];\n            allPatients[i] = patients[patientAddress];\n        }\n        return allPatients;\n    }\n\n    function averageDeathRate() public view returns (string memory) {\n        if (deathCount > 0) {\n            uint totalDays = 0;\n            uint totalDeaths = 0;\n            uint currentDay = 0;\n\n            for (uint i = 0; i < patientAddresses.length; i++) {\n                if (patients[patientAddresses[i]].isDead && patients[patientAddresses[i]].deathDate > 0) {\n                    if (patients[patientAddresses[i]].deathDate != currentDay) {\n                        totalDays += 1;\n                        currentDay = patients[patientAddresses[i]].deathDate;\n                    }\n                    totalDeaths++;\n                }\n            }\n\n            if (totalDeaths > 0) {\n                return division(2, totalDeaths, totalDays);\n            }\n        }\n        return '0';\n    }\n\n    function getDistrictWithMostPatients() public view returns (string memory) {\n        return mostPatientsDistrict;\n    }\n\n    function division(uint256 decimalPlaces, uint256 numerator, uint256 denominator) public pure returns(string memory) {\n    uint quotient = numerator / denominator;\n    uint remainder = (numerator * (10**decimalPlaces)) / denominator % (10**decimalPlaces);\n    bool rounding = 2 * (remainder % denominator) >= denominator;\n    if (rounding) {\n        remainder += 1;\n    }\n    return string(abi.encodePacked(toString(quotient), '.', toString(remainder)));\n}\n\nfunction toString(uint256 value) internal pure returns (string memory) {\n    if (value == 0) {\n        return \"0\";\n    }\n    uint256 temp = value;\n    uint256 digits;\n    while (temp != 0) {\n        digits++;\n        temp /= 10;\n    }\n    bytes memory buffer = new bytes(digits);\n    while (value != 0) {\n        digits -= 1;\n        buffer[digits] = bytes1(uint8(48 + value % 10));\n        value /= 10;\n    }\n    return string(buffer);\n}\n\n    function agePercentages() public view returns (string memory) {\n        uint childrenCount = 0;\n        uint teenagersCount = 0;\n        uint youngCount = 0;\n        uint elderCount = 0;\n\n        for (uint i = 0; i < patientAddresses.length; i++) {\n            uint age = patients[patientAddresses[i]].age;\n            if (age < 13) {\n                childrenCount++;\n            } else if (age >= 13 && age < 20) {\n                teenagersCount++;\n            } else if (age >= 20 && age < 50) {\n                youngCount++;\n            } else if (age >= 50) {\n                elderCount++;\n            }\n        }\n\n        uint totalCount = patientAddresses.length;\n        string memory childrenPercentage = division(2, childrenCount * 100, totalCount);\n        string memory teenagersPercentage = division(2, teenagersCount * 100, totalCount);\n        string memory youngPercentage = division(2, youngCount * 100, totalCount);\n        string memory elderPercentage = division(2, elderCount * 100, totalCount);\n        return string(abi.encodePacked(\n            \"Children: \", childrenPercentage, \" %, \",\n            \"Teenagers: \", teenagersPercentage, \" %, \",\n            \"Young: \", youngPercentage, \" %, \",\n            \"Elder: \", elderPercentage, \" %\"\n        ));\n    }\n}\n",
  "sourcePath": "/home/lycanthrope/Github/SolidityProject/contracts/PatientManagement.sol",
  "compiler": {
    "name": "solc",
    "version": "0.8.13+commit.abaa5c0e.Emscripten.clang"
  },
  "schemaVersion": "3.4.16",
  "updatedAt": "2024-12-30T12:22:30.830Z",
  "networkType": "ethereum",
  "devdoc": {
    "kind": "dev",
    "methods": {},
    "version": 1
  },
  "userdoc": {
    "kind": "user",
    "methods": {},
    "version": 1
  }
}