{
  "contractName": "PatientManagement",
  "abi": [
    {
      "inputs": [],
      "stateMutability": "nonpayable",
      "type": "constructor"
    },
    {
      "inputs": [],
      "name": "admin",
      "outputs": [
        {
          "internalType": "address",
          "name": "",
          "type": "address"
        }
      ],
      "stateMutability": "view",
      "type": "function",
      "constant": true
    },
    {
      "inputs": [],
      "name": "patientCount",
      "outputs": [
        {
          "internalType": "uint256",
          "name": "",
          "type": "uint256"
        }
      ],
      "stateMutability": "view",
      "type": "function",
      "constant": true
    },
    {
      "inputs": [
        {
          "internalType": "address",
          "name": "",
          "type": "address"
        }
      ],
      "name": "patients",
      "outputs": [
        {
          "internalType": "uint256",
          "name": "id",
          "type": "uint256"
        },
        {
          "internalType": "address",
          "name": "patientAddress",
          "type": "address"
        },
        {
          "internalType": "string",
          "name": "name",
          "type": "string"
        },
        {
          "internalType": "uint256",
          "name": "age",
          "type": "uint256"
        },
        {
          "internalType": "string",
          "name": "gender",
          "type": "string"
        },
        {
          "internalType": "enum PatientManagement.VaccineStatus",
          "name": "vaccineStatus",
          "type": "uint8"
        },
        {
          "internalType": "string",
          "name": "district",
          "type": "string"
        },
        {
          "internalType": "string",
          "name": "symptomsDetails",
          "type": "string"
        },
        {
          "internalType": "bool",
          "name": "isDead",
          "type": "bool"
        },
        {
          "internalType": "bool",
          "name": "hasAddedInfo",
          "type": "bool"
        }
      ],
      "stateMutability": "view",
      "type": "function",
      "constant": true
    },
    {
      "inputs": [],
      "name": "adminSignin",
      "outputs": [
        {
          "internalType": "bool",
          "name": "",
          "type": "bool"
        }
      ],
      "stateMutability": "view",
      "type": "function",
      "constant": true
    },
    {
      "inputs": [],
      "name": "patientSignin",
      "outputs": [
        {
          "internalType": "bool",
          "name": "",
          "type": "bool"
        }
      ],
      "stateMutability": "view",
      "type": "function",
      "constant": true
    },
    {
      "inputs": [
        {
          "internalType": "string",
          "name": "_name",
          "type": "string"
        },
        {
          "internalType": "uint256",
          "name": "_age",
          "type": "uint256"
        },
        {
          "internalType": "string",
          "name": "_gender",
          "type": "string"
        },
        {
          "internalType": "enum PatientManagement.VaccineStatus",
          "name": "_vaccineStatus",
          "type": "uint8"
        },
        {
          "internalType": "string",
          "name": "_district",
          "type": "string"
        },
        {
          "internalType": "string",
          "name": "_symptomsDetails",
          "type": "string"
        }
      ],
      "name": "addPatient",
      "outputs": [],
      "stateMutability": "nonpayable",
      "type": "function"
    },
    {
      "inputs": [
        {
          "internalType": "uint256",
          "name": "_age",
          "type": "uint256"
        },
        {
          "internalType": "string",
          "name": "_gender",
          "type": "string"
        },
        {
          "internalType": "enum PatientManagement.VaccineStatus",
          "name": "_vaccineStatus",
          "type": "uint8"
        },
        {
          "internalType": "string",
          "name": "_district",
          "type": "string"
        },
        {
          "internalType": "string",
          "name": "_symptomsDetails",
          "type": "string"
        },
        {
          "internalType": "bool",
          "name": "_isDead",
          "type": "bool"
        }
      ],
      "name": "updatePatient",
      "outputs": [],
      "stateMutability": "nonpayable",
      "type": "function"
    },
    {
      "inputs": [],
      "name": "getAllPatients",
      "outputs": [
        {
          "components": [
            {
              "internalType": "uint256",
              "name": "id",
              "type": "uint256"
            },
            {
              "internalType": "address",
              "name": "patientAddress",
              "type": "address"
            },
            {
              "internalType": "string",
              "name": "name",
              "type": "string"
            },
            {
              "internalType": "uint256",
              "name": "age",
              "type": "uint256"
            },
            {
              "internalType": "string",
              "name": "gender",
              "type": "string"
            },
            {
              "internalType": "enum PatientManagement.VaccineStatus",
              "name": "vaccineStatus",
              "type": "uint8"
            },
            {
              "internalType": "string",
              "name": "district",
              "type": "string"
            },
            {
              "internalType": "string",
              "name": "symptomsDetails",
              "type": "string"
            },
            {
              "internalType": "bool",
              "name": "isDead",
              "type": "bool"
            },
            {
              "internalType": "bool",
              "name": "hasAddedInfo",
              "type": "bool"
            }
          ],
          "internalType": "struct PatientManagement.Patient[]",
          "name": "",
          "type": "tuple[]"
        }
      ],
      "stateMutability": "view",
      "type": "function",
      "constant": true
    }
  ],
  "bytecode": "0x608060405234801561001057600080fd5b50336000806101000a81548173ffffffffffffffffffffffffffffffffffffffff021916908373ffffffffffffffffffffffffffffffffffffffff160217905550611d3a806100606000396000f3fe608060405234801561001057600080fd5b50600436106100885760003560e01c80634c9d68811161005b5780634c9d68811461011c578063968d80781461013a578063a0303c4114610158578063f851a4401461017657610088565b80630869cfbc1461008d57806317557a9f146100c657806318a231a9146100e25780632d7e3ab514610100575b600080fd5b6100a760048036038101906100a29190610f0d565b610194565b6040516100bd9a99989796959493929190611084565b60405180910390f35b6100e060048036038101906100db91906112c2565b61044f565b005b6100ea610690565b6040516100f791906115f6565b60405180910390f35b61011a60048036038101906101159190611644565b610b43565b005b610124610d4e565b6040516101319190611725565b60405180910390f35b610142610d9b565b60405161014f9190611725565b60405180910390f35b610160610df2565b60405161016d9190611740565b60405180910390f35b61017e610df8565b60405161018b919061175b565b60405180910390f35b60016020528060005260406000206000915090508060000154908060010160009054906101000a900473ffffffffffffffffffffffffffffffffffffffff16908060020180546101e3906117a5565b80601f016020809104026020016040519081016040528092919081815260200182805461020f906117a5565b801561025c5780601f106102315761010080835404028352916020019161025c565b820191906000526020600020905b81548152906001019060200180831161023f57829003601f168201915b505050505090806003015490806004018054610277906117a5565b80601f01602080910402602001604051908101604052809291908181526020018280546102a3906117a5565b80156102f05780601f106102c5576101008083540402835291602001916102f0565b820191906000526020600020905b8154815290600101906020018083116102d357829003601f168201915b5050505050908060050160009054906101000a900460ff1690806006018054610318906117a5565b80601f0160208091040260200160405190810160405280929190818152602001828054610344906117a5565b80156103915780601f1061036657610100808354040283529160200191610391565b820191906000526020600020905b81548152906001019060200180831161037457829003601f168201915b5050505050908060070180546103a6906117a5565b80601f01602080910402602001604051908101604052809291908181526020018280546103d2906117a5565b801561041f5780601f106103f45761010080835404028352916020019161041f565b820191906000526020600020905b81548152906001019060200180831161040257829003601f168201915b5050505050908060080160009054906101000a900460ff16908060080160019054906101000a900460ff1690508a565b6000865111610493576040517f08c379a000000000000000000000000000000000000000000000000000000000815260040161048a90611822565b60405180910390fd5b600260008154809291906104a690611871565b919050555060405180610140016040528060025481526020013373ffffffffffffffffffffffffffffffffffffffff168152602001878152602001868152602001858152602001846002811115610500576104ff610ff2565b5b815260200183815260200182815260200160001515815260200160011515815250600160003373ffffffffffffffffffffffffffffffffffffffff1673ffffffffffffffffffffffffffffffffffffffff1681526020019081526020016000206000820151816000015560208201518160010160006101000a81548173ffffffffffffffffffffffffffffffffffffffff021916908373ffffffffffffffffffffffffffffffffffffffff16021790555060408201518160020190816105c69190611a65565b506060820151816003015560808201518160040190816105e69190611a65565b5060a08201518160050160006101000a81548160ff0219169083600281111561061257610611610ff2565b5b021790555060c082015181600601908161062c9190611a65565b5060e08201518160070190816106429190611a65565b506101008201518160080160006101000a81548160ff0219169083151502179055506101208201518160080160016101000a81548160ff021916908315150217905550905050505050505050565b606060008054906101000a900473ffffffffffffffffffffffffffffffffffffffff1673ffffffffffffffffffffffffffffffffffffffff163373ffffffffffffffffffffffffffffffffffffffff1614610720576040517f08c379a000000000000000000000000000000000000000000000000000000000815260040161071790611ba9565b60405180910390fd5b600060025467ffffffffffffffff81111561073e5761073d611146565b5b60405190808252806020026020018201604052801561077757816020015b610764610e1c565b81526020019060019003908161075c5790505b5090506000600190505b6002548111610b3b576000600160003373ffffffffffffffffffffffffffffffffffffffff1673ffffffffffffffffffffffffffffffffffffffff16815260200190815260200160002090508060405180610140016040529081600082015481526020016001820160009054906101000a900473ffffffffffffffffffffffffffffffffffffffff1673ffffffffffffffffffffffffffffffffffffffff1673ffffffffffffffffffffffffffffffffffffffff16815260200160028201805461084a906117a5565b80601f0160208091040260200160405190810160405280929190818152602001828054610876906117a5565b80156108c35780601f10610898576101008083540402835291602001916108c3565b820191906000526020600020905b8154815290600101906020018083116108a657829003601f168201915b50505050508152602001600382015481526020016004820180546108e6906117a5565b80601f0160208091040260200160405190810160405280929190818152602001828054610912906117a5565b801561095f5780601f106109345761010080835404028352916020019161095f565b820191906000526020600020905b81548152906001019060200180831161094257829003601f168201915b505050505081526020016005820160009054906101000a900460ff16600281111561098d5761098c610ff2565b5b600281111561099f5761099e610ff2565b5b81526020016006820180546109b3906117a5565b80601f01602080910402602001604051908101604052809291908181526020018280546109df906117a5565b8015610a2c5780601f10610a0157610100808354040283529160200191610a2c565b820191906000526020600020905b815481529060010190602001808311610a0f57829003601f168201915b50505050508152602001600782018054610a45906117a5565b80601f0160208091040260200160405190810160405280929190818152602001828054610a71906117a5565b8015610abe5780601f10610a9357610100808354040283529160200191610abe565b820191906000526020600020905b815481529060010190602001808311610aa157829003601f168201915b505050505081526020016008820160009054906101000a900460ff161515151581526020016008820160019054906101000a900460ff16151515158152505083600184610b0b9190611bc9565b81518110610b1c57610b1b611bfd565b5b6020026020010181905250508080610b3390611871565b915050610781565b508091505090565b60008054906101000a900473ffffffffffffffffffffffffffffffffffffffff1673ffffffffffffffffffffffffffffffffffffffff163373ffffffffffffffffffffffffffffffffffffffff1614610bd1576040517f08c379a0000000000000000000000000000000000000000000000000000000008152600401610bc890611ba9565b60405180910390fd5b60008611610c14576040517f08c379a0000000000000000000000000000000000000000000000000000000008152600401610c0b90611c78565b60405180910390fd5b600280811115610c2757610c26610ff2565b5b846002811115610c3a57610c39610ff2565b5b1115610c7b576040517f08c379a0000000000000000000000000000000000000000000000000000000008152600401610c7290611ce4565b60405180910390fd5b6000600160003373ffffffffffffffffffffffffffffffffffffffff1673ffffffffffffffffffffffffffffffffffffffff168152602001908152602001600020905086816003018190555085816004019081610cd89190611a65565b50848160050160006101000a81548160ff02191690836002811115610d0057610cff610ff2565b5b021790555083816006019081610d169190611a65565b5082816007019081610d289190611a65565b50818160080160006101000a81548160ff02191690831515021790555050505050505050565b600080600160003373ffffffffffffffffffffffffffffffffffffffff1673ffffffffffffffffffffffffffffffffffffffff168152602001908152602001600020600001541415905090565b60008060009054906101000a900473ffffffffffffffffffffffffffffffffffffffff1673ffffffffffffffffffffffffffffffffffffffff163373ffffffffffffffffffffffffffffffffffffffff1614905090565b60025481565b60008054906101000a900473ffffffffffffffffffffffffffffffffffffffff1681565b60405180610140016040528060008152602001600073ffffffffffffffffffffffffffffffffffffffff16815260200160608152602001600081526020016060815260200160006002811115610e7557610e74610ff2565b5b815260200160608152602001606081526020016000151581526020016000151581525090565b6000604051905090565b600080fd5b600080fd5b600073ffffffffffffffffffffffffffffffffffffffff82169050919050565b6000610eda82610eaf565b9050919050565b610eea81610ecf565b8114610ef557600080fd5b50565b600081359050610f0781610ee1565b92915050565b600060208284031215610f2357610f22610ea5565b5b6000610f3184828501610ef8565b91505092915050565b6000819050919050565b610f4d81610f3a565b82525050565b610f5c81610ecf565b82525050565b600081519050919050565b600082825260208201905092915050565b60005b83811015610f9c578082015181840152602081019050610f81565b60008484015250505050565b6000601f19601f8301169050919050565b6000610fc482610f62565b610fce8185610f6d565b9350610fde818560208601610f7e565b610fe781610fa8565b840191505092915050565b7f4e487b7100000000000000000000000000000000000000000000000000000000600052602160045260246000fd5b6003811061103257611031610ff2565b5b50565b600081905061104382611021565b919050565b600061105382611035565b9050919050565b61106381611048565b82525050565b60008115159050919050565b61107e81611069565b82525050565b60006101408201905061109a600083018d610f44565b6110a7602083018c610f53565b81810360408301526110b9818b610fb9565b90506110c8606083018a610f44565b81810360808301526110da8189610fb9565b90506110e960a083018861105a565b81810360c08301526110fb8187610fb9565b905081810360e083015261110f8186610fb9565b905061111f610100830185611075565b61112d610120830184611075565b9b9a5050505050505050505050565b600080fd5b600080fd5b7f4e487b7100000000000000000000000000000000000000000000000000000000600052604160045260246000fd5b61117e82610fa8565b810181811067ffffffffffffffff8211171561119d5761119c611146565b5b80604052505050565b60006111b0610e9b565b90506111bc8282611175565b919050565b600067ffffffffffffffff8211156111dc576111db611146565b5b6111e582610fa8565b9050602081019050919050565b82818337600083830152505050565b600061121461120f846111c1565b6111a6565b9050828152602081018484840111156112305761122f611141565b5b61123b8482856111f2565b509392505050565b600082601f8301126112585761125761113c565b5b8135611268848260208601611201565b91505092915050565b61127a81610f3a565b811461128557600080fd5b50565b60008135905061129781611271565b92915050565b600381106112aa57600080fd5b50565b6000813590506112bc8161129d565b92915050565b60008060008060008060c087890312156112df576112de610ea5565b5b600087013567ffffffffffffffff8111156112fd576112fc610eaa565b5b61130989828a01611243565b965050602061131a89828a01611288565b955050604087013567ffffffffffffffff81111561133b5761133a610eaa565b5b61134789828a01611243565b945050606061135889828a016112ad565b935050608087013567ffffffffffffffff81111561137957611378610eaa565b5b61138589828a01611243565b92505060a087013567ffffffffffffffff8111156113a6576113a5610eaa565b5b6113b289828a01611243565b9150509295509295509295565b600081519050919050565b600082825260208201905092915050565b6000819050602082019050919050565b6113f481610f3a565b82525050565b61140381610ecf565b82525050565b600082825260208201905092915050565b600061142582610f62565b61142f8185611409565b935061143f818560208601610f7e565b61144881610fa8565b840191505092915050565b61145c81611048565b82525050565b61146b81611069565b82525050565b60006101408301600083015161148a60008601826113eb565b50602083015161149d60208601826113fa565b50604083015184820360408601526114b5828261141a565b91505060608301516114ca60608601826113eb565b50608083015184820360808601526114e2828261141a565b91505060a08301516114f760a0860182611453565b5060c083015184820360c086015261150f828261141a565b91505060e083015184820360e0860152611529828261141a565b915050610100830151611540610100860182611462565b50610120830151611555610120860182611462565b508091505092915050565b600061156c8383611471565b905092915050565b6000602082019050919050565b600061158c826113bf565b61159681856113ca565b9350836020820285016115a8856113db565b8060005b858110156115e457848403895281516115c58582611560565b94506115d083611574565b925060208a019950506001810190506115ac565b50829750879550505050505092915050565b600060208201905081810360008301526116108184611581565b905092915050565b61162181611069565b811461162c57600080fd5b50565b60008135905061163e81611618565b92915050565b60008060008060008060c0878903121561166157611660610ea5565b5b600061166f89828a01611288565b965050602087013567ffffffffffffffff8111156116905761168f610eaa565b5b61169c89828a01611243565b95505060406116ad89828a016112ad565b945050606087013567ffffffffffffffff8111156116ce576116cd610eaa565b5b6116da89828a01611243565b935050608087013567ffffffffffffffff8111156116fb576116fa610eaa565b5b61170789828a01611243565b92505060a061171889828a0161162f565b9150509295509295509295565b600060208201905061173a6000830184611075565b92915050565b60006020820190506117556000830184610f44565b92915050565b60006020820190506117706000830184610f53565b92915050565b7f4e487b7100000000000000000000000000000000000000000000000000000000600052602260045260246000fd5b600060028204905060018216806117bd57607f821691505b6020821081036117d0576117cf611776565b5b50919050565b7f4e616d65206d757374206e6f7420626520656d70747900000000000000000000600082015250565b600061180c601683610f6d565b9150611817826117d6565b602082019050919050565b6000602082019050818103600083015261183b816117ff565b9050919050565b7f4e487b7100000000000000000000000000000000000000000000000000000000600052601160045260246000fd5b600061187c82610f3a565b91507fffffffffffffffffffffffffffffffffffffffffffffffffffffffffffffffff82036118ae576118ad611842565b5b600182019050919050565b60008190508160005260206000209050919050565b60006020601f8301049050919050565b600082821b905092915050565b60006008830261191b7fffffffffffffffffffffffffffffffffffffffffffffffffffffffffffffffff826118de565b61192586836118de565b95508019841693508086168417925050509392505050565b6000819050919050565b600061196261195d61195884610f3a565b61193d565b610f3a565b9050919050565b6000819050919050565b61197c83611947565b61199061198882611969565b8484546118eb565b825550505050565b600090565b6119a5611998565b6119b0818484611973565b505050565b5b818110156119d4576119c960008261199d565b6001810190506119b6565b5050565b601f821115611a19576119ea816118b9565b6119f3846118ce565b81016020851015611a02578190505b611a16611a0e856118ce565b8301826119b5565b50505b505050565b600082821c905092915050565b6000611a3c60001984600802611a1e565b1980831691505092915050565b6000611a558383611a2b565b9150826002028217905092915050565b611a6e82610f62565b67ffffffffffffffff811115611a8757611a86611146565b5b611a9182546117a5565b611a9c8282856119d8565b600060209050601f831160018114611acf5760008415611abd578287015190505b611ac78582611a49565b865550611b2f565b601f198416611add866118b9565b60005b82811015611b0557848901518255600182019150602085019450602081019050611ae0565b86831015611b225784890151611b1e601f891682611a2b565b8355505b6001600288020188555050505b505050505050565b7f4f6e6c792061646d696e2063616e20706572666f726d2074686973206163746960008201527f6f6e000000000000000000000000000000000000000000000000000000000000602082015250565b6000611b93602283610f6d565b9150611b9e82611b37565b604082019050919050565b60006020820190508181036000830152611bc281611b86565b9050919050565b6000611bd482610f3a565b9150611bdf83610f3a565b9250828203905081811115611bf757611bf6611842565b5b92915050565b7f4e487b7100000000000000000000000000000000000000000000000000000000600052603260045260246000fd5b7f416765206d7573742062652067726561746572207468616e207a65726f000000600082015250565b6000611c62601d83610f6d565b9150611c6d82611c2c565b602082019050919050565b60006020820190508181036000830152611c9181611c55565b9050919050565b7f496e76616c69642076616363696e652073746174757300000000000000000000600082015250565b6000611cce601683610f6d565b9150611cd982611c98565b602082019050919050565b60006020820190508181036000830152611cfd81611cc1565b905091905056fea2646970667358221220fb7bdfa087d07c871a8665829217b985850e6f00e545b6c921b3ae51875940d164736f6c63430008100033",
  "immutableReferences": {},
  "source": "// contract PatientManagement {\n//     enum VaccineStatus { NotVaccinated, OneDose, TwoDose }\n    \n//     struct Patient {\n//         uint256 id;\n//         address patientAddress; // Added patient address\n//         string name;\n//         uint256 age;\n//         string gender;\n//         VaccineStatus vaccineStatus;\n//         string district;\n//         string symptomsDetails;\n//         bool isDead;\n//         bool hasAddedInfo;\n//     }\n    \n//     address public admin;\n//     mapping(address => Patient) public patients;\n//     uint256 public patientCount;\n    \n//     modifier onlyAdmin() {\n//         require(msg.sender == admin, \"Only admin can perform this action\");\n//         _;\n//     }\n    \n//     constructor() {\n//         admin = msg.sender; // The first account of Ganache becomes the admin\n//     }\n    \n//     function adminSignin() public view returns (bool) {\n//         return msg.sender == admin;\n//     }\n    \n//     function patientSignin() public view returns (bool) {\n//         return patients[msg.sender].id != 0;\n//     }\n    \n    \n    \n//     function addPatient(\n//     string memory _name,\n//     uint256 _age,\n//     string memory _gender,\n//     VaccineStatus _vaccineStatus,\n//     string memory _district,\n//     string memory _symptomsDetails\n//     ) public {\n//         require(bytes(_name).length > 0, \"Name must not be empty\");\n\n//         patientCount++;\n\n//         patients[msg.sender] = Patient(\n//             patientCount,\n//             msg.sender,\n//             _name,\n//             _age,\n//             _gender,\n//             _vaccineStatus,\n//             _district,\n//             _symptomsDetails,\n//             false,\n//             true\n//         );\n//     }\n\n\n\n\n\n//     function updatePatient(address _patientAddress, uint256 _age, string memory _gender, VaccineStatus _vaccineStatus, string memory _district, string memory _symptomsDetails, bool _isDead) public onlyAdmin {\n//         require(_age > 0, \"Age must be greater than zero\");\n//         require(bytes(_gender).length > 0, \"Gender must not be empty\");\n//         require(uint256(_vaccineStatus) <= uint256(VaccineStatus.TwoDose), \"Invalid vaccine status\");\n        \n//         patients[_patientAddress].age = _age;\n//         patients[_patientAddress].gender = _gender;\n//         patients[_patientAddress].vaccineStatus = _vaccineStatus;\n//         patients[_patientAddress].district = _district;\n//         patients[_patientAddress].symptomsDetails = _symptomsDetails;\n//         patients[_patientAddress].isDead = _isDead;\n//     }\n\n    \n//     function getAllPatients() public view  returns (Patient[] memory) {\n//         Patient[] memory allPatients = new Patient[](patientCount);\n        \n//         for (uint256 i = 0; i < patientCount; i++) {\n//             allPatients[i] = patients[patients[msg.sender].patientAddress];\n//         }\n//         return allPatients;\n//     }\n// }\n\n// SPDX-License-Identifier: GPL-3.0\npragma solidity >=0.7.0 <0.9.0;\n\ncontract PatientManagement {\n    enum VaccineStatus { NotVaccinated, OneDose, TwoDose }\n\n    struct Patient {\n        uint256 id;\n        address patientAddress;\n        string name;\n        uint256 age;\n        string gender;\n        VaccineStatus vaccineStatus;\n        string district;\n        string symptomsDetails;\n        bool isDead;\n        bool hasAddedInfo;\n    }\n\n    address public admin;\n    mapping(address => Patient) public patients;\n    uint256 public patientCount;\n\n    modifier onlyAdmin() {\n        require(msg.sender == admin, \"Only admin can perform this action\");\n        _;\n    }\n\n    constructor() {\n        admin = msg.sender; // The first account of Ganache becomes the admin\n    }\n\n    function adminSignin() public view returns (bool) {\n        return msg.sender == admin;\n    }\n\n    function patientSignin() public view returns (bool) {\n        return patients[msg.sender].id != 0;\n    }\n\n    function addPatient(\n        string memory _name,\n        uint256 _age,\n        string memory _gender,\n        VaccineStatus _vaccineStatus,\n        string memory _district,\n        string memory _symptomsDetails\n    ) public {\n        require(bytes(_name).length > 0, \"Name must not be empty\");\n\n        patientCount++;\n\n        patients[msg.sender] = Patient({\n            id: patientCount,\n            patientAddress: msg.sender,\n            name: _name,\n            age: _age,\n            gender: _gender,\n            vaccineStatus: _vaccineStatus,\n            district: _district,\n            symptomsDetails: _symptomsDetails,\n            isDead: false,\n            hasAddedInfo: true\n        });\n    }\n\n    function updatePatient(\n        uint256 _age,\n        string memory _gender,\n        VaccineStatus _vaccineStatus,\n        string memory _district,\n        string memory _symptomsDetails,\n        bool _isDead\n    ) public onlyAdmin {\n        require(_age > 0, \"Age must be greater than zero\");\n        require(\n            uint256(_vaccineStatus) <= uint256(VaccineStatus.TwoDose),\n            \"Invalid vaccine status\"\n        );\n\n        Patient storage patient = patients[msg.sender];\n        patient.age = _age;\n        patient.gender = _gender;\n        patient.vaccineStatus = _vaccineStatus;\n        patient.district = _district;\n        patient.symptomsDetails = _symptomsDetails;\n        patient.isDead = _isDead;\n    }\n\n    function getAllPatients() public view onlyAdmin returns (Patient[] memory) {\n        Patient[] memory allPatients = new Patient[](patientCount);\n\n        for (uint256 i = 1; i <= patientCount; i++) {\n            Patient storage patient = patients[msg.sender];\n            allPatients[i - 1] = patient;\n        }\n        return allPatients;\n    }\n}\n\n",
  "sourcePath": "/home/lycanthrope/Downloads/446Project/contracts/PatientManagement.sol",
  "compiler": {
    "name": "solc",
    "version": "0.8.16+commit.07a7930e.Emscripten.clang"
  },
  "schemaVersion": "3.4.15",
  "updatedAt": "2023-08-15T12:53:15.587Z",
  "networkType": "ethereum",
  "devdoc": {
    "kind": "dev",
    "methods": {},
    "version": 1
  },
  "userdoc": {
    "kind": "user",
    "methods": {},
    "version": 1
  }
}