{
  "contractName": "PatientManagement",
  "abi": [
    {
      "inputs": [
        {
          "internalType": "address[]",
          "name": "initialDoctors",
          "type": "address[]"
        }
      ],
      "stateMutability": "nonpayable",
      "type": "constructor"
    },
    {
      "anonymous": false,
      "inputs": [
        {
          "indexed": false,
          "internalType": "string",
          "name": "newAgePercentages",
          "type": "string"
        }
      ],
      "name": "AgePercentagesChanged",
      "type": "event"
    },
    {
      "anonymous": false,
      "inputs": [
        {
          "indexed": true,
          "internalType": "uint256",
          "name": "id",
          "type": "uint256"
        },
        {
          "indexed": true,
          "internalType": "address",
          "name": "patient",
          "type": "address"
        },
        {
          "indexed": true,
          "internalType": "address",
          "name": "doctor",
          "type": "address"
        },
        {
          "indexed": false,
          "internalType": "uint256",
          "name": "dateTime",
          "type": "uint256"
        }
      ],
      "name": "AppointmentBooked",
      "type": "event"
    },
    {
      "anonymous": false,
      "inputs": [
        {
          "indexed": false,
          "internalType": "string",
          "name": "newAverageDeathRate",
          "type": "string"
        }
      ],
      "name": "AverageDeathRateChanged",
      "type": "event"
    },
    {
      "anonymous": false,
      "inputs": [
        {
          "indexed": false,
          "internalType": "string",
          "name": "newDistrictWithMostPatients",
          "type": "string"
        }
      ],
      "name": "DistrictWithMostPatientsChanged",
      "type": "event"
    },
    {
      "inputs": [],
      "name": "admin",
      "outputs": [
        {
          "internalType": "address",
          "name": "",
          "type": "address"
        }
      ],
      "stateMutability": "view",
      "type": "function",
      "constant": true
    },
    {
      "inputs": [
        {
          "internalType": "uint256",
          "name": "",
          "type": "uint256"
        }
      ],
      "name": "appointments",
      "outputs": [
        {
          "internalType": "uint256",
          "name": "id",
          "type": "uint256"
        },
        {
          "internalType": "address",
          "name": "patient",
          "type": "address"
        },
        {
          "internalType": "address",
          "name": "doctor",
          "type": "address"
        },
        {
          "internalType": "uint256",
          "name": "dateTime",
          "type": "uint256"
        },
        {
          "internalType": "bool",
          "name": "confirmed",
          "type": "bool"
        }
      ],
      "stateMutability": "view",
      "type": "function",
      "constant": true
    },
    {
      "inputs": [],
      "name": "deathCount",
      "outputs": [
        {
          "internalType": "uint256",
          "name": "",
          "type": "uint256"
        }
      ],
      "stateMutability": "view",
      "type": "function",
      "constant": true
    },
    {
      "inputs": [
        {
          "internalType": "address",
          "name": "",
          "type": "address"
        }
      ],
      "name": "doctors",
      "outputs": [
        {
          "internalType": "bool",
          "name": "",
          "type": "bool"
        }
      ],
      "stateMutability": "view",
      "type": "function",
      "constant": true
    },
    {
      "inputs": [],
      "name": "nextAppointmentId",
      "outputs": [
        {
          "internalType": "uint256",
          "name": "",
          "type": "uint256"
        }
      ],
      "stateMutability": "view",
      "type": "function",
      "constant": true
    },
    {
      "inputs": [
        {
          "internalType": "uint256",
          "name": "",
          "type": "uint256"
        }
      ],
      "name": "patientAddresses",
      "outputs": [
        {
          "internalType": "address",
          "name": "",
          "type": "address"
        }
      ],
      "stateMutability": "view",
      "type": "function",
      "constant": true
    },
    {
      "inputs": [],
      "name": "patientCount",
      "outputs": [
        {
          "internalType": "uint256",
          "name": "",
          "type": "uint256"
        }
      ],
      "stateMutability": "view",
      "type": "function",
      "constant": true
    },
    {
      "inputs": [
        {
          "internalType": "address",
          "name": "",
          "type": "address"
        }
      ],
      "name": "patients",
      "outputs": [
        {
          "internalType": "uint256",
          "name": "id",
          "type": "uint256"
        },
        {
          "internalType": "address",
          "name": "patientAddress",
          "type": "address"
        },
        {
          "internalType": "string",
          "name": "name",
          "type": "string"
        },
        {
          "internalType": "uint256",
          "name": "age",
          "type": "uint256"
        },
        {
          "internalType": "string",
          "name": "gender",
          "type": "string"
        },
        {
          "internalType": "enum PatientManagement.VaccineStatus",
          "name": "vaccineStatus",
          "type": "uint8"
        },
        {
          "internalType": "string",
          "name": "district",
          "type": "string"
        },
        {
          "internalType": "string",
          "name": "symptomsDetails",
          "type": "string"
        },
        {
          "internalType": "bool",
          "name": "isDead",
          "type": "bool"
        },
        {
          "internalType": "bool",
          "name": "hasInfo",
          "type": "bool"
        },
        {
          "internalType": "uint256",
          "name": "deathDate",
          "type": "uint256"
        }
      ],
      "stateMutability": "view",
      "type": "function",
      "constant": true
    },
    {
      "inputs": [],
      "name": "adminSignin",
      "outputs": [
        {
          "internalType": "bool",
          "name": "",
          "type": "bool"
        }
      ],
      "stateMutability": "view",
      "type": "function",
      "constant": true
    },
    {
      "inputs": [],
      "name": "patientSignin",
      "outputs": [
        {
          "internalType": "bool",
          "name": "",
          "type": "bool"
        }
      ],
      "stateMutability": "view",
      "type": "function",
      "constant": true
    },
    {
      "inputs": [
        {
          "internalType": "string",
          "name": "_name",
          "type": "string"
        },
        {
          "internalType": "uint256",
          "name": "_age",
          "type": "uint256"
        },
        {
          "internalType": "string",
          "name": "_gender",
          "type": "string"
        },
        {
          "internalType": "enum PatientManagement.VaccineStatus",
          "name": "_vaccineStatus",
          "type": "uint8"
        },
        {
          "internalType": "string",
          "name": "_district",
          "type": "string"
        },
        {
          "internalType": "string",
          "name": "_symptomsDetails",
          "type": "string"
        }
      ],
      "name": "addPatient",
      "outputs": [],
      "stateMutability": "nonpayable",
      "type": "function"
    },
    {
      "inputs": [
        {
          "internalType": "address",
          "name": "_patientAddress",
          "type": "address"
        },
        {
          "internalType": "string",
          "name": "_name",
          "type": "string"
        },
        {
          "internalType": "uint256",
          "name": "_age",
          "type": "uint256"
        },
        {
          "internalType": "string",
          "name": "_gender",
          "type": "string"
        },
        {
          "internalType": "uint256",
          "name": "_vaccineStatus",
          "type": "uint256"
        },
        {
          "internalType": "string",
          "name": "_district",
          "type": "string"
        },
        {
          "internalType": "string",
          "name": "_symptomsDetails",
          "type": "string"
        },
        {
          "internalType": "bool",
          "name": "_isDead",
          "type": "bool"
        },
        {
          "internalType": "bool",
          "name": "_hasInfo",
          "type": "bool"
        },
        {
          "internalType": "uint256",
          "name": "_deathDate",
          "type": "uint256"
        }
      ],
      "name": "updatePatient",
      "outputs": [],
      "stateMutability": "nonpayable",
      "type": "function"
    },
    {
      "inputs": [
        {
          "internalType": "string",
          "name": "_patientAddressString",
          "type": "string"
        }
      ],
      "name": "deletePatient",
      "outputs": [],
      "stateMutability": "nonpayable",
      "type": "function"
    },
    {
      "inputs": [],
      "name": "getAllPatientAddresses",
      "outputs": [
        {
          "internalType": "address[]",
          "name": "",
          "type": "address[]"
        }
      ],
      "stateMutability": "view",
      "type": "function",
      "constant": true
    },
    {
      "inputs": [],
      "name": "getAllPatients",
      "outputs": [
        {
          "components": [
            {
              "internalType": "uint256",
              "name": "id",
              "type": "uint256"
            },
            {
              "internalType": "address",
              "name": "patientAddress",
              "type": "address"
            },
            {
              "internalType": "string",
              "name": "name",
              "type": "string"
            },
            {
              "internalType": "uint256",
              "name": "age",
              "type": "uint256"
            },
            {
              "internalType": "string",
              "name": "gender",
              "type": "string"
            },
            {
              "internalType": "enum PatientManagement.VaccineStatus",
              "name": "vaccineStatus",
              "type": "uint8"
            },
            {
              "internalType": "string",
              "name": "district",
              "type": "string"
            },
            {
              "internalType": "string",
              "name": "symptomsDetails",
              "type": "string"
            },
            {
              "internalType": "bool",
              "name": "isDead",
              "type": "bool"
            },
            {
              "internalType": "bool",
              "name": "hasInfo",
              "type": "bool"
            },
            {
              "internalType": "uint256",
              "name": "deathDate",
              "type": "uint256"
            }
          ],
          "internalType": "struct PatientManagement.Patient[]",
          "name": "",
          "type": "tuple[]"
        }
      ],
      "stateMutability": "view",
      "type": "function",
      "constant": true
    },
    {
      "inputs": [],
      "name": "averageDeathRate",
      "outputs": [
        {
          "internalType": "string",
          "name": "",
          "type": "string"
        }
      ],
      "stateMutability": "view",
      "type": "function",
      "constant": true
    },
    {
      "inputs": [],
      "name": "getDistrictWithMostPatients",
      "outputs": [
        {
          "internalType": "string",
          "name": "",
          "type": "string"
        }
      ],
      "stateMutability": "view",
      "type": "function",
      "constant": true
    },
    {
      "inputs": [
        {
          "internalType": "uint256",
          "name": "decimalPlaces",
          "type": "uint256"
        },
        {
          "internalType": "uint256",
          "name": "numerator",
          "type": "uint256"
        },
        {
          "internalType": "uint256",
          "name": "denominator",
          "type": "uint256"
        }
      ],
      "name": "division",
      "outputs": [
        {
          "internalType": "string",
          "name": "",
          "type": "string"
        }
      ],
      "stateMutability": "pure",
      "type": "function",
      "constant": true
    },
    {
      "inputs": [],
      "name": "agePercentages",
      "outputs": [
        {
          "internalType": "string",
          "name": "",
          "type": "string"
        }
      ],
      "stateMutability": "view",
      "type": "function",
      "constant": true
    },
    {
      "inputs": [
        {
          "internalType": "address",
          "name": "doctor",
          "type": "address"
        },
        {
          "internalType": "uint256",
          "name": "dateTime",
          "type": "uint256"
        }
      ],
      "name": "bookAppointment",
      "outputs": [],
      "stateMutability": "payable",
      "type": "function",
      "payable": true
    },
    {
      "inputs": [
        {
          "internalType": "address",
          "name": "doctor",
          "type": "address"
        }
      ],
      "name": "getAppointmentsByDoctor",
      "outputs": [
        {
          "components": [
            {
              "internalType": "uint256",
              "name": "id",
              "type": "uint256"
            },
            {
              "internalType": "address",
              "name": "patient",
              "type": "address"
            },
            {
              "internalType": "address",
              "name": "doctor",
              "type": "address"
            },
            {
              "internalType": "uint256",
              "name": "dateTime",
              "type": "uint256"
            },
            {
              "internalType": "bool",
              "name": "confirmed",
              "type": "bool"
            }
          ],
          "internalType": "struct PatientManagement.Appointment[]",
          "name": "",
          "type": "tuple[]"
        }
      ],
      "stateMutability": "view",
      "type": "function",
      "constant": true
    },
    {
      "inputs": [],
      "name": "getAllAppointments",
      "outputs": [
        {
          "components": [
            {
              "internalType": "uint256",
              "name": "id",
              "type": "uint256"
            },
            {
              "internalType": "address",
              "name": "patient",
              "type": "address"
            },
            {
              "internalType": "address",
              "name": "doctor",
              "type": "address"
            },
            {
              "internalType": "uint256",
              "name": "dateTime",
              "type": "uint256"
            },
            {
              "internalType": "bool",
              "name": "confirmed",
              "type": "bool"
            }
          ],
          "internalType": "struct PatientManagement.Appointment[]",
          "name": "",
          "type": "tuple[]"
        }
      ],
      "stateMutability": "view",
      "type": "function",
      "constant": true
    }
  ],
  "bytecode": "0x60806040523480156200001157600080fd5b506040516200447c3803806200447c83398181016040528101906200003791906200030c565b336000806101000a81548173ffffffffffffffffffffffffffffffffffffffff021916908373ffffffffffffffffffffffffffffffffffffffff16021790555060005b81518110156200010e5760018060008484815181106200009f576200009e6200035d565b5b602002602001015173ffffffffffffffffffffffffffffffffffffffff1673ffffffffffffffffffffffffffffffffffffffff16815260200190815260200160002060006101000a81548160ff02191690831515021790555080806200010590620003c5565b9150506200007a565b5060016009819055505062000412565b6000604051905090565b600080fd5b600080fd5b600080fd5b6000601f19601f8301169050919050565b7f4e487b7100000000000000000000000000000000000000000000000000000000600052604160045260246000fd5b620001828262000137565b810181811067ffffffffffffffff82111715620001a457620001a362000148565b5b80604052505050565b6000620001b96200011e565b9050620001c7828262000177565b919050565b600067ffffffffffffffff821115620001ea57620001e962000148565b5b602082029050602081019050919050565b600080fd5b600073ffffffffffffffffffffffffffffffffffffffff82169050919050565b60006200022d8262000200565b9050919050565b6200023f8162000220565b81146200024b57600080fd5b50565b6000815190506200025f8162000234565b92915050565b60006200027c6200027684620001cc565b620001ad565b90508083825260208201905060208402830185811115620002a257620002a1620001fb565b5b835b81811015620002cf5780620002ba88826200024e565b845260208401935050602081019050620002a4565b5050509392505050565b600082601f830112620002f157620002f062000132565b5b81516200030384826020860162000265565b91505092915050565b60006020828403121562000325576200032462000128565b5b600082015167ffffffffffffffff8111156200034657620003456200012d565b5b6200035484828501620002d9565b91505092915050565b7f4e487b7100000000000000000000000000000000000000000000000000000000600052603260045260246000fd5b7f4e487b7100000000000000000000000000000000000000000000000000000000600052601160045260246000fd5b6000819050919050565b6000620003d282620003bb565b91507fffffffffffffffffffffffffffffffffffffffffffffffffffffffffffffffff82036200040757620004066200038c565b5b600182019050919050565b61405a80620004226000396000f3fe6080604052600436106101355760003560e01c806392be3e65116100ab578063b40f16911161006f578063b40f169114610450578063b652807c1461048d578063c9076c9b146104b6578063dd89ed55146104df578063eef289961461050a578063f851a4401461052657610135565b806392be3e6514610367578063968d807814610392578063a0303c41146103bd578063a9583c22146103e8578063b40621a41461042557610135565b80634c9d6881116100fd5780634c9d6881146102535780635ea83bb01461027e5780636d19770d146102bb57806375c5a122146102e65780637933570c1461031157806389dcc4a21461033c57610135565b80630869cfbc1461013a57806312dc90131461018157806317557a9f146101c257806318a231a9146101eb5780632336b59114610216575b600080fd5b34801561014657600080fd5b50610161600480360381019061015c9190612975565b610551565b6040516101789b9a99989796959493929190612af5565b60405180910390f35b34801561018d57600080fd5b506101a860048036038101906101a39190612be8565b610812565b6040516101b9959493929190612c15565b60405180910390f35b3480156101ce57600080fd5b506101e960048036038101906101e49190612dc2565b610895565b005b3480156101f757600080fd5b50610200610c00565b60405161020d919061310b565b60405180910390f35b34801561022257600080fd5b5061023d6004803603810190610238919061312d565b6110ec565b60405161024a9190613180565b60405180910390f35b34801561025f57600080fd5b506102686111af565b60405161027591906131a2565b60405180910390f35b34801561028a57600080fd5b506102a560048036038101906102a09190612975565b6111fc565b6040516102b291906132d4565b60405180910390f35b3480156102c757600080fd5b506102d0611444565b6040516102dd9190613180565b60405180910390f35b3480156102f257600080fd5b506102fb6114d6565b60405161030891906132f6565b60405180910390f35b34801561031d57600080fd5b506103266114dc565b60405161033391906132d4565b60405180910390f35b34801561034857600080fd5b50610351611693565b60405161035e91906132f6565b60405180910390f35b34801561037357600080fd5b5061037c611699565b60405161038991906133c0565b60405180910390f35b34801561039e57600080fd5b506103a7611727565b6040516103b491906131a2565b60405180910390f35b3480156103c957600080fd5b506103d261177e565b6040516103df91906132f6565b60405180910390f35b3480156103f457600080fd5b5061040f600480360381019061040a9190612975565b611784565b60405161041c91906131a2565b60405180910390f35b34801561043157600080fd5b5061043a6117a4565b6040516104479190613180565b60405180910390f35b34801561045c57600080fd5b5061047760048036038101906104729190612be8565b611a80565b60405161048491906133e2565b60405180910390f35b34801561049957600080fd5b506104b460048036038101906104af9190613429565b611abf565b005b3480156104c257600080fd5b506104dd60048036038101906104d89190613578565b611dfa565b005b3480156104eb57600080fd5b506104f4612169565b6040516105019190613180565b60405180910390f35b610524600480360381019061051f91906135c1565b612351565b005b34801561053257600080fd5b5061053b6125b9565b60405161054891906133e2565b60405180910390f35b60026020528060005260406000206000915090508060000154908060010160009054906101000a900473ffffffffffffffffffffffffffffffffffffffff16908060020180546105a090613630565b80601f01602080910402602001604051908101604052809291908181526020018280546105cc90613630565b80156106195780601f106105ee57610100808354040283529160200191610619565b820191906000526020600020905b8154815290600101906020018083116105fc57829003601f168201915b50505050509080600301549080600401805461063490613630565b80601f016020809104026020016040519081016040528092919081815260200182805461066090613630565b80156106ad5780601f10610682576101008083540402835291602001916106ad565b820191906000526020600020905b81548152906001019060200180831161069057829003601f168201915b5050505050908060050160009054906101000a900460ff16908060060180546106d590613630565b80601f016020809104026020016040519081016040528092919081815260200182805461070190613630565b801561074e5780601f106107235761010080835404028352916020019161074e565b820191906000526020600020905b81548152906001019060200180831161073157829003601f168201915b50505050509080600701805461076390613630565b80601f016020809104026020016040519081016040528092919081815260200182805461078f90613630565b80156107dc5780601f106107b1576101008083540402835291602001916107dc565b820191906000526020600020905b8154815290600101906020018083116107bf57829003601f168201915b5050505050908060080160009054906101000a900460ff16908060080160019054906101000a900460ff1690806009015490508b565b600a6020528060005260406000206000915090508060000154908060010160009054906101000a900473ffffffffffffffffffffffffffffffffffffffff16908060020160009054906101000a900473ffffffffffffffffffffffffffffffffffffffff16908060030154908060040160009054906101000a900460ff16905085565b60008651116108d9576040517f08c379a00000000000000000000000000000000000000000000000000000000081526004016108d0906136ad565b60405180910390fd5b600360008154809291906108ec906136fc565b919050555060405180610160016040528060035481526020013373ffffffffffffffffffffffffffffffffffffffff16815260200187815260200186815260200185815260200184600281111561094657610945612a63565b5b81526020018381526020018281526020016000151581526020016001151581526020016000815250600260003373ffffffffffffffffffffffffffffffffffffffff1673ffffffffffffffffffffffffffffffffffffffff1681526020019081526020016000206000820151816000015560208201518160010160006101000a81548173ffffffffffffffffffffffffffffffffffffffff021916908373ffffffffffffffffffffffffffffffffffffffff1602179055506040820151816002019080519060200190610a1a92919061273d565b50606082015181600301556080820151816004019080519060200190610a4192919061273d565b5060a08201518160050160006101000a81548160ff02191690836002811115610a6d57610a6c612a63565b5b021790555060c0820151816006019080519060200190610a8e92919061273d565b5060e0820151816007019080519060200190610aab92919061273d565b506101008201518160080160006101000a81548160ff0219169083151502179055506101208201518160080160016101000a81548160ff02191690831515021790555061014082015181600901559050506005339080600181540180825580915050600190039060005260206000200160009091909190916101000a81548173ffffffffffffffffffffffffffffffffffffffff021916908373ffffffffffffffffffffffffffffffffffffffff160217905550600682604051610b6f9190613780565b90815260200160405180910390206000815480929190610b8e906136fc565b9190505550600854600683604051610ba69190613780565b9081526020016040518091039020541115610bf857600682604051610bcb9190613780565b9081526020016040518091039020546008819055508160079080519060200190610bf692919061273d565b505b505050505050565b606060008054906101000a900473ffffffffffffffffffffffffffffffffffffffff1673ffffffffffffffffffffffffffffffffffffffff163373ffffffffffffffffffffffffffffffffffffffff1614610c90576040517f08c379a0000000000000000000000000000000000000000000000000000000008152600401610c8790613809565b60405180910390fd5b600060035467ffffffffffffffff811115610cae57610cad612c72565b5b604051908082528060200260200182016040528015610ce757816020015b610cd46127c3565b815260200190600190039081610ccc5790505b50905060005b6003548110156110e457600060058281548110610d0d57610d0c613829565b5b9060005260206000200160009054906101000a900473ffffffffffffffffffffffffffffffffffffffff169050600260008273ffffffffffffffffffffffffffffffffffffffff1673ffffffffffffffffffffffffffffffffffffffff16815260200190815260200160002060405180610160016040529081600082015481526020016001820160009054906101000a900473ffffffffffffffffffffffffffffffffffffffff1673ffffffffffffffffffffffffffffffffffffffff1673ffffffffffffffffffffffffffffffffffffffff168152602001600282018054610df590613630565b80601f0160208091040260200160405190810160405280929190818152602001828054610e2190613630565b8015610e6e5780601f10610e4357610100808354040283529160200191610e6e565b820191906000526020600020905b815481529060010190602001808311610e5157829003601f168201915b5050505050815260200160038201548152602001600482018054610e9190613630565b80601f0160208091040260200160405190810160405280929190818152602001828054610ebd90613630565b8015610f0a5780601f10610edf57610100808354040283529160200191610f0a565b820191906000526020600020905b815481529060010190602001808311610eed57829003601f168201915b505050505081526020016005820160009054906101000a900460ff166002811115610f3857610f37612a63565b5b6002811115610f4a57610f49612a63565b5b8152602001600682018054610f5e90613630565b80601f0160208091040260200160405190810160405280929190818152602001828054610f8a90613630565b8015610fd75780601f10610fac57610100808354040283529160200191610fd7565b820191906000526020600020905b815481529060010190602001808311610fba57829003601f168201915b50505050508152602001600782018054610ff090613630565b80601f016020809104026020016040519081016040528092919081815260200182805461101c90613630565b80156110695780601f1061103e57610100808354040283529160200191611069565b820191906000526020600020905b81548152906001019060200180831161104c57829003601f168201915b505050505081526020016008820160009054906101000a900460ff161515151581526020016008820160019054906101000a900460ff161515151581526020016009820154815250508383815181106110c5576110c4613829565b5b60200260200101819052505080806110dc906136fc565b915050610ced565b508091505090565b6060600082846110fc9190613887565b9050600085600a61110d91906139eb565b8487600a61111b91906139eb565b876111269190613a36565b6111309190613887565b61113a9190613a90565b9050600084858361114b9190613a90565b60026111579190613a36565b1015905080156111715760018261116e9190613ac1565b91505b61117a836125dd565b611183836125dd565b604051602001611194929190613b63565b60405160208183030381529060405293505050509392505050565b600080600260003373ffffffffffffffffffffffffffffffffffffffff1673ffffffffffffffffffffffffffffffffffffffff168152602001908152602001600020600001541415905090565b60606000600b60008473ffffffffffffffffffffffffffffffffffffffff1673ffffffffffffffffffffffffffffffffffffffff16815260200190815260200160002080548060200260200160405190810160405280929190818152602001828054801561128957602002820191906000526020600020905b815481526020019060010190808311611275575b505050505090506000815167ffffffffffffffff8111156112ad576112ac612c72565b5b6040519080825280602002602001820160405280156112e657816020015b6112d3612849565b8152602001906001900390816112cb5790505b50905060005b825181101561143957600a600084838151811061130c5761130b613829565b5b602002602001015181526020019081526020016000206040518060a0016040529081600082015481526020016001820160009054906101000a900473ffffffffffffffffffffffffffffffffffffffff1673ffffffffffffffffffffffffffffffffffffffff1673ffffffffffffffffffffffffffffffffffffffff1681526020016002820160009054906101000a900473ffffffffffffffffffffffffffffffffffffffff1673ffffffffffffffffffffffffffffffffffffffff1673ffffffffffffffffffffffffffffffffffffffff168152602001600382015481526020016004820160009054906101000a900460ff16151515158152505082828151811061141b5761141a613829565b5b60200260200101819052508080611431906136fc565b9150506112ec565b508092505050919050565b60606007805461145390613630565b80601f016020809104026020016040519081016040528092919081815260200182805461147f90613630565b80156114cc5780601f106114a1576101008083540402835291602001916114cc565b820191906000526020600020905b8154815290600101906020018083116114af57829003601f168201915b5050505050905090565b60045481565b6060600060016009546114ef9190613b92565b67ffffffffffffffff81111561150857611507612c72565b5b60405190808252806020026020018201604052801561154157816020015b61152e612849565b8152602001906001900390816115265790505b5090506000600190505b60095481101561168b57600a60008281526020019081526020016000206040518060a0016040529081600082015481526020016001820160009054906101000a900473ffffffffffffffffffffffffffffffffffffffff1673ffffffffffffffffffffffffffffffffffffffff1673ffffffffffffffffffffffffffffffffffffffff1681526020016002820160009054906101000a900473ffffffffffffffffffffffffffffffffffffffff1673ffffffffffffffffffffffffffffffffffffffff1673ffffffffffffffffffffffffffffffffffffffff168152602001600382015481526020016004820160009054906101000a900460ff1615151515815250508260018361165c9190613b92565b8151811061166d5761166c613829565b5b60200260200101819052508080611683906136fc565b91505061154b565b508091505090565b60095481565b6060600580548060200260200160405190810160405280929190818152602001828054801561171d57602002820191906000526020600020905b8160009054906101000a900473ffffffffffffffffffffffffffffffffffffffff1673ffffffffffffffffffffffffffffffffffffffff16815260200190600101908083116116d3575b5050505050905090565b60008060009054906101000a900473ffffffffffffffffffffffffffffffffffffffff1673ffffffffffffffffffffffffffffffffffffffff163373ffffffffffffffffffffffffffffffffffffffff1614905090565b60035481565b60016020528060005260406000206000915054906101000a900460ff1681565b606060006004541115611a44576000806000805b600580549050811015611a205760026000600583815481106117dd576117dc613829565b5b9060005260206000200160009054906101000a900473ffffffffffffffffffffffffffffffffffffffff1673ffffffffffffffffffffffffffffffffffffffff1673ffffffffffffffffffffffffffffffffffffffff16815260200190815260200160002060080160009054906101000a900460ff1680156118df57506000600260006005848154811061187457611873613829565b5b9060005260206000200160009054906101000a900473ffffffffffffffffffffffffffffffffffffffff1673ffffffffffffffffffffffffffffffffffffffff1673ffffffffffffffffffffffffffffffffffffffff16815260200190815260200160002060090154115b15611a0d578160026000600584815481106118fd576118fc613829565b5b9060005260206000200160009054906101000a900473ffffffffffffffffffffffffffffffffffffffff1673ffffffffffffffffffffffffffffffffffffffff1673ffffffffffffffffffffffffffffffffffffffff16815260200190815260200160002060090154146119fe576001846119789190613ac1565b9350600260006005838154811061199257611991613829565b5b9060005260206000200160009054906101000a900473ffffffffffffffffffffffffffffffffffffffff1673ffffffffffffffffffffffffffffffffffffffff1673ffffffffffffffffffffffffffffffffffffffff1681526020019081526020016000206009015491505b8280611a09906136fc565b9350505b8080611a18906136fc565b9150506117b8565b506000821115611a4057611a36600283856110ec565b9350505050611a7d565b5050505b6040518060400160405280600181526020017f300000000000000000000000000000000000000000000000000000000000000081525090505b90565b60058181548110611a9057600080fd5b906000526020600020016000915054906101000a900473ffffffffffffffffffffffffffffffffffffffff1681565b60008054906101000a900473ffffffffffffffffffffffffffffffffffffffff1673ffffffffffffffffffffffffffffffffffffffff163373ffffffffffffffffffffffffffffffffffffffff1614611b4d576040517f08c379a0000000000000000000000000000000000000000000000000000000008152600401611b4490613809565b60405180910390fd5b6000600260008c73ffffffffffffffffffffffffffffffffffffffff1673ffffffffffffffffffffffffffffffffffffffff1681526020019081526020016000206000015403611bd2576040517f08c379a0000000000000000000000000000000000000000000000000000000008152600401611bc990613c12565b60405180910390fd5b6000600260008c73ffffffffffffffffffffffffffffffffffffffff1673ffffffffffffffffffffffffffffffffffffffff168152602001908152602001600020905089816002019080519060200190611c2d92919061273d565b5088816003018190555087816004019080519060200190611c4f92919061273d565b50866002811115611c6357611c62612a63565b5b8160050160006101000a81548160ff02191690836002811115611c8957611c88612a63565b5b021790555085816006019080519060200190611ca692919061273d565b5084816007019080519060200190611cbf92919061273d565b50838160080160006101000a81548160ff021916908315150217905550828160080160016101000a81548160ff021916908315150217905550818160090181905550600082118015611d15575060011515841515145b15611ded5760046000815480929190611d2d906136fc565b91905055507f407fc563a89fd34ca24a71d737f97596d78a90d3a1e9c2a8bd37285b1a89e587611d5b6117a4565b604051611d689190613180565b60405180910390a17f954a212bdbbeea1018df1ac1e39d60a664fff76aa092fad23faed6237da3122a611d99612169565b604051611da69190613180565b60405180910390a17fd9f7619ad7d2d45abc2eefcfdb730f1e7c1755d2c4de695316c695e63752133a611dd7611444565b604051611de49190613180565b60405180910390a15b5050505050505050505050565b60008054906101000a900473ffffffffffffffffffffffffffffffffffffffff1673ffffffffffffffffffffffffffffffffffffffff163373ffffffffffffffffffffffffffffffffffffffff1614611e88576040517f08c379a0000000000000000000000000000000000000000000000000000000008152600401611e7f90613809565b60405180910390fd5b600081611e9490613c9b565b60601c9050600260008273ffffffffffffffffffffffffffffffffffffffff1673ffffffffffffffffffffffffffffffffffffffff1681526020019081526020016000206000808201600090556001820160006101000a81549073ffffffffffffffffffffffffffffffffffffffff0219169055600282016000611f1891906128a6565b6003820160009055600482016000611f3091906128a6565b6005820160006101000a81549060ff0219169055600682016000611f5491906128a6565b600782016000611f6491906128a6565b6008820160006101000a81549060ff02191690556008820160016101000a81549060ff02191690556009820160009055505060005b60058054905081101561214c578173ffffffffffffffffffffffffffffffffffffffff1660058281548110611fd157611fd0613829565b5b9060005260206000200160009054906101000a900473ffffffffffffffffffffffffffffffffffffffff1673ffffffffffffffffffffffffffffffffffffffff16036121395760008190505b600160058054905061202f9190613b92565b8110156120f05760056001836120459190613ac1565b8154811061205657612055613829565b5b9060005260206000200160009054906101000a900473ffffffffffffffffffffffffffffffffffffffff166005838154811061209557612094613829565b5b9060005260206000200160006101000a81548173ffffffffffffffffffffffffffffffffffffffff021916908373ffffffffffffffffffffffffffffffffffffffff16021790555080806120e8906136fc565b91505061201d565b50600580548061210357612102613d02565b5b6001900381819060005260206000200160006101000a81549073ffffffffffffffffffffffffffffffffffffffff021916905590555b8080612144906136fc565b915050611f99565b506003600081548092919061216090613d31565b91905055505050565b606060008060008060005b6005805490508110156122a2576000600260006005848154811061219b5761219a613829565b5b9060005260206000200160009054906101000a900473ffffffffffffffffffffffffffffffffffffffff1673ffffffffffffffffffffffffffffffffffffffff1673ffffffffffffffffffffffffffffffffffffffff168152602001908152602001600020600301549050600d81101561222257858061221a906136fc565b96505061228e565b600d81101580156122335750601481105b1561224b578480612243906136fc565b95505061228d565b6014811015801561225c5750603281105b1561227457838061226c906136fc565b94505061228c565b6032811061228b578280612287906136fc565b9350505b5b5b5b50808061229a906136fc565b915050612174565b506000600580549050905060006122c760026064886122c19190613a36565b846110ec565b905060006122e360026064886122dd9190613a36565b856110ec565b905060006122ff60026064886122f99190613a36565b866110ec565b9050600061231b60026064886123159190613a36565b876110ec565b9050838383836040516020016123349493929190613f22565b604051602081830303815290604052995050505050505050505090565b670de0b6b3a7640000341461239b576040517f08c379a000000000000000000000000000000000000000000000000000000000815260040161239290614004565b60405180910390fd5b6040518060a0016040528060095481526020013373ffffffffffffffffffffffffffffffffffffffff1681526020018373ffffffffffffffffffffffffffffffffffffffff16815260200182815260200160001515815250600a600060095481526020019081526020016000206000820151816000015560208201518160010160006101000a81548173ffffffffffffffffffffffffffffffffffffffff021916908373ffffffffffffffffffffffffffffffffffffffff16021790555060408201518160020160006101000a81548173ffffffffffffffffffffffffffffffffffffffff021916908373ffffffffffffffffffffffffffffffffffffffff1602179055506060820151816003015560808201518160040160006101000a81548160ff021916908315150217905550905050600b60008373ffffffffffffffffffffffffffffffffffffffff1673ffffffffffffffffffffffffffffffffffffffff16815260200190815260200160002060095490806001815401808255809150506001900390600052602060002001600090919091909150558173ffffffffffffffffffffffffffffffffffffffff163373ffffffffffffffffffffffffffffffffffffffff166009547facb872fcf123b50205564145b9e085c652fa06f3d23ae78b288f5aa8cfaaccc38460405161259591906132f6565b60405180910390a4600960008154809291906125b0906136fc565b91905055505050565b60008054906101000a900473ffffffffffffffffffffffffffffffffffffffff1681565b606060008203612624576040518060400160405280600181526020017f30000000000000000000000000000000000000000000000000000000000000008152509050612738565b600082905060005b6000821461265657808061263f906136fc565b915050600a8261264f9190613887565b915061262c565b60008167ffffffffffffffff81111561267257612671612c72565b5b6040519080825280601f01601f1916602001820160405280156126a45781602001600182028036833780820191505090505b5090505b60008514612731576001826126bd9190613b92565b9150600a856126cc9190613a90565b60306126d89190613ac1565b60f81b8183815181106126ee576126ed613829565b5b60200101907effffffffffffffffffffffffffffffffffffffffffffffffffffffffffffff1916908160001a905350600a8561272a9190613887565b94506126a8565b8093505050505b919050565b82805461274990613630565b90600052602060002090601f01602090048101928261276b57600085556127b2565b82601f1061278457805160ff19168380011785556127b2565b828001600101855582156127b2579182015b828111156127b1578251825591602001919060010190612796565b5b5090506127bf91906128e6565b5090565b60405180610160016040528060008152602001600073ffffffffffffffffffffffffffffffffffffffff1681526020016060815260200160008152602001606081526020016000600281111561281c5761281b612a63565b5b81526020016060815260200160608152602001600015158152602001600015158152602001600081525090565b6040518060a0016040528060008152602001600073ffffffffffffffffffffffffffffffffffffffff168152602001600073ffffffffffffffffffffffffffffffffffffffff168152602001600081526020016000151581525090565b5080546128b290613630565b6000825580601f106128c457506128e3565b601f0160209004906000526020600020908101906128e291906128e6565b5b50565b5b808211156128ff5760008160009055506001016128e7565b5090565b6000604051905090565b600080fd5b600080fd5b600073ffffffffffffffffffffffffffffffffffffffff82169050919050565b600061294282612917565b9050919050565b61295281612937565b811461295d57600080fd5b50565b60008135905061296f81612949565b92915050565b60006020828403121561298b5761298a61290d565b5b600061299984828501612960565b91505092915050565b6000819050919050565b6129b5816129a2565b82525050565b6129c481612937565b82525050565b600081519050919050565b600082825260208201905092915050565b60005b83811015612a045780820151818401526020810190506129e9565b83811115612a13576000848401525b50505050565b6000601f19601f8301169050919050565b6000612a35826129ca565b612a3f81856129d5565b9350612a4f8185602086016129e6565b612a5881612a19565b840191505092915050565b7f4e487b7100000000000000000000000000000000000000000000000000000000600052602160045260246000fd5b60038110612aa357612aa2612a63565b5b50565b6000819050612ab482612a92565b919050565b6000612ac482612aa6565b9050919050565b612ad481612ab9565b82525050565b60008115159050919050565b612aef81612ada565b82525050565b600061016082019050612b0b600083018e6129ac565b612b18602083018d6129bb565b8181036040830152612b2a818c612a2a565b9050612b39606083018b6129ac565b8181036080830152612b4b818a612a2a565b9050612b5a60a0830189612acb565b81810360c0830152612b6c8188612a2a565b905081810360e0830152612b808187612a2a565b9050612b90610100830186612ae6565b612b9e610120830185612ae6565b612bac6101408301846129ac565b9c9b505050505050505050505050565b612bc5816129a2565b8114612bd057600080fd5b50565b600081359050612be281612bbc565b92915050565b600060208284031215612bfe57612bfd61290d565b5b6000612c0c84828501612bd3565b91505092915050565b600060a082019050612c2a60008301886129ac565b612c3760208301876129bb565b612c4460408301866129bb565b612c5160608301856129ac565b612c5e6080830184612ae6565b9695505050505050565b600080fd5b600080fd5b7f4e487b7100000000000000000000000000000000000000000000000000000000600052604160045260246000fd5b612caa82612a19565b810181811067ffffffffffffffff82111715612cc957612cc8612c72565b5b80604052505050565b6000612cdc612903565b9050612ce88282612ca1565b919050565b600067ffffffffffffffff821115612d0857612d07612c72565b5b612d1182612a19565b9050602081019050919050565b82818337600083830152505050565b6000612d40612d3b84612ced565b612cd2565b905082815260208101848484011115612d5c57612d5b612c6d565b5b612d67848285612d1e565b509392505050565b600082601f830112612d8457612d83612c68565b5b8135612d94848260208601612d2d565b91505092915050565b60038110612daa57600080fd5b50565b600081359050612dbc81612d9d565b92915050565b60008060008060008060c08789031215612ddf57612dde61290d565b5b600087013567ffffffffffffffff811115612dfd57612dfc612912565b5b612e0989828a01612d6f565b9650506020612e1a89828a01612bd3565b955050604087013567ffffffffffffffff811115612e3b57612e3a612912565b5b612e4789828a01612d6f565b9450506060612e5889828a01612dad565b935050608087013567ffffffffffffffff811115612e7957612e78612912565b5b612e8589828a01612d6f565b92505060a087013567ffffffffffffffff811115612ea657612ea5612912565b5b612eb289828a01612d6f565b9150509295509295509295565b600081519050919050565b600082825260208201905092915050565b6000819050602082019050919050565b612ef4816129a2565b82525050565b612f0381612937565b82525050565b600082825260208201905092915050565b6000612f25826129ca565b612f2f8185612f09565b9350612f3f8185602086016129e6565b612f4881612a19565b840191505092915050565b612f5c81612ab9565b82525050565b612f6b81612ada565b82525050565b600061016083016000830151612f8a6000860182612eeb565b506020830151612f9d6020860182612efa565b5060408301518482036040860152612fb58282612f1a565b9150506060830151612fca6060860182612eeb565b5060808301518482036080860152612fe28282612f1a565b91505060a0830151612ff760a0860182612f53565b5060c083015184820360c086015261300f8282612f1a565b91505060e083015184820360e08601526130298282612f1a565b915050610100830151613040610100860182612f62565b50610120830151613055610120860182612f62565b5061014083015161306a610140860182612eeb565b508091505092915050565b60006130818383612f71565b905092915050565b6000602082019050919050565b60006130a182612ebf565b6130ab8185612eca565b9350836020820285016130bd85612edb565b8060005b858110156130f957848403895281516130da8582613075565b94506130e583613089565b925060208a019950506001810190506130c1565b50829750879550505050505092915050565b600060208201905081810360008301526131258184613096565b905092915050565b6000806000606084860312156131465761314561290d565b5b600061315486828701612bd3565b935050602061316586828701612bd3565b925050604061317686828701612bd3565b9150509250925092565b6000602082019050818103600083015261319a8184612a2a565b905092915050565b60006020820190506131b76000830184612ae6565b92915050565b600081519050919050565b600082825260208201905092915050565b6000819050602082019050919050565b60a0820160008201516131ff6000850182612eeb565b5060208201516132126020850182612efa565b5060408201516132256040850182612efa565b5060608201516132386060850182612eeb565b50608082015161324b6080850182612f62565b50505050565b600061325d83836131e9565b60a08301905092915050565b6000602082019050919050565b6000613281826131bd565b61328b81856131c8565b9350613296836131d9565b8060005b838110156132c75781516132ae8882613251565b97506132b983613269565b92505060018101905061329a565b5085935050505092915050565b600060208201905081810360008301526132ee8184613276565b905092915050565b600060208201905061330b60008301846129ac565b92915050565b600081519050919050565b600082825260208201905092915050565b6000819050602082019050919050565b60006133498383612efa565b60208301905092915050565b6000602082019050919050565b600061336d82613311565b613377818561331c565b93506133828361332d565b8060005b838110156133b357815161339a888261333d565b97506133a583613355565b925050600181019050613386565b5085935050505092915050565b600060208201905081810360008301526133da8184613362565b905092915050565b60006020820190506133f760008301846129bb565b92915050565b61340681612ada565b811461341157600080fd5b50565b600081359050613423816133fd565b92915050565b6000806000806000806000806000806101408b8d03121561344d5761344c61290d565b5b600061345b8d828e01612960565b9a505060208b013567ffffffffffffffff81111561347c5761347b612912565b5b6134888d828e01612d6f565b99505060406134998d828e01612bd3565b98505060608b013567ffffffffffffffff8111156134ba576134b9612912565b5b6134c68d828e01612d6f565b97505060806134d78d828e01612bd3565b96505060a08b013567ffffffffffffffff8111156134f8576134f7612912565b5b6135048d828e01612d6f565b95505060c08b013567ffffffffffffffff81111561352557613524612912565b5b6135318d828e01612d6f565b94505060e06135428d828e01613414565b9350506101006135548d828e01613414565b9250506101206135668d828e01612bd3565b9150509295989b9194979a5092959850565b60006020828403121561358e5761358d61290d565b5b600082013567ffffffffffffffff8111156135ac576135ab612912565b5b6135b884828501612d6f565b91505092915050565b600080604083850312156135d8576135d761290d565b5b60006135e685828601612960565b92505060206135f785828601612bd3565b9150509250929050565b7f4e487b7100000000000000000000000000000000000000000000000000000000600052602260045260246000fd5b6000600282049050600182168061364857607f821691505b60208210810361365b5761365a613601565b5b50919050565b7f4e616d65206d757374206e6f7420626520656d70747900000000000000000000600082015250565b60006136976016836129d5565b91506136a282613661565b602082019050919050565b600060208201905081810360008301526136c68161368a565b9050919050565b7f4e487b7100000000000000000000000000000000000000000000000000000000600052601160045260246000fd5b6000613707826129a2565b91507fffffffffffffffffffffffffffffffffffffffffffffffffffffffffffffffff8203613739576137386136cd565b5b600182019050919050565b600081905092915050565b600061375a826129ca565b6137648185613744565b93506137748185602086016129e6565b80840191505092915050565b600061378c828461374f565b915081905092915050565b7f4f6e6c792061646d696e2063616e20706572666f726d2074686973206163746960008201527f6f6e000000000000000000000000000000000000000000000000000000000000602082015250565b60006137f36022836129d5565b91506137fe82613797565b604082019050919050565b60006020820190508181036000830152613822816137e6565b9050919050565b7f4e487b7100000000000000000000000000000000000000000000000000000000600052603260045260246000fd5b7f4e487b7100000000000000000000000000000000000000000000000000000000600052601260045260246000fd5b6000613892826129a2565b915061389d836129a2565b9250826138ad576138ac613858565b5b828204905092915050565b60008160011c9050919050565b6000808291508390505b600185111561390f578086048111156138eb576138ea6136cd565b5b60018516156138fa5780820291505b8081029050613908856138b8565b94506138cf565b94509492505050565b60008261392857600190506139e4565b8161393657600090506139e4565b816001811461394c576002811461395657613985565b60019150506139e4565b60ff841115613968576139676136cd565b5b8360020a91508482111561397f5761397e6136cd565b5b506139e4565b5060208310610133831016604e8410600b84101617156139ba5782820a9050838111156139b5576139b46136cd565b5b6139e4565b6139c784848460016138c5565b925090508184048111156139de576139dd6136cd565b5b81810290505b9392505050565b60006139f6826129a2565b9150613a01836129a2565b9250613a2e7fffffffffffffffffffffffffffffffffffffffffffffffffffffffffffffffff8484613918565b905092915050565b6000613a41826129a2565b9150613a4c836129a2565b9250817fffffffffffffffffffffffffffffffffffffffffffffffffffffffffffffffff0483118215151615613a8557613a846136cd565b5b828202905092915050565b6000613a9b826129a2565b9150613aa6836129a2565b925082613ab657613ab5613858565b5b828206905092915050565b6000613acc826129a2565b9150613ad7836129a2565b9250827fffffffffffffffffffffffffffffffffffffffffffffffffffffffffffffffff03821115613b0c57613b0b6136cd565b5b828201905092915050565b7f2e00000000000000000000000000000000000000000000000000000000000000600082015250565b6000613b4d600183613744565b9150613b5882613b17565b600182019050919050565b6000613b6f828561374f565b9150613b7a82613b40565b9150613b86828461374f565b91508190509392505050565b6000613b9d826129a2565b9150613ba8836129a2565b925082821015613bbb57613bba6136cd565b5b828203905092915050565b7f50617469656e74206e6f7420666f756e64000000000000000000000000000000600082015250565b6000613bfc6011836129d5565b9150613c0782613bc6565b602082019050919050565b60006020820190508181036000830152613c2b81613bef565b9050919050565b600081519050919050565b6000819050602082019050919050565b60007fffffffffffffffffffffffffffffffffffffffff00000000000000000000000082169050919050565b6000613c858251613c4d565b80915050919050565b600082821b905092915050565b6000613ca682613c32565b82613cb084613c3d565b9050613cbb81613c79565b92506014821015613cfb57613cf67fffffffffffffffffffffffffffffffffffffffff00000000000000000000000083601403600802613c8e565b831692505b5050919050565b7f4e487b7100000000000000000000000000000000000000000000000000000000600052603160045260246000fd5b6000613d3c826129a2565b915060008203613d4f57613d4e6136cd565b5b600182039050919050565b7f4368696c6472656e3a2000000000000000000000000000000000000000000000600082015250565b6000613d90600a83613744565b9150613d9b82613d5a565b600a82019050919050565b7f20252c2000000000000000000000000000000000000000000000000000000000600082015250565b6000613ddc600483613744565b9150613de782613da6565b600482019050919050565b7f5465656e61676572733a20000000000000000000000000000000000000000000600082015250565b6000613e28600b83613744565b9150613e3382613df2565b600b82019050919050565b7f596f756e673a2000000000000000000000000000000000000000000000000000600082015250565b6000613e74600783613744565b9150613e7f82613e3e565b600782019050919050565b7f456c6465723a2000000000000000000000000000000000000000000000000000600082015250565b6000613ec0600783613744565b9150613ecb82613e8a565b600782019050919050565b7f2025000000000000000000000000000000000000000000000000000000000000600082015250565b6000613f0c600283613744565b9150613f1782613ed6565b600282019050919050565b6000613f2d82613d83565b9150613f39828761374f565b9150613f4482613dcf565b9150613f4f82613e1b565b9150613f5b828661374f565b9150613f6682613dcf565b9150613f7182613e67565b9150613f7d828561374f565b9150613f8882613dcf565b9150613f9382613eb3565b9150613f9f828461374f565b9150613faa82613eff565b915081905095945050505050565b7f426f6f6b696e672072657175697265732065786163746c792031204554480000600082015250565b6000613fee601e836129d5565b9150613ff982613fb8565b602082019050919050565b6000602082019050818103600083015261401d81613fe1565b905091905056fea2646970667358221220cb5d6f9b69fba4833dffaaa574b0e12d5e5dd9fb92bc89e92e04d44c5262257b64736f6c634300080d0033",
  "immutableReferences": {},
  "source": "// SPDX-License-Identifier: MIT\npragma solidity >=0.4.22 <0.9.0;\n\ncontract PatientManagement {\n    enum VaccineStatus { NotVaccinated, OneDose, TwoDose }\n\n    event AverageDeathRateChanged(string newAverageDeathRate);\n    event AgePercentagesChanged(string newAgePercentages);\n    event DistrictWithMostPatientsChanged(string newDistrictWithMostPatients);\n\n    struct Patient {\n        uint id;\n        address patientAddress;\n        string name;\n        uint age;\n        string gender;\n        VaccineStatus vaccineStatus;\n        string district;\n        string symptomsDetails;\n        bool isDead;\n        bool hasInfo;\n        uint deathDate;\n    }\n\n    address public admin;\n    mapping(address => bool) public doctors; // Added mapping to track doctors\n    mapping(address => Patient) public patients;\n    uint public patientCount;\n    uint public deathCount;\n    address[] public patientAddresses;\n    mapping(string => uint) districtCounts;\n    string mostPatientsDistrict;\n    uint mostPatientsCount;\n\n    modifier onlyAdmin() {\n        require(msg.sender == admin, \"Only admin can perform this action\");\n        _;\n    }\n\n    constructor(address[] memory initialDoctors) {\n        admin = msg.sender; // The first account of Ganache becomes the admin\n        for (uint i = 0; i < initialDoctors.length; i++) {\n            doctors[initialDoctors[i]] = true;\n        }\n        nextAppointmentId = 1;\n    }\n\n    function adminSignin() public view returns (bool) {\n        return msg.sender == admin;\n    }\n\n    function patientSignin() public view returns (bool) {\n        return patients[msg.sender].id != 0;\n    }\n\n    function addPatient(\n        string memory _name,\n        uint _age,\n        string memory _gender,\n        VaccineStatus _vaccineStatus,\n        string memory _district,\n        string memory _symptomsDetails\n    ) public {\n        require(bytes(_name).length > 0, \"Name must not be empty\");\n        patientCount++;\n        patients[msg.sender] = Patient({\n            id: patientCount,\n            patientAddress: msg.sender,\n            name: _name,\n            age: _age,\n            gender: _gender,\n            vaccineStatus: _vaccineStatus,\n            district: _district,\n            symptomsDetails: _symptomsDetails,\n            isDead: false,\n            hasInfo: true,\n            deathDate: 0\n        });\n\n        patientAddresses.push(msg.sender);\n        districtCounts[_district]++;\n        if (districtCounts[_district] > mostPatientsCount) {\n            mostPatientsCount = districtCounts[_district];\n            mostPatientsDistrict = _district;\n        }\n    }\n\n    function updatePatient(\n        address _patientAddress,\n        string memory _name,\n        uint _age,\n        string memory _gender,\n        uint _vaccineStatus,\n        string memory _district,\n        string memory _symptomsDetails,\n        bool _isDead,\n        bool _hasInfo,\n        uint _deathDate\n    ) public onlyAdmin {\n        require(patients[_patientAddress].id != 0, \"Patient not found\");\n        Patient storage patient = patients[_patientAddress];\n        patient.name = _name;\n        patient.age = _age;\n        patient.gender = _gender;\n        patient.vaccineStatus = VaccineStatus(_vaccineStatus);\n        patient.district = _district;\n        patient.symptomsDetails = _symptomsDetails;\n        patient.isDead = _isDead;\n        patient.hasInfo = _hasInfo;\n        patient.deathDate = _deathDate;\n\n        if (_deathDate > 0 && _isDead == true) {\n            deathCount++;\n            emit AverageDeathRateChanged(averageDeathRate());\n            emit AgePercentagesChanged(agePercentages());\n            emit DistrictWithMostPatientsChanged(getDistrictWithMostPatients());\n        }\n    }\n\n    function deletePatient(string memory _patientAddressString) public onlyAdmin {\n        address patientAddress = address(bytes20(bytes(_patientAddressString)));\n        delete patients[patientAddress];\n        for (uint i = 0; i < patientAddresses.length; i++) {\n            if (patientAddresses[i] == patientAddress) {\n                for (uint j = i; j < patientAddresses.length - 1; j++) {\n                    patientAddresses[i] = patientAddresses[i + 1];\n                }\n                patientAddresses.pop();\n            }\n        }\n        patientCount--;\n    }\n\n    function getAllPatientAddresses() public view returns (address[] memory) {\n        return patientAddresses;\n    }\n\n    function getAllPatients() public view onlyAdmin returns (Patient[] memory) {\n        Patient[] memory allPatients = new Patient[](patientCount);\n        for (uint i = 0; i < patientCount; i++) {\n            address patientAddress = patientAddresses[i];\n            allPatients[i] = patients[patientAddress];\n        }\n        return allPatients;\n    }\n\n    function averageDeathRate() public view returns (string memory) {\n        if (deathCount > 0) {\n            uint totalDays = 0;\n            uint totalDeaths = 0;\n            uint currentDay = 0;\n\n            for (uint i = 0; i < patientAddresses.length; i++) {\n                if (patients[patientAddresses[i]].isDead && patients[patientAddresses[i]].deathDate > 0) {\n                    if (patients[patientAddresses[i]].deathDate != currentDay) {\n                        totalDays += 1;\n                        currentDay = patients[patientAddresses[i]].deathDate;\n                    }\n                    totalDeaths++;\n                }\n            }\n\n            if (totalDeaths > 0) {\n                return division(2, totalDeaths, totalDays);\n            }\n        }\n        return '0';\n    }\n\n    function getDistrictWithMostPatients() public view returns (string memory) {\n        return mostPatientsDistrict;\n    }\n\n    function division(uint256 decimalPlaces, uint256 numerator, uint256 denominator) public pure returns(string memory) {\n    uint quotient = numerator / denominator;\n    uint remainder = (numerator * (10**decimalPlaces)) / denominator % (10**decimalPlaces);\n    bool rounding = 2 * (remainder % denominator) >= denominator;\n    if (rounding) {\n        remainder += 1;\n    }\n    return string(abi.encodePacked(toString(quotient), '.', toString(remainder)));\n}\n\nfunction toString(uint256 value) internal pure returns (string memory) {\n    if (value == 0) {\n        return \"0\";\n    }\n    uint256 temp = value;\n    uint256 digits;\n    while (temp != 0) {\n        digits++;\n        temp /= 10;\n    }\n    bytes memory buffer = new bytes(digits);\n    while (value != 0) {\n        digits -= 1;\n        buffer[digits] = bytes1(uint8(48 + value % 10));\n        value /= 10;\n    }\n    return string(buffer);\n}\n\n    function agePercentages() public view returns (string memory) {\n        uint childrenCount = 0;\n        uint teenagersCount = 0;\n        uint youngCount = 0;\n        uint elderCount = 0;\n\n        for (uint i = 0; i < patientAddresses.length; i++) {\n            uint age = patients[patientAddresses[i]].age;\n            if (age < 13) {\n                childrenCount++;\n            } else if (age >= 13 && age < 20) {\n                teenagersCount++;\n            } else if (age >= 20 && age < 50) {\n                youngCount++;\n            } else if (age >= 50) {\n                elderCount++;\n            }\n        }\n\n        uint totalCount = patientAddresses.length;\n        string memory childrenPercentage = division(2, childrenCount * 100, totalCount);\n        string memory teenagersPercentage = division(2, teenagersCount * 100, totalCount);\n        string memory youngPercentage = division(2, youngCount * 100, totalCount);\n        string memory elderPercentage = division(2, elderCount * 100, totalCount);\n        return string(abi.encodePacked(\n            \"Children: \", childrenPercentage, \" %, \",\n            \"Teenagers: \", teenagersPercentage, \" %, \",\n            \"Young: \", youngPercentage, \" %, \",\n            \"Elder: \", elderPercentage, \" %\"\n        ));\n    }\n\nstruct Appointment {\n        uint256 id;\n        address patient;\n        address doctor;  // In this context, doctor refers to an admin.\n        uint256 dateTime;\n        bool confirmed;\n    }\n\n    uint256 public nextAppointmentId;\n    mapping(uint256 => Appointment) public appointments;\n    mapping(address => uint256[]) private doctorAppointments;\n\n    event AppointmentBooked(uint256 indexed id, address indexed patient, address indexed doctor, uint256 dateTime);\n\n\n\n    function bookAppointment(address doctor, uint256 dateTime) external payable {\n        require(msg.value == 1 ether, \"Booking requires exactly 1 ETH\");\n        appointments[nextAppointmentId] = Appointment(nextAppointmentId, msg.sender, doctor, dateTime, false);\n        doctorAppointments[doctor].push(nextAppointmentId);\n        emit AppointmentBooked(nextAppointmentId, msg.sender, doctor, dateTime);\n        nextAppointmentId++;\n    }\n\n    function getAppointmentsByDoctor(address doctor) public view returns (Appointment[] memory) {\n    uint256[] memory doctorAppointmentsIndexes = doctorAppointments[doctor];\n    Appointment[] memory results = new Appointment[](doctorAppointmentsIndexes.length);\n    for (uint i = 0; i < doctorAppointmentsIndexes.length; i++) {\n        results[i] = appointments[doctorAppointmentsIndexes[i]];\n    }\n    return results;\n}\n\n\n    function getAllAppointments() external view returns (Appointment[] memory) {\n        Appointment[] memory allAppointments = new Appointment[](nextAppointmentId - 1);\n        for (uint256 i = 1; i < nextAppointmentId; i++) {\n            allAppointments[i - 1] = appointments[i];\n        }\n        return allAppointments;\n    }\n}\n",
  "sourcePath": "/home/lycanthrope/Github/SolidityProject/contracts/PatientManagement.sol",
  "compiler": {
    "name": "solc",
    "version": "0.8.13+commit.abaa5c0e.Emscripten.clang"
  },
  "schemaVersion": "3.4.16",
  "updatedAt": "2024-12-30T14:15:38.316Z",
  "networkType": "ethereum",
  "devdoc": {
    "kind": "dev",
    "methods": {},
    "version": 1
  },
  "userdoc": {
    "kind": "user",
    "methods": {},
    "version": 1
  }
}