{
  "contractName": "PatientManagement",
  "abi": [
    {
      "inputs": [
        {
          "internalType": "address[]",
          "name": "initialDoctors",
          "type": "address[]"
        }
      ],
      "stateMutability": "nonpayable",
      "type": "constructor"
    },
    {
      "anonymous": false,
      "inputs": [
        {
          "indexed": false,
          "internalType": "string",
          "name": "newAgePercentages",
          "type": "string"
        }
      ],
      "name": "AgePercentagesChanged",
      "type": "event"
    },
    {
      "anonymous": false,
      "inputs": [
        {
          "indexed": true,
          "internalType": "uint256",
          "name": "id",
          "type": "uint256"
        },
        {
          "indexed": true,
          "internalType": "address",
          "name": "patient",
          "type": "address"
        },
        {
          "indexed": true,
          "internalType": "address",
          "name": "doctor",
          "type": "address"
        },
        {
          "indexed": false,
          "internalType": "uint256",
          "name": "dateTime",
          "type": "uint256"
        }
      ],
      "name": "AppointmentBooked",
      "type": "event"
    },
    {
      "anonymous": false,
      "inputs": [
        {
          "indexed": false,
          "internalType": "string",
          "name": "newAverageDeathRate",
          "type": "string"
        }
      ],
      "name": "AverageDeathRateChanged",
      "type": "event"
    },
    {
      "anonymous": false,
      "inputs": [
        {
          "indexed": false,
          "internalType": "string",
          "name": "newDistrictWithMostPatients",
          "type": "string"
        }
      ],
      "name": "DistrictWithMostPatientsChanged",
      "type": "event"
    },
    {
      "anonymous": false,
      "inputs": [
        {
          "indexed": false,
          "internalType": "uint256",
          "name": "medianAge",
          "type": "uint256"
        }
      ],
      "name": "MedianAgeUpdated",
      "type": "event"
    },
    {
      "inputs": [],
      "name": "admin",
      "outputs": [
        {
          "internalType": "address",
          "name": "",
          "type": "address"
        }
      ],
      "stateMutability": "view",
      "type": "function",
      "constant": true
    },
    {
      "inputs": [
        {
          "internalType": "uint256",
          "name": "",
          "type": "uint256"
        }
      ],
      "name": "appointments",
      "outputs": [
        {
          "internalType": "uint256",
          "name": "id",
          "type": "uint256"
        },
        {
          "internalType": "address",
          "name": "patient",
          "type": "address"
        },
        {
          "internalType": "address",
          "name": "doctor",
          "type": "address"
        },
        {
          "internalType": "uint256",
          "name": "dateTime",
          "type": "uint256"
        },
        {
          "internalType": "bool",
          "name": "confirmed",
          "type": "bool"
        }
      ],
      "stateMutability": "view",
      "type": "function",
      "constant": true
    },
    {
      "inputs": [],
      "name": "deathCount",
      "outputs": [
        {
          "internalType": "uint256",
          "name": "",
          "type": "uint256"
        }
      ],
      "stateMutability": "view",
      "type": "function",
      "constant": true
    },
    {
      "inputs": [
        {
          "internalType": "address",
          "name": "",
          "type": "address"
        }
      ],
      "name": "doctors",
      "outputs": [
        {
          "internalType": "bool",
          "name": "",
          "type": "bool"
        }
      ],
      "stateMutability": "view",
      "type": "function",
      "constant": true
    },
    {
      "inputs": [],
      "name": "nextAppointmentId",
      "outputs": [
        {
          "internalType": "uint256",
          "name": "",
          "type": "uint256"
        }
      ],
      "stateMutability": "view",
      "type": "function",
      "constant": true
    },
    {
      "inputs": [
        {
          "internalType": "uint256",
          "name": "",
          "type": "uint256"
        }
      ],
      "name": "patientAddresses",
      "outputs": [
        {
          "internalType": "address",
          "name": "",
          "type": "address"
        }
      ],
      "stateMutability": "view",
      "type": "function",
      "constant": true
    },
    {
      "inputs": [],
      "name": "patientCount",
      "outputs": [
        {
          "internalType": "uint256",
          "name": "",
          "type": "uint256"
        }
      ],
      "stateMutability": "view",
      "type": "function",
      "constant": true
    },
    {
      "inputs": [
        {
          "internalType": "address",
          "name": "",
          "type": "address"
        }
      ],
      "name": "patients",
      "outputs": [
        {
          "internalType": "uint256",
          "name": "id",
          "type": "uint256"
        },
        {
          "internalType": "address",
          "name": "patientAddress",
          "type": "address"
        },
        {
          "internalType": "string",
          "name": "name",
          "type": "string"
        },
        {
          "internalType": "uint256",
          "name": "age",
          "type": "uint256"
        },
        {
          "internalType": "string",
          "name": "gender",
          "type": "string"
        },
        {
          "internalType": "enum PatientManagement.VaccineStatus",
          "name": "vaccineStatus",
          "type": "uint8"
        },
        {
          "internalType": "string",
          "name": "district",
          "type": "string"
        },
        {
          "internalType": "string",
          "name": "symptomsDetails",
          "type": "string"
        },
        {
          "internalType": "bool",
          "name": "isDead",
          "type": "bool"
        },
        {
          "internalType": "bool",
          "name": "hasInfo",
          "type": "bool"
        },
        {
          "internalType": "uint256",
          "name": "deathDate",
          "type": "uint256"
        }
      ],
      "stateMutability": "view",
      "type": "function",
      "constant": true
    },
    {
      "inputs": [],
      "name": "adminSignin",
      "outputs": [
        {
          "internalType": "bool",
          "name": "",
          "type": "bool"
        }
      ],
      "stateMutability": "view",
      "type": "function",
      "constant": true
    },
    {
      "inputs": [],
      "name": "patientSignin",
      "outputs": [
        {
          "internalType": "bool",
          "name": "",
          "type": "bool"
        }
      ],
      "stateMutability": "view",
      "type": "function",
      "constant": true
    },
    {
      "inputs": [
        {
          "internalType": "string",
          "name": "_name",
          "type": "string"
        },
        {
          "internalType": "uint256",
          "name": "_age",
          "type": "uint256"
        },
        {
          "internalType": "string",
          "name": "_gender",
          "type": "string"
        },
        {
          "internalType": "enum PatientManagement.VaccineStatus",
          "name": "_vaccineStatus",
          "type": "uint8"
        },
        {
          "internalType": "string",
          "name": "_district",
          "type": "string"
        },
        {
          "internalType": "string",
          "name": "_symptomsDetails",
          "type": "string"
        }
      ],
      "name": "addPatient",
      "outputs": [],
      "stateMutability": "nonpayable",
      "type": "function"
    },
    {
      "inputs": [
        {
          "internalType": "address",
          "name": "_patientAddress",
          "type": "address"
        },
        {
          "internalType": "string",
          "name": "_name",
          "type": "string"
        },
        {
          "internalType": "uint256",
          "name": "_age",
          "type": "uint256"
        },
        {
          "internalType": "string",
          "name": "_gender",
          "type": "string"
        },
        {
          "internalType": "enum PatientManagement.VaccineStatus",
          "name": "_vaccineStatus",
          "type": "uint8"
        },
        {
          "internalType": "string",
          "name": "_district",
          "type": "string"
        },
        {
          "internalType": "string",
          "name": "_symptomsDetails",
          "type": "string"
        },
        {
          "internalType": "bool",
          "name": "_isDead",
          "type": "bool"
        },
        {
          "internalType": "bool",
          "name": "_hasInfo",
          "type": "bool"
        },
        {
          "internalType": "uint256",
          "name": "_deathDate",
          "type": "uint256"
        }
      ],
      "name": "updatePatient",
      "outputs": [],
      "stateMutability": "nonpayable",
      "type": "function"
    },
    {
      "inputs": [
        {
          "internalType": "string",
          "name": "_patientAddressString",
          "type": "string"
        }
      ],
      "name": "deletePatient",
      "outputs": [],
      "stateMutability": "nonpayable",
      "type": "function"
    },
    {
      "inputs": [],
      "name": "getAllPatientAddresses",
      "outputs": [
        {
          "internalType": "address[]",
          "name": "",
          "type": "address[]"
        }
      ],
      "stateMutability": "view",
      "type": "function",
      "constant": true
    },
    {
      "inputs": [],
      "name": "getAllPatients",
      "outputs": [
        {
          "components": [
            {
              "internalType": "uint256",
              "name": "id",
              "type": "uint256"
            },
            {
              "internalType": "address",
              "name": "patientAddress",
              "type": "address"
            },
            {
              "internalType": "string",
              "name": "name",
              "type": "string"
            },
            {
              "internalType": "uint256",
              "name": "age",
              "type": "uint256"
            },
            {
              "internalType": "string",
              "name": "gender",
              "type": "string"
            },
            {
              "internalType": "enum PatientManagement.VaccineStatus",
              "name": "vaccineStatus",
              "type": "uint8"
            },
            {
              "internalType": "string",
              "name": "district",
              "type": "string"
            },
            {
              "internalType": "string",
              "name": "symptomsDetails",
              "type": "string"
            },
            {
              "internalType": "bool",
              "name": "isDead",
              "type": "bool"
            },
            {
              "internalType": "bool",
              "name": "hasInfo",
              "type": "bool"
            },
            {
              "internalType": "uint256",
              "name": "deathDate",
              "type": "uint256"
            }
          ],
          "internalType": "struct PatientManagement.Patient[]",
          "name": "",
          "type": "tuple[]"
        }
      ],
      "stateMutability": "view",
      "type": "function",
      "constant": true
    },
    {
      "inputs": [],
      "name": "averageDeathRate",
      "outputs": [
        {
          "internalType": "string",
          "name": "",
          "type": "string"
        }
      ],
      "stateMutability": "view",
      "type": "function",
      "constant": true
    },
    {
      "inputs": [],
      "name": "getDistrictWithMostPatients",
      "outputs": [
        {
          "internalType": "string",
          "name": "",
          "type": "string"
        }
      ],
      "stateMutability": "view",
      "type": "function",
      "constant": true
    },
    {
      "inputs": [
        {
          "internalType": "uint256",
          "name": "decimalPlaces",
          "type": "uint256"
        },
        {
          "internalType": "uint256",
          "name": "numerator",
          "type": "uint256"
        },
        {
          "internalType": "uint256",
          "name": "denominator",
          "type": "uint256"
        }
      ],
      "name": "division",
      "outputs": [
        {
          "internalType": "string",
          "name": "",
          "type": "string"
        }
      ],
      "stateMutability": "pure",
      "type": "function",
      "constant": true
    },
    {
      "inputs": [],
      "name": "agePercentages",
      "outputs": [
        {
          "internalType": "string",
          "name": "",
          "type": "string"
        }
      ],
      "stateMutability": "view",
      "type": "function",
      "constant": true
    },
    {
      "inputs": [
        {
          "internalType": "address",
          "name": "doctor",
          "type": "address"
        },
        {
          "internalType": "uint256",
          "name": "dateTime",
          "type": "uint256"
        }
      ],
      "name": "bookAppointment",
      "outputs": [],
      "stateMutability": "payable",
      "type": "function",
      "payable": true
    },
    {
      "inputs": [
        {
          "internalType": "address",
          "name": "doctor",
          "type": "address"
        }
      ],
      "name": "getAppointmentsByDoctor",
      "outputs": [
        {
          "internalType": "uint256[]",
          "name": "",
          "type": "uint256[]"
        },
        {
          "internalType": "address[]",
          "name": "",
          "type": "address[]"
        },
        {
          "internalType": "uint256[]",
          "name": "",
          "type": "uint256[]"
        }
      ],
      "stateMutability": "view",
      "type": "function",
      "constant": true
    },
    {
      "inputs": [],
      "name": "getMedianAge",
      "outputs": [
        {
          "internalType": "uint256",
          "name": "",
          "type": "uint256"
        }
      ],
      "stateMutability": "view",
      "type": "function",
      "constant": true
    }
  ],
  "bytecode": "0x60806040523480156200001157600080fd5b50604051620048733803806200487383398181016040528101906200003791906200030c565b336000806101000a81548173ffffffffffffffffffffffffffffffffffffffff021916908373ffffffffffffffffffffffffffffffffffffffff16021790555060005b81518110156200010e5760018060008484815181106200009f576200009e6200035d565b5b602002602001015173ffffffffffffffffffffffffffffffffffffffff1673ffffffffffffffffffffffffffffffffffffffff16815260200190815260200160002060006101000a81548160ff02191690831515021790555080806200010590620003c5565b9150506200007a565b5060016009819055505062000412565b6000604051905090565b600080fd5b600080fd5b600080fd5b6000601f19601f8301169050919050565b7f4e487b7100000000000000000000000000000000000000000000000000000000600052604160045260246000fd5b620001828262000137565b810181811067ffffffffffffffff82111715620001a457620001a362000148565b5b80604052505050565b6000620001b96200011e565b9050620001c7828262000177565b919050565b600067ffffffffffffffff821115620001ea57620001e962000148565b5b602082029050602081019050919050565b600080fd5b600073ffffffffffffffffffffffffffffffffffffffff82169050919050565b60006200022d8262000200565b9050919050565b6200023f8162000220565b81146200024b57600080fd5b50565b6000815190506200025f8162000234565b92915050565b60006200027c6200027684620001cc565b620001ad565b90508083825260208201905060208402830185811115620002a257620002a1620001fb565b5b835b81811015620002cf5780620002ba88826200024e565b845260208401935050602081019050620002a4565b5050509392505050565b600082601f830112620002f157620002f062000132565b5b81516200030384826020860162000265565b91505092915050565b60006020828403121562000325576200032462000128565b5b600082015167ffffffffffffffff8111156200034657620003456200012d565b5b6200035484828501620002d9565b91505092915050565b7f4e487b7100000000000000000000000000000000000000000000000000000000600052603260045260246000fd5b7f4e487b7100000000000000000000000000000000000000000000000000000000600052601160045260246000fd5b6000819050919050565b6000620003d282620003bb565b91507fffffffffffffffffffffffffffffffffffffffffffffffffffffffffffffffff82036200040757620004066200038c565b5b600182019050919050565b61445180620004226000396000f3fe6080604052600436106101355760003560e01c806392be3e65116100ab578063b40f16911161006f578063b40f169114610452578063c9076c9b1461048f578063dd89ed55146104b8578063e462068d146104e3578063eef289961461050c578063f851a4401461052857610135565b806392be3e6514610369578063968d807814610394578063a0303c41146103bf578063a9583c22146103ea578063b40621a41461042757610135565b80634143ea5a116100fd5780634143ea5a146102535780634c9d68811461027e5780635ea83bb0146102a95780636d19770d146102e857806375c5a1221461031357806389dcc4a21461033e57610135565b80630869cfbc1461013a57806312dc90131461018157806317557a9f146101c257806318a231a9146101eb5780632336b59114610216575b600080fd5b34801561014657600080fd5b50610161600480360381019061015c9190612d3e565b610553565b6040516101789b9a99989796959493929190612ebe565b60405180910390f35b34801561018d57600080fd5b506101a860048036038101906101a39190612fb1565b610814565b6040516101b9959493929190612fde565b60405180910390f35b3480156101ce57600080fd5b506101e960048036038101906101e4919061318b565b610897565b005b3480156101f757600080fd5b50610200610c02565b60405161020d91906134d4565b60405180910390f35b34801561022257600080fd5b5061023d600480360381019061023891906134f6565b6110ee565b60405161024a9190613549565b60405180910390f35b34801561025f57600080fd5b506102686111b1565b604051610275919061356b565b60405180910390f35b34801561028a57600080fd5b5061029361138b565b6040516102a09190613586565b60405180910390f35b3480156102b557600080fd5b506102d060048036038101906102cb9190612d3e565b6113d8565b6040516102df939291906136ff565b60405180910390f35b3480156102f457600080fd5b506102fd6117b4565b60405161030a9190613549565b60405180910390f35b34801561031f57600080fd5b50610328611846565b604051610335919061356b565b60405180910390f35b34801561034a57600080fd5b5061035361184c565b604051610360919061356b565b60405180910390f35b34801561037557600080fd5b5061037e611852565b60405161038b919061374b565b60405180910390f35b3480156103a057600080fd5b506103a96118e0565b6040516103b69190613586565b60405180910390f35b3480156103cb57600080fd5b506103d4611937565b6040516103e1919061356b565b60405180910390f35b3480156103f657600080fd5b50610411600480360381019061040c9190612d3e565b61193d565b60405161041e9190613586565b60405180910390f35b34801561043357600080fd5b5061043c61195d565b6040516104499190613549565b60405180910390f35b34801561045e57600080fd5b5061047960048036038101906104749190612fb1565b611c39565b604051610486919061376d565b60405180910390f35b34801561049b57600080fd5b506104b660048036038101906104b19190613788565b611c78565b005b3480156104c457600080fd5b506104cd611fe7565b6040516104da9190613549565b60405180910390f35b3480156104ef57600080fd5b5061050a600480360381019061050591906137fd565b6121cf565b005b6105266004803603810190610521919061394c565b612596565b005b34801561053457600080fd5b5061053d6127fe565b60405161054a919061376d565b60405180910390f35b60026020528060005260406000206000915090508060000154908060010160009054906101000a900473ffffffffffffffffffffffffffffffffffffffff16908060020180546105a2906139bb565b80601f01602080910402602001604051908101604052809291908181526020018280546105ce906139bb565b801561061b5780601f106105f05761010080835404028352916020019161061b565b820191906000526020600020905b8154815290600101906020018083116105fe57829003601f168201915b505050505090806003015490806004018054610636906139bb565b80601f0160208091040260200160405190810160405280929190818152602001828054610662906139bb565b80156106af5780601f10610684576101008083540402835291602001916106af565b820191906000526020600020905b81548152906001019060200180831161069257829003601f168201915b5050505050908060050160009054906101000a900460ff16908060060180546106d7906139bb565b80601f0160208091040260200160405190810160405280929190818152602001828054610703906139bb565b80156107505780601f1061072557610100808354040283529160200191610750565b820191906000526020600020905b81548152906001019060200180831161073357829003601f168201915b505050505090806007018054610765906139bb565b80601f0160208091040260200160405190810160405280929190818152602001828054610791906139bb565b80156107de5780601f106107b3576101008083540402835291602001916107de565b820191906000526020600020905b8154815290600101906020018083116107c157829003601f168201915b5050505050908060080160009054906101000a900460ff16908060080160019054906101000a900460ff1690806009015490508b565b600a6020528060005260406000206000915090508060000154908060010160009054906101000a900473ffffffffffffffffffffffffffffffffffffffff16908060020160009054906101000a900473ffffffffffffffffffffffffffffffffffffffff16908060030154908060040160009054906101000a900460ff16905085565b60008651116108db576040517f08c379a00000000000000000000000000000000000000000000000000000000081526004016108d290613a38565b60405180910390fd5b600360008154809291906108ee90613a87565b919050555060405180610160016040528060035481526020013373ffffffffffffffffffffffffffffffffffffffff16815260200187815260200186815260200185815260200184600281111561094857610947612e2c565b5b81526020018381526020018281526020016000151581526020016001151581526020016000815250600260003373ffffffffffffffffffffffffffffffffffffffff1673ffffffffffffffffffffffffffffffffffffffff1681526020019081526020016000206000820151816000015560208201518160010160006101000a81548173ffffffffffffffffffffffffffffffffffffffff021916908373ffffffffffffffffffffffffffffffffffffffff1602179055506040820151816002019080519060200190610a1c929190612b63565b50606082015181600301556080820151816004019080519060200190610a43929190612b63565b5060a08201518160050160006101000a81548160ff02191690836002811115610a6f57610a6e612e2c565b5b021790555060c0820151816006019080519060200190610a90929190612b63565b5060e0820151816007019080519060200190610aad929190612b63565b506101008201518160080160006101000a81548160ff0219169083151502179055506101208201518160080160016101000a81548160ff02191690831515021790555061014082015181600901559050506005339080600181540180825580915050600190039060005260206000200160009091909190916101000a81548173ffffffffffffffffffffffffffffffffffffffff021916908373ffffffffffffffffffffffffffffffffffffffff160217905550600682604051610b719190613b0b565b90815260200160405180910390206000815480929190610b9090613a87565b9190505550600854600683604051610ba89190613b0b565b9081526020016040518091039020541115610bfa57600682604051610bcd9190613b0b565b9081526020016040518091039020546008819055508160079080519060200190610bf8929190612b63565b505b505050505050565b606060008054906101000a900473ffffffffffffffffffffffffffffffffffffffff1673ffffffffffffffffffffffffffffffffffffffff163373ffffffffffffffffffffffffffffffffffffffff1614610c92576040517f08c379a0000000000000000000000000000000000000000000000000000000008152600401610c8990613b94565b60405180910390fd5b600060035467ffffffffffffffff811115610cb057610caf61303b565b5b604051908082528060200260200182016040528015610ce957816020015b610cd6612be9565b815260200190600190039081610cce5790505b50905060005b6003548110156110e657600060058281548110610d0f57610d0e613bb4565b5b9060005260206000200160009054906101000a900473ffffffffffffffffffffffffffffffffffffffff169050600260008273ffffffffffffffffffffffffffffffffffffffff1673ffffffffffffffffffffffffffffffffffffffff16815260200190815260200160002060405180610160016040529081600082015481526020016001820160009054906101000a900473ffffffffffffffffffffffffffffffffffffffff1673ffffffffffffffffffffffffffffffffffffffff1673ffffffffffffffffffffffffffffffffffffffff168152602001600282018054610df7906139bb565b80601f0160208091040260200160405190810160405280929190818152602001828054610e23906139bb565b8015610e705780601f10610e4557610100808354040283529160200191610e70565b820191906000526020600020905b815481529060010190602001808311610e5357829003601f168201915b5050505050815260200160038201548152602001600482018054610e93906139bb565b80601f0160208091040260200160405190810160405280929190818152602001828054610ebf906139bb565b8015610f0c5780601f10610ee157610100808354040283529160200191610f0c565b820191906000526020600020905b815481529060010190602001808311610eef57829003601f168201915b505050505081526020016005820160009054906101000a900460ff166002811115610f3a57610f39612e2c565b5b6002811115610f4c57610f4b612e2c565b5b8152602001600682018054610f60906139bb565b80601f0160208091040260200160405190810160405280929190818152602001828054610f8c906139bb565b8015610fd95780601f10610fae57610100808354040283529160200191610fd9565b820191906000526020600020905b815481529060010190602001808311610fbc57829003601f168201915b50505050508152602001600782018054610ff2906139bb565b80601f016020809104026020016040519081016040528092919081815260200182805461101e906139bb565b801561106b5780601f106110405761010080835404028352916020019161106b565b820191906000526020600020905b81548152906001019060200180831161104e57829003601f168201915b505050505081526020016008820160009054906101000a900460ff161515151581526020016008820160019054906101000a900460ff161515151581526020016009820154815250508383815181106110c7576110c6613bb4565b5b60200260200101819052505080806110de90613a87565b915050610cef565b508091505090565b6060600082846110fe9190613c12565b9050600085600a61110f9190613d76565b8487600a61111d9190613d76565b876111289190613dc1565b6111329190613c12565b61113c9190613e1b565b9050600084858361114d9190613e1b565b60026111599190613dc1565b101590508015611173576001826111709190613e4c565b91505b61117c83612822565b61118583612822565b604051602001611196929190613eee565b60405160208183030381529060405293505050509392505050565b600080600580549050905060008167ffffffffffffffff8111156111d8576111d761303b565b5b6040519080825280602002602001820160405280156112065781602001602082028036833780820191505090505b50905060005b828110156112c757600260006005838154811061122c5761122b613bb4565b5b9060005260206000200160009054906101000a900473ffffffffffffffffffffffffffffffffffffffff1673ffffffffffffffffffffffffffffffffffffffff1673ffffffffffffffffffffffffffffffffffffffff168152602001908152602001600020600301548282815181106112a8576112a7613bb4565b5b60200260200101818152505080806112bf90613a87565b91505061120c565b506112e08160006001856112db9190613f1d565b612982565b60006002836112ef9190613c12565b905060006002846113009190613e1b565b1461132a5781818151811061131857611317613bb4565b5b60200260200101519350505050611388565b600282828151811061133f5761133e613bb4565b5b6020026020010151836001846113559190613f1d565b8151811061136657611365613bb4565b5b60200260200101516113789190613e4c565b6113829190613c12565b93505050505b90565b600080600260003373ffffffffffffffffffffffffffffffffffffffff1673ffffffffffffffffffffffffffffffffffffffff168152602001908152602001600020600001541415905090565b60608060606000600b60008673ffffffffffffffffffffffffffffffffffffffff1673ffffffffffffffffffffffffffffffffffffffff1681526020019081526020016000208054905067ffffffffffffffff81111561143b5761143a61303b565b5b6040519080825280602002602001820160405280156114695781602001602082028036833780820191505090505b5090506000600b60008773ffffffffffffffffffffffffffffffffffffffff1673ffffffffffffffffffffffffffffffffffffffff1681526020019081526020016000208054905067ffffffffffffffff8111156114ca576114c961303b565b5b6040519080825280602002602001820160405280156114f85781602001602082028036833780820191505090505b5090506000600b60008873ffffffffffffffffffffffffffffffffffffffff1673ffffffffffffffffffffffffffffffffffffffff1681526020019081526020016000208054905067ffffffffffffffff8111156115595761155861303b565b5b6040519080825280602002602001820160405280156115875781602001602082028036833780820191505090505b50905060005b600b60008973ffffffffffffffffffffffffffffffffffffffff1673ffffffffffffffffffffffffffffffffffffffff16815260200190815260200160002080549050811015611717576000600a6000600b60008c73ffffffffffffffffffffffffffffffffffffffff1673ffffffffffffffffffffffffffffffffffffffff168152602001908152602001600020848154811061162e5761162d613bb4565b5b906000526020600020015481526020019081526020016000209050806000015485838151811061166157611660613bb4565b5b6020026020010181815250508060010160009054906101000a900473ffffffffffffffffffffffffffffffffffffffff168483815181106116a5576116a4613bb4565b5b602002602001019073ffffffffffffffffffffffffffffffffffffffff16908173ffffffffffffffffffffffffffffffffffffffff168152505080600301548383815181106116f7576116f6613bb4565b5b60200260200101818152505050808061170f90613a87565b91505061158d565b50826005828180548060200260200160405190810160405280929190818152602001828054801561179d57602002820191906000526020600020905b8160009054906101000a900473ffffffffffffffffffffffffffffffffffffffff1673ffffffffffffffffffffffffffffffffffffffff1681526020019060010190808311611753575b505050505091509550955095505050509193909250565b6060600780546117c3906139bb565b80601f01602080910402602001604051908101604052809291908181526020018280546117ef906139bb565b801561183c5780601f106118115761010080835404028352916020019161183c565b820191906000526020600020905b81548152906001019060200180831161181f57829003601f168201915b5050505050905090565b60045481565b60095481565b606060058054806020026020016040519081016040528092919081815260200182805480156118d657602002820191906000526020600020905b8160009054906101000a900473ffffffffffffffffffffffffffffffffffffffff1673ffffffffffffffffffffffffffffffffffffffff168152602001906001019080831161188c575b5050505050905090565b60008060009054906101000a900473ffffffffffffffffffffffffffffffffffffffff1673ffffffffffffffffffffffffffffffffffffffff163373ffffffffffffffffffffffffffffffffffffffff1614905090565b60035481565b60016020528060005260406000206000915054906101000a900460ff1681565b606060006004541115611bfd576000806000805b600580549050811015611bd957600260006005838154811061199657611995613bb4565b5b9060005260206000200160009054906101000a900473ffffffffffffffffffffffffffffffffffffffff1673ffffffffffffffffffffffffffffffffffffffff1673ffffffffffffffffffffffffffffffffffffffff16815260200190815260200160002060080160009054906101000a900460ff168015611a98575060006002600060058481548110611a2d57611a2c613bb4565b5b9060005260206000200160009054906101000a900473ffffffffffffffffffffffffffffffffffffffff1673ffffffffffffffffffffffffffffffffffffffff1673ffffffffffffffffffffffffffffffffffffffff16815260200190815260200160002060090154115b15611bc657816002600060058481548110611ab657611ab5613bb4565b5b9060005260206000200160009054906101000a900473ffffffffffffffffffffffffffffffffffffffff1673ffffffffffffffffffffffffffffffffffffffff1673ffffffffffffffffffffffffffffffffffffffff1681526020019081526020016000206009015414611bb757600184611b319190613e4c565b93506002600060058381548110611b4b57611b4a613bb4565b5b9060005260206000200160009054906101000a900473ffffffffffffffffffffffffffffffffffffffff1673ffffffffffffffffffffffffffffffffffffffff1673ffffffffffffffffffffffffffffffffffffffff1681526020019081526020016000206009015491505b8280611bc290613a87565b9350505b8080611bd190613a87565b915050611971565b506000821115611bf957611bef600283856110ee565b9350505050611c36565b5050505b6040518060400160405280600181526020017f300000000000000000000000000000000000000000000000000000000000000081525090505b90565b60058181548110611c4957600080fd5b906000526020600020016000915054906101000a900473ffffffffffffffffffffffffffffffffffffffff1681565b60008054906101000a900473ffffffffffffffffffffffffffffffffffffffff1673ffffffffffffffffffffffffffffffffffffffff163373ffffffffffffffffffffffffffffffffffffffff1614611d06576040517f08c379a0000000000000000000000000000000000000000000000000000000008152600401611cfd90613b94565b60405180910390fd5b600081611d1290613fba565b60601c9050600260008273ffffffffffffffffffffffffffffffffffffffff1673ffffffffffffffffffffffffffffffffffffffff1681526020019081526020016000206000808201600090556001820160006101000a81549073ffffffffffffffffffffffffffffffffffffffff0219169055600282016000611d969190612c6f565b6003820160009055600482016000611dae9190612c6f565b6005820160006101000a81549060ff0219169055600682016000611dd29190612c6f565b600782016000611de29190612c6f565b6008820160006101000a81549060ff02191690556008820160016101000a81549060ff02191690556009820160009055505060005b600580549050811015611fca578173ffffffffffffffffffffffffffffffffffffffff1660058281548110611e4f57611e4e613bb4565b5b9060005260206000200160009054906101000a900473ffffffffffffffffffffffffffffffffffffffff1673ffffffffffffffffffffffffffffffffffffffff1603611fb75760008190505b6001600580549050611ead9190613f1d565b811015611f6e576005600183611ec39190613e4c565b81548110611ed457611ed3613bb4565b5b9060005260206000200160009054906101000a900473ffffffffffffffffffffffffffffffffffffffff1660058381548110611f1357611f12613bb4565b5b9060005260206000200160006101000a81548173ffffffffffffffffffffffffffffffffffffffff021916908373ffffffffffffffffffffffffffffffffffffffff1602179055508080611f6690613a87565b915050611e9b565b506005805480611f8157611f80614021565b5b6001900381819060005260206000200160006101000a81549073ffffffffffffffffffffffffffffffffffffffff021916905590555b8080611fc290613a87565b915050611e17565b5060036000815480929190611fde90614050565b91905055505050565b606060008060008060005b600580549050811015612120576000600260006005848154811061201957612018613bb4565b5b9060005260206000200160009054906101000a900473ffffffffffffffffffffffffffffffffffffffff1673ffffffffffffffffffffffffffffffffffffffff1673ffffffffffffffffffffffffffffffffffffffff168152602001908152602001600020600301549050600d8110156120a057858061209890613a87565b96505061210c565b600d81101580156120b15750601481105b156120c95784806120c190613a87565b95505061210b565b601481101580156120da5750603281105b156120f25783806120ea90613a87565b94505061210a565b6032811061210957828061210590613a87565b9350505b5b5b5b50808061211890613a87565b915050611ff2565b50600060058054905090506000612145600260648861213f9190613dc1565b846110ee565b90506000612161600260648861215b9190613dc1565b856110ee565b9050600061217d60026064886121779190613dc1565b866110ee565b9050600061219960026064886121939190613dc1565b876110ee565b9050838383836040516020016121b29493929190614241565b604051602081830303815290604052995050505050505050505090565b60008054906101000a900473ffffffffffffffffffffffffffffffffffffffff1673ffffffffffffffffffffffffffffffffffffffff163373ffffffffffffffffffffffffffffffffffffffff161461225d576040517f08c379a000000000000000000000000000000000000000000000000000000000815260040161225490613b94565b60405180910390fd5b6000600260008c73ffffffffffffffffffffffffffffffffffffffff1673ffffffffffffffffffffffffffffffffffffffff16815260200190815260200160002060000154036122e2576040517f08c379a00000000000000000000000000000000000000000000000000000000081526004016122d990614323565b60405180910390fd5b600260008b73ffffffffffffffffffffffffffffffffffffffff1673ffffffffffffffffffffffffffffffffffffffff16815260200190815260200160002060080160009054906101000a900460ff1615612372576040517f08c379a00000000000000000000000000000000000000000000000000000000081526004016123699061438f565b60405180910390fd5b6000600260008c73ffffffffffffffffffffffffffffffffffffffff1673ffffffffffffffffffffffffffffffffffffffff1681526020019081526020016000209050898160020190805190602001906123cd929190612b63565b50888160030181905550878160040190805190602001906123ef929190612b63565b50868160050160006101000a81548160ff0219169083600281111561241757612416612e2c565b5b021790555085816006019080519060200190612434929190612b63565b508481600701908051906020019061244d929190612b63565b50828160080160016101000a81548160ff02191690831515021790555083156124af5760018160080160006101000a81548160ff021916908315150217905550818160090181905550600460008154809291906124a990613a87565b91905055505b8060080160009054906101000a900460ff1615612581577f407fc563a89fd34ca24a71d737f97596d78a90d3a1e9c2a8bd37285b1a89e5876124ef61195d565b6040516124fc9190613549565b60405180910390a17f954a212bdbbeea1018df1ac1e39d60a664fff76aa092fad23faed6237da3122a61252d611fe7565b60405161253a9190613549565b60405180910390a17fd9f7619ad7d2d45abc2eefcfdb730f1e7c1755d2c4de695316c695e63752133a61256b6117b4565b6040516125789190613549565b60405180910390a15b612589612b1d565b5050505050505050505050565b670de0b6b3a764000034146125e0576040517f08c379a00000000000000000000000000000000000000000000000000000000081526004016125d7906143fb565b60405180910390fd5b6040518060a0016040528060095481526020013373ffffffffffffffffffffffffffffffffffffffff1681526020018373ffffffffffffffffffffffffffffffffffffffff16815260200182815260200160001515815250600a600060095481526020019081526020016000206000820151816000015560208201518160010160006101000a81548173ffffffffffffffffffffffffffffffffffffffff021916908373ffffffffffffffffffffffffffffffffffffffff16021790555060408201518160020160006101000a81548173ffffffffffffffffffffffffffffffffffffffff021916908373ffffffffffffffffffffffffffffffffffffffff1602179055506060820151816003015560808201518160040160006101000a81548160ff021916908315150217905550905050600b60008373ffffffffffffffffffffffffffffffffffffffff1673ffffffffffffffffffffffffffffffffffffffff16815260200190815260200160002060095490806001815401808255809150506001900390600052602060002001600090919091909150558173ffffffffffffffffffffffffffffffffffffffff163373ffffffffffffffffffffffffffffffffffffffff166009547facb872fcf123b50205564145b9e085c652fa06f3d23ae78b288f5aa8cfaaccc3846040516127da919061356b565b60405180910390a4600960008154809291906127f590613a87565b91905055505050565b60008054906101000a900473ffffffffffffffffffffffffffffffffffffffff1681565b606060008203612869576040518060400160405280600181526020017f3000000000000000000000000000000000000000000000000000000000000000815250905061297d565b600082905060005b6000821461289b57808061288490613a87565b915050600a826128949190613c12565b9150612871565b60008167ffffffffffffffff8111156128b7576128b661303b565b5b6040519080825280601f01601f1916602001820160405280156128e95781602001600182028036833780820191505090505b5090505b60008514612976576001826129029190613f1d565b9150600a856129119190613e1b565b603061291d9190613e4c565b60f81b81838151811061293357612932613bb4565b5b60200101907effffffffffffffffffffffffffffffffffffffffffffffffffffffffffffff1916908160001a905350600a8561296f9190613c12565b94506128ed565b8093505050505b919050565b6000829050600082905080820361299a575050612b18565b600085600286866129ab9190613f1d565b6129b59190613c12565b866129c09190613e4c565b815181106129d1576129d0613bb4565b5b602002602001015190505b818311612aec575b808684815181106129f8576129f7613bb4565b5b60200260200101511015612a19578280612a1190613a87565b9350506129e4565b5b858281518110612a2d57612a2c613bb4565b5b6020026020010151811015612a4f578180612a4790614050565b925050612a1a565b818311612ae757858281518110612a6957612a68613bb4565b5b6020026020010151868481518110612a8457612a83613bb4565b5b6020026020010151878581518110612a9f57612a9e613bb4565b5b60200260200101888581518110612ab957612ab8613bb4565b5b60200260200101828152508281525050508280612ad590613a87565b9350508180612ae390614050565b9250505b6129dc565b81851015612b0057612aff868684612982565b5b83831015612b1457612b13868486612982565b5b5050505b505050565b6000612b276111b1565b90507f1f5790c09b5e92c72a5c1cea522567f9d02e5ea808084a6ebba65cb26fa98f2081604051612b58919061356b565b60405180910390a150565b828054612b6f906139bb565b90600052602060002090601f016020900481019282612b915760008555612bd8565b82601f10612baa57805160ff1916838001178555612bd8565b82800160010185558215612bd8579182015b82811115612bd7578251825591602001919060010190612bbc565b5b509050612be59190612caf565b5090565b60405180610160016040528060008152602001600073ffffffffffffffffffffffffffffffffffffffff16815260200160608152602001600081526020016060815260200160006002811115612c4257612c41612e2c565b5b81526020016060815260200160608152602001600015158152602001600015158152602001600081525090565b508054612c7b906139bb565b6000825580601f10612c8d5750612cac565b601f016020900490600052602060002090810190612cab9190612caf565b5b50565b5b80821115612cc8576000816000905550600101612cb0565b5090565b6000604051905090565b600080fd5b600080fd5b600073ffffffffffffffffffffffffffffffffffffffff82169050919050565b6000612d0b82612ce0565b9050919050565b612d1b81612d00565b8114612d2657600080fd5b50565b600081359050612d3881612d12565b92915050565b600060208284031215612d5457612d53612cd6565b5b6000612d6284828501612d29565b91505092915050565b6000819050919050565b612d7e81612d6b565b82525050565b612d8d81612d00565b82525050565b600081519050919050565b600082825260208201905092915050565b60005b83811015612dcd578082015181840152602081019050612db2565b83811115612ddc576000848401525b50505050565b6000601f19601f8301169050919050565b6000612dfe82612d93565b612e088185612d9e565b9350612e18818560208601612daf565b612e2181612de2565b840191505092915050565b7f4e487b7100000000000000000000000000000000000000000000000000000000600052602160045260246000fd5b60038110612e6c57612e6b612e2c565b5b50565b6000819050612e7d82612e5b565b919050565b6000612e8d82612e6f565b9050919050565b612e9d81612e82565b82525050565b60008115159050919050565b612eb881612ea3565b82525050565b600061016082019050612ed4600083018e612d75565b612ee1602083018d612d84565b8181036040830152612ef3818c612df3565b9050612f02606083018b612d75565b8181036080830152612f14818a612df3565b9050612f2360a0830189612e94565b81810360c0830152612f358188612df3565b905081810360e0830152612f498187612df3565b9050612f59610100830186612eaf565b612f67610120830185612eaf565b612f75610140830184612d75565b9c9b505050505050505050505050565b612f8e81612d6b565b8114612f9957600080fd5b50565b600081359050612fab81612f85565b92915050565b600060208284031215612fc757612fc6612cd6565b5b6000612fd584828501612f9c565b91505092915050565b600060a082019050612ff36000830188612d75565b6130006020830187612d84565b61300d6040830186612d84565b61301a6060830185612d75565b6130276080830184612eaf565b9695505050505050565b600080fd5b600080fd5b7f4e487b7100000000000000000000000000000000000000000000000000000000600052604160045260246000fd5b61307382612de2565b810181811067ffffffffffffffff821117156130925761309161303b565b5b80604052505050565b60006130a5612ccc565b90506130b1828261306a565b919050565b600067ffffffffffffffff8211156130d1576130d061303b565b5b6130da82612de2565b9050602081019050919050565b82818337600083830152505050565b6000613109613104846130b6565b61309b565b90508281526020810184848401111561312557613124613036565b5b6131308482856130e7565b509392505050565b600082601f83011261314d5761314c613031565b5b813561315d8482602086016130f6565b91505092915050565b6003811061317357600080fd5b50565b60008135905061318581613166565b92915050565b60008060008060008060c087890312156131a8576131a7612cd6565b5b600087013567ffffffffffffffff8111156131c6576131c5612cdb565b5b6131d289828a01613138565b96505060206131e389828a01612f9c565b955050604087013567ffffffffffffffff81111561320457613203612cdb565b5b61321089828a01613138565b945050606061322189828a01613176565b935050608087013567ffffffffffffffff81111561324257613241612cdb565b5b61324e89828a01613138565b92505060a087013567ffffffffffffffff81111561326f5761326e612cdb565b5b61327b89828a01613138565b9150509295509295509295565b600081519050919050565b600082825260208201905092915050565b6000819050602082019050919050565b6132bd81612d6b565b82525050565b6132cc81612d00565b82525050565b600082825260208201905092915050565b60006132ee82612d93565b6132f881856132d2565b9350613308818560208601612daf565b61331181612de2565b840191505092915050565b61332581612e82565b82525050565b61333481612ea3565b82525050565b60006101608301600083015161335360008601826132b4565b50602083015161336660208601826132c3565b506040830151848203604086015261337e82826132e3565b915050606083015161339360608601826132b4565b50608083015184820360808601526133ab82826132e3565b91505060a08301516133c060a086018261331c565b5060c083015184820360c08601526133d882826132e3565b91505060e083015184820360e08601526133f282826132e3565b91505061010083015161340961010086018261332b565b5061012083015161341e61012086018261332b565b506101408301516134336101408601826132b4565b508091505092915050565b600061344a838361333a565b905092915050565b6000602082019050919050565b600061346a82613288565b6134748185613293565b935083602082028501613486856132a4565b8060005b858110156134c257848403895281516134a3858261343e565b94506134ae83613452565b925060208a0199505060018101905061348a565b50829750879550505050505092915050565b600060208201905081810360008301526134ee818461345f565b905092915050565b60008060006060848603121561350f5761350e612cd6565b5b600061351d86828701612f9c565b935050602061352e86828701612f9c565b925050604061353f86828701612f9c565b9150509250925092565b600060208201905081810360008301526135638184612df3565b905092915050565b60006020820190506135806000830184612d75565b92915050565b600060208201905061359b6000830184612eaf565b92915050565b600081519050919050565b600082825260208201905092915050565b6000819050602082019050919050565b60006135d983836132b4565b60208301905092915050565b6000602082019050919050565b60006135fd826135a1565b61360781856135ac565b9350613612836135bd565b8060005b8381101561364357815161362a88826135cd565b9750613635836135e5565b925050600181019050613616565b5085935050505092915050565b600081519050919050565b600082825260208201905092915050565b6000819050602082019050919050565b600061368883836132c3565b60208301905092915050565b6000602082019050919050565b60006136ac82613650565b6136b6818561365b565b93506136c18361366c565b8060005b838110156136f25781516136d9888261367c565b97506136e483613694565b9250506001810190506136c5565b5085935050505092915050565b6000606082019050818103600083015261371981866135f2565b9050818103602083015261372d81856136a1565b9050818103604083015261374181846135f2565b9050949350505050565b6000602082019050818103600083015261376581846136a1565b905092915050565b60006020820190506137826000830184612d84565b92915050565b60006020828403121561379e5761379d612cd6565b5b600082013567ffffffffffffffff8111156137bc576137bb612cdb565b5b6137c884828501613138565b91505092915050565b6137da81612ea3565b81146137e557600080fd5b50565b6000813590506137f7816137d1565b92915050565b6000806000806000806000806000806101408b8d03121561382157613820612cd6565b5b600061382f8d828e01612d29565b9a505060208b013567ffffffffffffffff8111156138505761384f612cdb565b5b61385c8d828e01613138565b995050604061386d8d828e01612f9c565b98505060608b013567ffffffffffffffff81111561388e5761388d612cdb565b5b61389a8d828e01613138565b97505060806138ab8d828e01613176565b96505060a08b013567ffffffffffffffff8111156138cc576138cb612cdb565b5b6138d88d828e01613138565b95505060c08b013567ffffffffffffffff8111156138f9576138f8612cdb565b5b6139058d828e01613138565b94505060e06139168d828e016137e8565b9350506101006139288d828e016137e8565b92505061012061393a8d828e01612f9c565b9150509295989b9194979a5092959850565b6000806040838503121561396357613962612cd6565b5b600061397185828601612d29565b925050602061398285828601612f9c565b9150509250929050565b7f4e487b7100000000000000000000000000000000000000000000000000000000600052602260045260246000fd5b600060028204905060018216806139d357607f821691505b6020821081036139e6576139e561398c565b5b50919050565b7f4e616d65206d757374206e6f7420626520656d70747900000000000000000000600082015250565b6000613a22601683612d9e565b9150613a2d826139ec565b602082019050919050565b60006020820190508181036000830152613a5181613a15565b9050919050565b7f4e487b7100000000000000000000000000000000000000000000000000000000600052601160045260246000fd5b6000613a9282612d6b565b91507fffffffffffffffffffffffffffffffffffffffffffffffffffffffffffffffff8203613ac457613ac3613a58565b5b600182019050919050565b600081905092915050565b6000613ae582612d93565b613aef8185613acf565b9350613aff818560208601612daf565b80840191505092915050565b6000613b178284613ada565b915081905092915050565b7f4f6e6c792061646d696e2063616e20706572666f726d2074686973206163746960008201527f6f6e000000000000000000000000000000000000000000000000000000000000602082015250565b6000613b7e602283612d9e565b9150613b8982613b22565b604082019050919050565b60006020820190508181036000830152613bad81613b71565b9050919050565b7f4e487b7100000000000000000000000000000000000000000000000000000000600052603260045260246000fd5b7f4e487b7100000000000000000000000000000000000000000000000000000000600052601260045260246000fd5b6000613c1d82612d6b565b9150613c2883612d6b565b925082613c3857613c37613be3565b5b828204905092915050565b60008160011c9050919050565b6000808291508390505b6001851115613c9a57808604811115613c7657613c75613a58565b5b6001851615613c855780820291505b8081029050613c9385613c43565b9450613c5a565b94509492505050565b600082613cb35760019050613d6f565b81613cc15760009050613d6f565b8160018114613cd75760028114613ce157613d10565b6001915050613d6f565b60ff841115613cf357613cf2613a58565b5b8360020a915084821115613d0a57613d09613a58565b5b50613d6f565b5060208310610133831016604e8410600b8410161715613d455782820a905083811115613d4057613d3f613a58565b5b613d6f565b613d528484846001613c50565b92509050818404811115613d6957613d68613a58565b5b81810290505b9392505050565b6000613d8182612d6b565b9150613d8c83612d6b565b9250613db97fffffffffffffffffffffffffffffffffffffffffffffffffffffffffffffffff8484613ca3565b905092915050565b6000613dcc82612d6b565b9150613dd783612d6b565b9250817fffffffffffffffffffffffffffffffffffffffffffffffffffffffffffffffff0483118215151615613e1057613e0f613a58565b5b828202905092915050565b6000613e2682612d6b565b9150613e3183612d6b565b925082613e4157613e40613be3565b5b828206905092915050565b6000613e5782612d6b565b9150613e6283612d6b565b9250827fffffffffffffffffffffffffffffffffffffffffffffffffffffffffffffffff03821115613e9757613e96613a58565b5b828201905092915050565b7f2e00000000000000000000000000000000000000000000000000000000000000600082015250565b6000613ed8600183613acf565b9150613ee382613ea2565b600182019050919050565b6000613efa8285613ada565b9150613f0582613ecb565b9150613f118284613ada565b91508190509392505050565b6000613f2882612d6b565b9150613f3383612d6b565b925082821015613f4657613f45613a58565b5b828203905092915050565b600081519050919050565b6000819050602082019050919050565b60007fffffffffffffffffffffffffffffffffffffffff00000000000000000000000082169050919050565b6000613fa48251613f6c565b80915050919050565b600082821b905092915050565b6000613fc582613f51565b82613fcf84613f5c565b9050613fda81613f98565b9250601482101561401a576140157fffffffffffffffffffffffffffffffffffffffff00000000000000000000000083601403600802613fad565b831692505b5050919050565b7f4e487b7100000000000000000000000000000000000000000000000000000000600052603160045260246000fd5b600061405b82612d6b565b91506000820361406e5761406d613a58565b5b600182039050919050565b7f4368696c6472656e3a2000000000000000000000000000000000000000000000600082015250565b60006140af600a83613acf565b91506140ba82614079565b600a82019050919050565b7f20252c2000000000000000000000000000000000000000000000000000000000600082015250565b60006140fb600483613acf565b9150614106826140c5565b600482019050919050565b7f5465656e61676572733a20000000000000000000000000000000000000000000600082015250565b6000614147600b83613acf565b915061415282614111565b600b82019050919050565b7f596f756e673a2000000000000000000000000000000000000000000000000000600082015250565b6000614193600783613acf565b915061419e8261415d565b600782019050919050565b7f456c6465723a2000000000000000000000000000000000000000000000000000600082015250565b60006141df600783613acf565b91506141ea826141a9565b600782019050919050565b7f2025000000000000000000000000000000000000000000000000000000000000600082015250565b600061422b600283613acf565b9150614236826141f5565b600282019050919050565b600061424c826140a2565b91506142588287613ada565b9150614263826140ee565b915061426e8261413a565b915061427a8286613ada565b9150614285826140ee565b915061429082614186565b915061429c8285613ada565b91506142a7826140ee565b91506142b2826141d2565b91506142be8284613ada565b91506142c98261421e565b915081905095945050505050565b7f50617469656e74206e6f7420666f756e64000000000000000000000000000000600082015250565b600061430d601183612d9e565b9150614318826142d7565b602082019050919050565b6000602082019050818103600083015261433c81614300565b9050919050565b7f43616e6e6f74206d6f6469667920612064656365617365642070617469656e74600082015250565b6000614379602083612d9e565b915061438482614343565b602082019050919050565b600060208201905081810360008301526143a88161436c565b9050919050565b7f426f6f6b696e672072657175697265732065786163746c792031204554480000600082015250565b60006143e5601e83612d9e565b91506143f0826143af565b602082019050919050565b60006020820190508181036000830152614414816143d8565b905091905056fea2646970667358221220f4dedb96e87ebd7aed319c05a01b117c290d8cd7b721eedc5b5fc3b59ba2a76864736f6c634300080d0033",
  "immutableReferences": {},
  "source": "// SPDX-License-Identifier: MIT\npragma solidity >=0.4.22 <0.9.0;\n\ncontract PatientManagement {\n    enum VaccineStatus { NotVaccinated, OneDose, TwoDose }\n\n    event AverageDeathRateChanged(string newAverageDeathRate);\n    event AgePercentagesChanged(string newAgePercentages);\n    event DistrictWithMostPatientsChanged(string newDistrictWithMostPatients);\n    event MedianAgeUpdated(uint medianAge);\n\n    struct Patient {\n        uint id;\n        address patientAddress;\n        string name;\n        uint age;\n        string gender;\n        VaccineStatus vaccineStatus;\n        string district;\n        string symptomsDetails;\n        bool isDead;\n        bool hasInfo;\n        uint deathDate;\n    }\n\n    address public admin;\n    mapping(address => bool) public doctors; // Added mapping to track doctors\n    mapping(address => Patient) public patients;\n    uint public patientCount;\n    uint public deathCount;\n    address[] public patientAddresses;\n    mapping(string => uint) districtCounts;\n    string mostPatientsDistrict;\n    uint mostPatientsCount;\n\n    modifier onlyAdmin() {\n        require(msg.sender == admin, \"Only admin can perform this action\");\n        _;\n    }\n\n    constructor(address[] memory initialDoctors) {\n        admin = msg.sender; // The first account of Ganache becomes the admin\n        for (uint i = 0; i < initialDoctors.length; i++) {\n            doctors[initialDoctors[i]] = true;\n        }\n        nextAppointmentId = 1;\n    }\n\n    function adminSignin() public view returns (bool) {\n        return msg.sender == admin;\n    }\n\n    function patientSignin() public view returns (bool) {\n        return patients[msg.sender].id != 0;\n    }\n\n    function addPatient(\n        string memory _name,\n        uint _age,\n        string memory _gender,\n        VaccineStatus _vaccineStatus,\n        string memory _district,\n        string memory _symptomsDetails\n    ) public {\n        require(bytes(_name).length > 0, \"Name must not be empty\");\n        patientCount++;\n        patients[msg.sender] = Patient({\n            id: patientCount,\n            patientAddress: msg.sender,\n            name: _name,\n            age: _age,\n            gender: _gender,\n            vaccineStatus: _vaccineStatus,\n            district: _district,\n            symptomsDetails: _symptomsDetails,\n            isDead: false,\n            hasInfo: true,\n            deathDate: 0\n        });\n\n        patientAddresses.push(msg.sender);\n        districtCounts[_district]++;\n        if (districtCounts[_district] > mostPatientsCount) {\n            mostPatientsCount = districtCounts[_district];\n            mostPatientsDistrict = _district;\n        }\n    }\n\n    function updatePatient(\n    address _patientAddress,\n    string memory _name,\n    uint _age,\n    string memory _gender,\n    VaccineStatus _vaccineStatus,\n    string memory _district,\n    string memory _symptomsDetails,\n    bool _isDead,\n    bool _hasInfo,\n    uint _deathDate\n) public onlyAdmin {\n    require(patients[_patientAddress].id != 0, \"Patient not found\");\n    require(!patients[_patientAddress].isDead, \"Cannot modify a deceased patient\");\n\n    Patient storage patient = patients[_patientAddress];\n    patient.name = _name;\n    patient.age = _age;\n    patient.gender = _gender;\n    patient.vaccineStatus = _vaccineStatus;\n    patient.district = _district;\n    patient.symptomsDetails = _symptomsDetails;\n    patient.hasInfo = _hasInfo;\n\n    // Ensuring that once a patient is marked as dead, it cannot be reversed\n    if (_isDead) {\n        patient.isDead = true;\n        patient.deathDate = _deathDate;\n        deathCount++;\n    }\n\n    // Emit events only if the status is marked as deceased\n    if (patient.isDead) {\n        emit AverageDeathRateChanged(averageDeathRate());\n        emit AgePercentagesChanged(agePercentages());\n        emit DistrictWithMostPatientsChanged(getDistrictWithMostPatients());\n    }\n    updateMedianAge();\n}\n\n\n    function deletePatient(string memory _patientAddressString) public onlyAdmin {\n        address patientAddress = address(bytes20(bytes(_patientAddressString)));\n        delete patients[patientAddress];\n        for (uint i = 0; i < patientAddresses.length; i++) {\n            if (patientAddresses[i] == patientAddress) {\n                for (uint j = i; j < patientAddresses.length - 1; j++) {\n                    patientAddresses[i] = patientAddresses[i + 1];\n                }\n                patientAddresses.pop();\n            }\n        }\n        patientCount--;\n    }\n\n    function getAllPatientAddresses() public view returns (address[] memory) {\n        return patientAddresses;\n    }\n\n    function getAllPatients() public view onlyAdmin returns (Patient[] memory) {\n        Patient[] memory allPatients = new Patient[](patientCount);\n        for (uint i = 0; i < patientCount; i++) {\n            address patientAddress = patientAddresses[i];\n            allPatients[i] = patients[patientAddress];\n        }\n        return allPatients;\n    }\n\n    function averageDeathRate() public view returns (string memory) {\n        if (deathCount > 0) {\n            uint totalDays = 0;\n            uint totalDeaths = 0;\n            uint currentDay = 0;\n\n            for (uint i = 0; i < patientAddresses.length; i++) {\n                if (patients[patientAddresses[i]].isDead && patients[patientAddresses[i]].deathDate > 0) {\n                    if (patients[patientAddresses[i]].deathDate != currentDay) {\n                        totalDays += 1;\n                        currentDay = patients[patientAddresses[i]].deathDate;\n                    }\n                    totalDeaths++;\n                }\n            }\n\n            if (totalDeaths > 0) {\n                return division(2, totalDeaths, totalDays);\n            }\n        }\n        return '0';\n    }\n\n    function getDistrictWithMostPatients() public view returns (string memory) {\n        return mostPatientsDistrict;\n    }\n\n    function division(uint256 decimalPlaces, uint256 numerator, uint256 denominator) public pure returns(string memory) {\n    uint quotient = numerator / denominator;\n    uint remainder = (numerator * (10**decimalPlaces)) / denominator % (10**decimalPlaces);\n    bool rounding = 2 * (remainder % denominator) >= denominator;\n    if (rounding) {\n        remainder += 1;\n    }\n    return string(abi.encodePacked(toString(quotient), '.', toString(remainder)));\n}\n\nfunction toString(uint256 value) internal pure returns (string memory) {\n    if (value == 0) {\n        return \"0\";\n    }\n    uint256 temp = value;\n    uint256 digits;\n    while (temp != 0) {\n        digits++;\n        temp /= 10;\n    }\n    bytes memory buffer = new bytes(digits);\n    while (value != 0) {\n        digits -= 1;\n        buffer[digits] = bytes1(uint8(48 + value % 10));\n        value /= 10;\n    }\n    return string(buffer);\n}\n\n    function agePercentages() public view returns (string memory) {\n        uint childrenCount = 0;\n        uint teenagersCount = 0;\n        uint youngCount = 0;\n        uint elderCount = 0;\n\n        for (uint i = 0; i < patientAddresses.length; i++) {\n            uint age = patients[patientAddresses[i]].age;\n            if (age < 13) {\n                childrenCount++;\n            } else if (age >= 13 && age < 20) {\n                teenagersCount++;\n            } else if (age >= 20 && age < 50) {\n                youngCount++;\n            } else if (age >= 50) {\n                elderCount++;\n            }\n        }\n\n        uint totalCount = patientAddresses.length;\n        string memory childrenPercentage = division(2, childrenCount * 100, totalCount);\n        string memory teenagersPercentage = division(2, teenagersCount * 100, totalCount);\n        string memory youngPercentage = division(2, youngCount * 100, totalCount);\n        string memory elderPercentage = division(2, elderCount * 100, totalCount);\n        return string(abi.encodePacked(\n            \"Children: \", childrenPercentage, \" %, \",\n            \"Teenagers: \", teenagersPercentage, \" %, \",\n            \"Young: \", youngPercentage, \" %, \",\n            \"Elder: \", elderPercentage, \" %\"\n        ));\n    }\n\nstruct Appointment {\n        uint256 id;\n        address patient;\n        address doctor;  // In this context, doctor refers to an admin.\n        uint256 dateTime;\n        bool confirmed;\n    }\n\n    uint256 public nextAppointmentId;\n    mapping(uint256 => Appointment) public appointments;\n    mapping(address => uint256[]) private doctorAppointments;\n\n    event AppointmentBooked(uint256 indexed id, address indexed patient, address indexed doctor, uint256 dateTime);\n\n\n\n    function bookAppointment(address doctor, uint256 dateTime) external payable {\n        require(msg.value == 1 ether, \"Booking requires exactly 1 ETH\");\n        appointments[nextAppointmentId] = Appointment(nextAppointmentId, msg.sender, doctor, dateTime, false);\n        doctorAppointments[doctor].push(nextAppointmentId);\n        emit AppointmentBooked(nextAppointmentId, msg.sender, doctor, dateTime);\n        nextAppointmentId++;\n    }\n\n function getAppointmentsByDoctor(address doctor) public view returns (uint256[] memory, address[] memory, uint256[] memory) {\n    uint256[] memory ids = new uint256[](doctorAppointments[doctor].length);\n    address[] memory doctorAddresses = new address[](doctorAppointments[doctor].length); // Renamed to avoid shadowing\n    uint256[] memory dateTimes = new uint256[](doctorAppointments[doctor].length);\n\n    for (uint i = 0; i < doctorAppointments[doctor].length; i++) {\n        Appointment storage appointment = appointments[doctorAppointments[doctor][i]];\n        ids[i] = appointment.id;\n        doctorAddresses[i] = appointment.patient; // Use new variable name\n        dateTimes[i] = appointment.dateTime;\n    }\n\n    return (ids, patientAddresses, dateTimes);\n}\n\n\n\n\n    function getMedianAge() public view returns (uint) {\n    uint numPatients = patientAddresses.length; // Renamed variable to avoid shadowing\n    uint[] memory ages = new uint[](numPatients);\n    for (uint i = 0; i < numPatients; i++) {\n        ages[i] = patients[patientAddresses[i]].age;\n    }\n    sortAges(ages, 0, numPatients - 1);\n    uint middleIndex = numPatients / 2;\n    if (numPatients % 2 != 0) {\n        return ages[middleIndex];\n    } else {\n        return (ages[middleIndex - 1] + ages[middleIndex]) / 2;\n    }\n}\n    // Helper function to perform quicksort on the ages array\n    function sortAges(uint[] memory arr, uint left, uint right) internal pure {\n        uint i = left;\n        uint j = right;\n        if (i == j) return;\n        uint pivot = arr[left + (right - left) / 2];\n        while (i <= j) {\n            while (arr[i] < pivot) i++;\n            while (pivot < arr[j]) j--;\n            if (i <= j) {\n                (arr[i], arr[j]) = (arr[j], arr[i]);\n                i++;\n                j--;\n            }\n        }\n        if (left < j)\n            sortAges(arr, left, j);\n        if (i < right)\n            sortAges(arr, i, right);\n    }\n\n    function updateMedianAge() internal {\n        uint medianAge = getMedianAge();\n        emit MedianAgeUpdated(medianAge);\n    }\n    \n\n}\n",
  "sourcePath": "/home/lycanthrope/Github/SolidityProject/contracts/PatientManagement.sol",
  "compiler": {
    "name": "solc",
    "version": "0.8.13+commit.abaa5c0e.Emscripten.clang"
  },
  "schemaVersion": "3.4.16",
  "updatedAt": "2024-12-30T21:16:56.469Z",
  "networkType": "ethereum",
  "devdoc": {
    "kind": "dev",
    "methods": {},
    "version": 1
  },
  "userdoc": {
    "kind": "user",
    "methods": {},
    "version": 1
  }
}