{
  "contractName": "PatientManagement",
  "abi": [
    {
      "inputs": [],
      "stateMutability": "nonpayable",
      "type": "constructor"
    },
    {
      "anonymous": false,
      "inputs": [
        {
          "indexed": false,
          "internalType": "string",
          "name": "newAgePercentages",
          "type": "string"
        }
      ],
      "name": "AgePercentagesChanged",
      "type": "event"
    },
    {
      "anonymous": false,
      "inputs": [
        {
          "indexed": false,
          "internalType": "string",
          "name": "newAverageDeathRate",
          "type": "string"
        }
      ],
      "name": "AverageDeathRateChanged",
      "type": "event"
    },
    {
      "anonymous": false,
      "inputs": [
        {
          "indexed": false,
          "internalType": "string",
          "name": "newDistrictWithMostPatients",
          "type": "string"
        }
      ],
      "name": "DistrictWithMostPatientsChanged",
      "type": "event"
    },
    {
      "inputs": [],
      "name": "admin",
      "outputs": [
        {
          "internalType": "address",
          "name": "",
          "type": "address"
        }
      ],
      "stateMutability": "view",
      "type": "function",
      "constant": true
    },
    {
      "inputs": [],
      "name": "deathCount",
      "outputs": [
        {
          "internalType": "uint256",
          "name": "",
          "type": "uint256"
        }
      ],
      "stateMutability": "view",
      "type": "function",
      "constant": true
    },
    {
      "inputs": [
        {
          "internalType": "uint256",
          "name": "",
          "type": "uint256"
        }
      ],
      "name": "patientAddresses",
      "outputs": [
        {
          "internalType": "address",
          "name": "",
          "type": "address"
        }
      ],
      "stateMutability": "view",
      "type": "function",
      "constant": true
    },
    {
      "inputs": [],
      "name": "patientCount",
      "outputs": [
        {
          "internalType": "uint256",
          "name": "",
          "type": "uint256"
        }
      ],
      "stateMutability": "view",
      "type": "function",
      "constant": true
    },
    {
      "inputs": [
        {
          "internalType": "address",
          "name": "",
          "type": "address"
        }
      ],
      "name": "patients",
      "outputs": [
        {
          "internalType": "uint256",
          "name": "id",
          "type": "uint256"
        },
        {
          "internalType": "address",
          "name": "patientAddress",
          "type": "address"
        },
        {
          "internalType": "string",
          "name": "name",
          "type": "string"
        },
        {
          "internalType": "uint256",
          "name": "age",
          "type": "uint256"
        },
        {
          "internalType": "string",
          "name": "gender",
          "type": "string"
        },
        {
          "internalType": "enum PatientManagement.VaccineStatus",
          "name": "vaccineStatus",
          "type": "uint8"
        },
        {
          "internalType": "string",
          "name": "district",
          "type": "string"
        },
        {
          "internalType": "string",
          "name": "symptomsDetails",
          "type": "string"
        },
        {
          "internalType": "bool",
          "name": "isDead",
          "type": "bool"
        },
        {
          "internalType": "bool",
          "name": "hasInfo",
          "type": "bool"
        },
        {
          "internalType": "uint256",
          "name": "deathDate",
          "type": "uint256"
        }
      ],
      "stateMutability": "view",
      "type": "function",
      "constant": true
    },
    {
      "inputs": [],
      "name": "adminSignin",
      "outputs": [
        {
          "internalType": "bool",
          "name": "",
          "type": "bool"
        }
      ],
      "stateMutability": "view",
      "type": "function",
      "constant": true
    },
    {
      "inputs": [],
      "name": "patientSignin",
      "outputs": [
        {
          "internalType": "bool",
          "name": "",
          "type": "bool"
        }
      ],
      "stateMutability": "view",
      "type": "function",
      "constant": true
    },
    {
      "inputs": [
        {
          "internalType": "string",
          "name": "_name",
          "type": "string"
        },
        {
          "internalType": "uint256",
          "name": "_age",
          "type": "uint256"
        },
        {
          "internalType": "string",
          "name": "_gender",
          "type": "string"
        },
        {
          "internalType": "enum PatientManagement.VaccineStatus",
          "name": "_vaccineStatus",
          "type": "uint8"
        },
        {
          "internalType": "string",
          "name": "_district",
          "type": "string"
        },
        {
          "internalType": "string",
          "name": "_symptomsDetails",
          "type": "string"
        }
      ],
      "name": "addPatient",
      "outputs": [],
      "stateMutability": "nonpayable",
      "type": "function"
    },
    {
      "inputs": [
        {
          "internalType": "address",
          "name": "_patientAddress",
          "type": "address"
        },
        {
          "internalType": "string",
          "name": "_name",
          "type": "string"
        },
        {
          "internalType": "uint256",
          "name": "_age",
          "type": "uint256"
        },
        {
          "internalType": "string",
          "name": "_gender",
          "type": "string"
        },
        {
          "internalType": "uint256",
          "name": "_vaccineStatus",
          "type": "uint256"
        },
        {
          "internalType": "string",
          "name": "_district",
          "type": "string"
        },
        {
          "internalType": "string",
          "name": "_symptomsDetails",
          "type": "string"
        },
        {
          "internalType": "bool",
          "name": "_isDead",
          "type": "bool"
        },
        {
          "internalType": "bool",
          "name": "_hasInfo",
          "type": "bool"
        },
        {
          "internalType": "uint256",
          "name": "_deathDate",
          "type": "uint256"
        }
      ],
      "name": "updatePatient",
      "outputs": [],
      "stateMutability": "nonpayable",
      "type": "function"
    },
    {
      "inputs": [
        {
          "internalType": "string",
          "name": "_patientAddressString",
          "type": "string"
        }
      ],
      "name": "deletePatient",
      "outputs": [],
      "stateMutability": "nonpayable",
      "type": "function"
    },
    {
      "inputs": [],
      "name": "getAllPatientAddresses",
      "outputs": [
        {
          "internalType": "address[]",
          "name": "",
          "type": "address[]"
        }
      ],
      "stateMutability": "view",
      "type": "function",
      "constant": true
    },
    {
      "inputs": [],
      "name": "getAllPatients",
      "outputs": [
        {
          "components": [
            {
              "internalType": "uint256",
              "name": "id",
              "type": "uint256"
            },
            {
              "internalType": "address",
              "name": "patientAddress",
              "type": "address"
            },
            {
              "internalType": "string",
              "name": "name",
              "type": "string"
            },
            {
              "internalType": "uint256",
              "name": "age",
              "type": "uint256"
            },
            {
              "internalType": "string",
              "name": "gender",
              "type": "string"
            },
            {
              "internalType": "enum PatientManagement.VaccineStatus",
              "name": "vaccineStatus",
              "type": "uint8"
            },
            {
              "internalType": "string",
              "name": "district",
              "type": "string"
            },
            {
              "internalType": "string",
              "name": "symptomsDetails",
              "type": "string"
            },
            {
              "internalType": "bool",
              "name": "isDead",
              "type": "bool"
            },
            {
              "internalType": "bool",
              "name": "hasInfo",
              "type": "bool"
            },
            {
              "internalType": "uint256",
              "name": "deathDate",
              "type": "uint256"
            }
          ],
          "internalType": "struct PatientManagement.Patient[]",
          "name": "",
          "type": "tuple[]"
        }
      ],
      "stateMutability": "view",
      "type": "function",
      "constant": true
    },
    {
      "inputs": [],
      "name": "averageDeathRate",
      "outputs": [
        {
          "internalType": "string",
          "name": "",
          "type": "string"
        }
      ],
      "stateMutability": "view",
      "type": "function",
      "constant": true
    },
    {
      "inputs": [],
      "name": "getDistrictWithMostPatients",
      "outputs": [
        {
          "internalType": "string",
          "name": "",
          "type": "string"
        }
      ],
      "stateMutability": "view",
      "type": "function",
      "constant": true
    },
    {
      "inputs": [
        {
          "internalType": "uint256",
          "name": "decimalPlaces",
          "type": "uint256"
        },
        {
          "internalType": "uint256",
          "name": "numerator",
          "type": "uint256"
        },
        {
          "internalType": "uint256",
          "name": "denominator",
          "type": "uint256"
        }
      ],
      "name": "division",
      "outputs": [
        {
          "internalType": "string",
          "name": "",
          "type": "string"
        }
      ],
      "stateMutability": "pure",
      "type": "function",
      "constant": true
    },
    {
      "inputs": [],
      "name": "agePercentages",
      "outputs": [
        {
          "internalType": "string",
          "name": "",
          "type": "string"
        }
      ],
      "stateMutability": "view",
      "type": "function",
      "constant": true
    }
  ],
  "bytecode": "0x608060405234801561001057600080fd5b50336000806101000a81548173ffffffffffffffffffffffffffffffffffffffff021916908373ffffffffffffffffffffffffffffffffffffffff160217905550613483806100606000396000f3fe608060405234801561001057600080fd5b50600436106101005760003560e01c8063968d807811610097578063b652807c11610066578063b652807c146102ab578063c9076c9b146102c7578063dd89ed55146102e3578063f851a4401461030157610100565b8063968d807814610221578063a0303c411461023f578063b40621a41461025d578063b40f16911461027b57610100565b80634c9d6881116100d35780634c9d6881146101a95780636d19770d146101c757806375c5a122146101e557806392be3e651461020357610100565b80630869cfbc1461010557806317557a9f1461013f57806318a231a91461015b5780632336b59114610179575b600080fd5b61011f600480360381019061011a9190611fd6565b61031f565b6040516101369b9a99989796959493929190612156565b60405180910390f35b610159600480360381019061015491906123a3565b6105e0565b005b61016361094b565b60405161017091906126ec565b60405180910390f35b610193600480360381019061018e919061270e565b610e37565b6040516101a09190612761565b60405180910390f35b6101b1610efa565b6040516101be9190612783565b60405180910390f35b6101cf610f47565b6040516101dc9190612761565b60405180910390f35b6101ed610fd9565b6040516101fa919061279e565b60405180910390f35b61020b610fdf565b6040516102189190612868565b60405180910390f35b61022961106d565b6040516102369190612783565b60405180910390f35b6102476110c4565b604051610254919061279e565b60405180910390f35b6102656110ca565b6040516102729190612761565b60405180910390f35b6102956004803603810190610290919061288a565b6113a6565b6040516102a291906128b7565b60405180910390f35b6102c560048036038101906102c091906128fe565b6113e5565b005b6102e160048036038101906102dc9190612a4d565b611720565b005b6102eb611a8f565b6040516102f89190612761565b60405180910390f35b610309611c77565b60405161031691906128b7565b60405180910390f35b60016020528060005260406000206000915090508060000154908060010160009054906101000a900473ffffffffffffffffffffffffffffffffffffffff169080600201805461036e90612ac5565b80601f016020809104026020016040519081016040528092919081815260200182805461039a90612ac5565b80156103e75780601f106103bc576101008083540402835291602001916103e7565b820191906000526020600020905b8154815290600101906020018083116103ca57829003601f168201915b50505050509080600301549080600401805461040290612ac5565b80601f016020809104026020016040519081016040528092919081815260200182805461042e90612ac5565b801561047b5780601f106104505761010080835404028352916020019161047b565b820191906000526020600020905b81548152906001019060200180831161045e57829003601f168201915b5050505050908060050160009054906101000a900460ff16908060060180546104a390612ac5565b80601f01602080910402602001604051908101604052809291908181526020018280546104cf90612ac5565b801561051c5780601f106104f15761010080835404028352916020019161051c565b820191906000526020600020905b8154815290600101906020018083116104ff57829003601f168201915b50505050509080600701805461053190612ac5565b80601f016020809104026020016040519081016040528092919081815260200182805461055d90612ac5565b80156105aa5780601f1061057f576101008083540402835291602001916105aa565b820191906000526020600020905b81548152906001019060200180831161058d57829003601f168201915b5050505050908060080160009054906101000a900460ff16908060080160019054906101000a900460ff1690806009015490508b565b6000865111610624576040517f08c379a000000000000000000000000000000000000000000000000000000000815260040161061b90612b42565b60405180910390fd5b6002600081548092919061063790612b91565b919050555060405180610160016040528060025481526020013373ffffffffffffffffffffffffffffffffffffffff168152602001878152602001868152602001858152602001846002811115610691576106906120c4565b5b81526020018381526020018281526020016000151581526020016001151581526020016000815250600160003373ffffffffffffffffffffffffffffffffffffffff1673ffffffffffffffffffffffffffffffffffffffff1681526020019081526020016000206000820151816000015560208201518160010160006101000a81548173ffffffffffffffffffffffffffffffffffffffff021916908373ffffffffffffffffffffffffffffffffffffffff1602179055506040820151816002019080519060200190610765929190611dfb565b5060608201518160030155608082015181600401908051906020019061078c929190611dfb565b5060a08201518160050160006101000a81548160ff021916908360028111156107b8576107b76120c4565b5b021790555060c08201518160060190805190602001906107d9929190611dfb565b5060e08201518160070190805190602001906107f6929190611dfb565b506101008201518160080160006101000a81548160ff0219169083151502179055506101208201518160080160016101000a81548160ff02191690831515021790555061014082015181600901559050506004339080600181540180825580915050600190039060005260206000200160009091909190916101000a81548173ffffffffffffffffffffffffffffffffffffffff021916908373ffffffffffffffffffffffffffffffffffffffff1602179055506005826040516108ba9190612c15565b908152602001604051809103902060008154809291906108d990612b91565b91905055506007546005836040516108f19190612c15565b9081526020016040518091039020541115610943576005826040516109169190612c15565b9081526020016040518091039020546007819055508160069080519060200190610941929190611dfb565b505b505050505050565b606060008054906101000a900473ffffffffffffffffffffffffffffffffffffffff1673ffffffffffffffffffffffffffffffffffffffff163373ffffffffffffffffffffffffffffffffffffffff16146109db576040517f08c379a00000000000000000000000000000000000000000000000000000000081526004016109d290612c9e565b60405180910390fd5b600060025467ffffffffffffffff8111156109f9576109f8612227565b5b604051908082528060200260200182016040528015610a3257816020015b610a1f611e81565b815260200190600190039081610a175790505b50905060005b600254811015610e2f57600060048281548110610a5857610a57612cbe565b5b9060005260206000200160009054906101000a900473ffffffffffffffffffffffffffffffffffffffff169050600160008273ffffffffffffffffffffffffffffffffffffffff1673ffffffffffffffffffffffffffffffffffffffff16815260200190815260200160002060405180610160016040529081600082015481526020016001820160009054906101000a900473ffffffffffffffffffffffffffffffffffffffff1673ffffffffffffffffffffffffffffffffffffffff1673ffffffffffffffffffffffffffffffffffffffff168152602001600282018054610b4090612ac5565b80601f0160208091040260200160405190810160405280929190818152602001828054610b6c90612ac5565b8015610bb95780601f10610b8e57610100808354040283529160200191610bb9565b820191906000526020600020905b815481529060010190602001808311610b9c57829003601f168201915b5050505050815260200160038201548152602001600482018054610bdc90612ac5565b80601f0160208091040260200160405190810160405280929190818152602001828054610c0890612ac5565b8015610c555780601f10610c2a57610100808354040283529160200191610c55565b820191906000526020600020905b815481529060010190602001808311610c3857829003601f168201915b505050505081526020016005820160009054906101000a900460ff166002811115610c8357610c826120c4565b5b6002811115610c9557610c946120c4565b5b8152602001600682018054610ca990612ac5565b80601f0160208091040260200160405190810160405280929190818152602001828054610cd590612ac5565b8015610d225780601f10610cf757610100808354040283529160200191610d22565b820191906000526020600020905b815481529060010190602001808311610d0557829003601f168201915b50505050508152602001600782018054610d3b90612ac5565b80601f0160208091040260200160405190810160405280929190818152602001828054610d6790612ac5565b8015610db45780601f10610d8957610100808354040283529160200191610db4565b820191906000526020600020905b815481529060010190602001808311610d9757829003601f168201915b505050505081526020016008820160009054906101000a900460ff161515151581526020016008820160019054906101000a900460ff16151515158152602001600982015481525050838381518110610e1057610e0f612cbe565b5b6020026020010181905250508080610e2790612b91565b915050610a38565b508091505090565b606060008284610e479190612d1c565b9050600085600a610e589190612e80565b8487600a610e669190612e80565b87610e719190612ecb565b610e7b9190612d1c565b610e859190612f25565b90506000848583610e969190612f25565b6002610ea29190612ecb565b101590508015610ebc57600182610eb99190612f56565b91505b610ec583611c9b565b610ece83611c9b565b604051602001610edf929190612ff8565b60405160208183030381529060405293505050509392505050565b600080600160003373ffffffffffffffffffffffffffffffffffffffff1673ffffffffffffffffffffffffffffffffffffffff168152602001908152602001600020600001541415905090565b606060068054610f5690612ac5565b80601f0160208091040260200160405190810160405280929190818152602001828054610f8290612ac5565b8015610fcf5780601f10610fa457610100808354040283529160200191610fcf565b820191906000526020600020905b815481529060010190602001808311610fb257829003601f168201915b5050505050905090565b60035481565b6060600480548060200260200160405190810160405280929190818152602001828054801561106357602002820191906000526020600020905b8160009054906101000a900473ffffffffffffffffffffffffffffffffffffffff1673ffffffffffffffffffffffffffffffffffffffff1681526020019060010190808311611019575b5050505050905090565b60008060009054906101000a900473ffffffffffffffffffffffffffffffffffffffff1673ffffffffffffffffffffffffffffffffffffffff163373ffffffffffffffffffffffffffffffffffffffff1614905090565b60025481565b60606000600354111561136a576000806000805b60048054905081101561134657600160006004838154811061110357611102612cbe565b5b9060005260206000200160009054906101000a900473ffffffffffffffffffffffffffffffffffffffff1673ffffffffffffffffffffffffffffffffffffffff1673ffffffffffffffffffffffffffffffffffffffff16815260200190815260200160002060080160009054906101000a900460ff16801561120557506000600160006004848154811061119a57611199612cbe565b5b9060005260206000200160009054906101000a900473ffffffffffffffffffffffffffffffffffffffff1673ffffffffffffffffffffffffffffffffffffffff1673ffffffffffffffffffffffffffffffffffffffff16815260200190815260200160002060090154115b156113335781600160006004848154811061122357611222612cbe565b5b9060005260206000200160009054906101000a900473ffffffffffffffffffffffffffffffffffffffff1673ffffffffffffffffffffffffffffffffffffffff1673ffffffffffffffffffffffffffffffffffffffff16815260200190815260200160002060090154146113245760018461129e9190612f56565b935060016000600483815481106112b8576112b7612cbe565b5b9060005260206000200160009054906101000a900473ffffffffffffffffffffffffffffffffffffffff1673ffffffffffffffffffffffffffffffffffffffff1673ffffffffffffffffffffffffffffffffffffffff1681526020019081526020016000206009015491505b828061132f90612b91565b9350505b808061133e90612b91565b9150506110de565b5060008211156113665761135c60028385610e37565b93505050506113a3565b5050505b6040518060400160405280600181526020017f300000000000000000000000000000000000000000000000000000000000000081525090505b90565b600481815481106113b657600080fd5b906000526020600020016000915054906101000a900473ffffffffffffffffffffffffffffffffffffffff1681565b60008054906101000a900473ffffffffffffffffffffffffffffffffffffffff1673ffffffffffffffffffffffffffffffffffffffff163373ffffffffffffffffffffffffffffffffffffffff1614611473576040517f08c379a000000000000000000000000000000000000000000000000000000000815260040161146a90612c9e565b60405180910390fd5b6000600160008c73ffffffffffffffffffffffffffffffffffffffff1673ffffffffffffffffffffffffffffffffffffffff16815260200190815260200160002060000154036114f8576040517f08c379a00000000000000000000000000000000000000000000000000000000081526004016114ef90613073565b60405180910390fd5b6000600160008c73ffffffffffffffffffffffffffffffffffffffff1673ffffffffffffffffffffffffffffffffffffffff168152602001908152602001600020905089816002019080519060200190611553929190611dfb565b5088816003018190555087816004019080519060200190611575929190611dfb565b50866002811115611589576115886120c4565b5b8160050160006101000a81548160ff021916908360028111156115af576115ae6120c4565b5b0217905550858160060190805190602001906115cc929190611dfb565b50848160070190805190602001906115e5929190611dfb565b50838160080160006101000a81548160ff021916908315150217905550828160080160016101000a81548160ff02191690831515021790555081816009018190555060008211801561163b575060011515841515145b15611713576003600081548092919061165390612b91565b91905055507f407fc563a89fd34ca24a71d737f97596d78a90d3a1e9c2a8bd37285b1a89e5876116816110ca565b60405161168e9190612761565b60405180910390a17f954a212bdbbeea1018df1ac1e39d60a664fff76aa092fad23faed6237da3122a6116bf611a8f565b6040516116cc9190612761565b60405180910390a17fd9f7619ad7d2d45abc2eefcfdb730f1e7c1755d2c4de695316c695e63752133a6116fd610f47565b60405161170a9190612761565b60405180910390a15b5050505050505050505050565b60008054906101000a900473ffffffffffffffffffffffffffffffffffffffff1673ffffffffffffffffffffffffffffffffffffffff163373ffffffffffffffffffffffffffffffffffffffff16146117ae576040517f08c379a00000000000000000000000000000000000000000000000000000000081526004016117a590612c9e565b60405180910390fd5b6000816117ba906130fc565b60601c9050600160008273ffffffffffffffffffffffffffffffffffffffff1673ffffffffffffffffffffffffffffffffffffffff1681526020019081526020016000206000808201600090556001820160006101000a81549073ffffffffffffffffffffffffffffffffffffffff021916905560028201600061183e9190611f07565b60038201600090556004820160006118569190611f07565b6005820160006101000a81549060ff021916905560068201600061187a9190611f07565b60078201600061188a9190611f07565b6008820160006101000a81549060ff02191690556008820160016101000a81549060ff02191690556009820160009055505060005b600480549050811015611a72578173ffffffffffffffffffffffffffffffffffffffff16600482815481106118f7576118f6612cbe565b5b9060005260206000200160009054906101000a900473ffffffffffffffffffffffffffffffffffffffff1673ffffffffffffffffffffffffffffffffffffffff1603611a5f5760008190505b60016004805490506119559190613163565b811015611a1657600460018361196b9190612f56565b8154811061197c5761197b612cbe565b5b9060005260206000200160009054906101000a900473ffffffffffffffffffffffffffffffffffffffff16600483815481106119bb576119ba612cbe565b5b9060005260206000200160006101000a81548173ffffffffffffffffffffffffffffffffffffffff021916908373ffffffffffffffffffffffffffffffffffffffff1602179055508080611a0e90612b91565b915050611943565b506004805480611a2957611a28613197565b5b6001900381819060005260206000200160006101000a81549073ffffffffffffffffffffffffffffffffffffffff021916905590555b8080611a6a90612b91565b9150506118bf565b5060026000815480929190611a86906131c6565b91905055505050565b606060008060008060005b600480549050811015611bc85760006001600060048481548110611ac157611ac0612cbe565b5b9060005260206000200160009054906101000a900473ffffffffffffffffffffffffffffffffffffffff1673ffffffffffffffffffffffffffffffffffffffff1673ffffffffffffffffffffffffffffffffffffffff168152602001908152602001600020600301549050600d811015611b48578580611b4090612b91565b965050611bb4565b600d8110158015611b595750601481105b15611b71578480611b6990612b91565b955050611bb3565b60148110158015611b825750603281105b15611b9a578380611b9290612b91565b945050611bb2565b60328110611bb1578280611bad90612b91565b9350505b5b5b5b508080611bc090612b91565b915050611a9a565b50600060048054905090506000611bed6002606488611be79190612ecb565b84610e37565b90506000611c096002606488611c039190612ecb565b85610e37565b90506000611c256002606488611c1f9190612ecb565b86610e37565b90506000611c416002606488611c3b9190612ecb565b87610e37565b905083838383604051602001611c5a94939291906133b7565b604051602081830303815290604052995050505050505050505090565b60008054906101000a900473ffffffffffffffffffffffffffffffffffffffff1681565b606060008203611ce2576040518060400160405280600181526020017f30000000000000000000000000000000000000000000000000000000000000008152509050611df6565b600082905060005b60008214611d14578080611cfd90612b91565b915050600a82611d0d9190612d1c565b9150611cea565b60008167ffffffffffffffff811115611d3057611d2f612227565b5b6040519080825280601f01601f191660200182016040528015611d625781602001600182028036833780820191505090505b5090505b60008514611def57600182611d7b9190613163565b9150600a85611d8a9190612f25565b6030611d969190612f56565b60f81b818381518110611dac57611dab612cbe565b5b60200101907effffffffffffffffffffffffffffffffffffffffffffffffffffffffffffff1916908160001a905350600a85611de89190612d1c565b9450611d66565b8093505050505b919050565b828054611e0790612ac5565b90600052602060002090601f016020900481019282611e295760008555611e70565b82601f10611e4257805160ff1916838001178555611e70565b82800160010185558215611e70579182015b82811115611e6f578251825591602001919060010190611e54565b5b509050611e7d9190611f47565b5090565b60405180610160016040528060008152602001600073ffffffffffffffffffffffffffffffffffffffff16815260200160608152602001600081526020016060815260200160006002811115611eda57611ed96120c4565b5b81526020016060815260200160608152602001600015158152602001600015158152602001600081525090565b508054611f1390612ac5565b6000825580601f10611f255750611f44565b601f016020900490600052602060002090810190611f439190611f47565b5b50565b5b80821115611f60576000816000905550600101611f48565b5090565b6000604051905090565b600080fd5b600080fd5b600073ffffffffffffffffffffffffffffffffffffffff82169050919050565b6000611fa382611f78565b9050919050565b611fb381611f98565b8114611fbe57600080fd5b50565b600081359050611fd081611faa565b92915050565b600060208284031215611fec57611feb611f6e565b5b6000611ffa84828501611fc1565b91505092915050565b6000819050919050565b61201681612003565b82525050565b61202581611f98565b82525050565b600081519050919050565b600082825260208201905092915050565b60005b8381101561206557808201518184015260208101905061204a565b83811115612074576000848401525b50505050565b6000601f19601f8301169050919050565b60006120968261202b565b6120a08185612036565b93506120b0818560208601612047565b6120b98161207a565b840191505092915050565b7f4e487b7100000000000000000000000000000000000000000000000000000000600052602160045260246000fd5b60038110612104576121036120c4565b5b50565b6000819050612115826120f3565b919050565b600061212582612107565b9050919050565b6121358161211a565b82525050565b60008115159050919050565b6121508161213b565b82525050565b60006101608201905061216c600083018e61200d565b612179602083018d61201c565b818103604083015261218b818c61208b565b905061219a606083018b61200d565b81810360808301526121ac818a61208b565b90506121bb60a083018961212c565b81810360c08301526121cd818861208b565b905081810360e08301526121e1818761208b565b90506121f1610100830186612147565b6121ff610120830185612147565b61220d61014083018461200d565b9c9b505050505050505050505050565b600080fd5b600080fd5b7f4e487b7100000000000000000000000000000000000000000000000000000000600052604160045260246000fd5b61225f8261207a565b810181811067ffffffffffffffff8211171561227e5761227d612227565b5b80604052505050565b6000612291611f64565b905061229d8282612256565b919050565b600067ffffffffffffffff8211156122bd576122bc612227565b5b6122c68261207a565b9050602081019050919050565b82818337600083830152505050565b60006122f56122f0846122a2565b612287565b90508281526020810184848401111561231157612310612222565b5b61231c8482856122d3565b509392505050565b600082601f8301126123395761233861221d565b5b81356123498482602086016122e2565b91505092915050565b61235b81612003565b811461236657600080fd5b50565b60008135905061237881612352565b92915050565b6003811061238b57600080fd5b50565b60008135905061239d8161237e565b92915050565b60008060008060008060c087890312156123c0576123bf611f6e565b5b600087013567ffffffffffffffff8111156123de576123dd611f73565b5b6123ea89828a01612324565b96505060206123fb89828a01612369565b955050604087013567ffffffffffffffff81111561241c5761241b611f73565b5b61242889828a01612324565b945050606061243989828a0161238e565b935050608087013567ffffffffffffffff81111561245a57612459611f73565b5b61246689828a01612324565b92505060a087013567ffffffffffffffff81111561248757612486611f73565b5b61249389828a01612324565b9150509295509295509295565b600081519050919050565b600082825260208201905092915050565b6000819050602082019050919050565b6124d581612003565b82525050565b6124e481611f98565b82525050565b600082825260208201905092915050565b60006125068261202b565b61251081856124ea565b9350612520818560208601612047565b6125298161207a565b840191505092915050565b61253d8161211a565b82525050565b61254c8161213b565b82525050565b60006101608301600083015161256b60008601826124cc565b50602083015161257e60208601826124db565b506040830151848203604086015261259682826124fb565b91505060608301516125ab60608601826124cc565b50608083015184820360808601526125c382826124fb565b91505060a08301516125d860a0860182612534565b5060c083015184820360c08601526125f082826124fb565b91505060e083015184820360e086015261260a82826124fb565b915050610100830151612621610100860182612543565b50610120830151612636610120860182612543565b5061014083015161264b6101408601826124cc565b508091505092915050565b60006126628383612552565b905092915050565b6000602082019050919050565b6000612682826124a0565b61268c81856124ab565b93508360208202850161269e856124bc565b8060005b858110156126da57848403895281516126bb8582612656565b94506126c68361266a565b925060208a019950506001810190506126a2565b50829750879550505050505092915050565b600060208201905081810360008301526127068184612677565b905092915050565b60008060006060848603121561272757612726611f6e565b5b600061273586828701612369565b935050602061274686828701612369565b925050604061275786828701612369565b9150509250925092565b6000602082019050818103600083015261277b818461208b565b905092915050565b60006020820190506127986000830184612147565b92915050565b60006020820190506127b3600083018461200d565b92915050565b600081519050919050565b600082825260208201905092915050565b6000819050602082019050919050565b60006127f183836124db565b60208301905092915050565b6000602082019050919050565b6000612815826127b9565b61281f81856127c4565b935061282a836127d5565b8060005b8381101561285b57815161284288826127e5565b975061284d836127fd565b92505060018101905061282e565b5085935050505092915050565b60006020820190508181036000830152612882818461280a565b905092915050565b6000602082840312156128a05761289f611f6e565b5b60006128ae84828501612369565b91505092915050565b60006020820190506128cc600083018461201c565b92915050565b6128db8161213b565b81146128e657600080fd5b50565b6000813590506128f8816128d2565b92915050565b6000806000806000806000806000806101408b8d03121561292257612921611f6e565b5b60006129308d828e01611fc1565b9a505060208b013567ffffffffffffffff81111561295157612950611f73565b5b61295d8d828e01612324565b995050604061296e8d828e01612369565b98505060608b013567ffffffffffffffff81111561298f5761298e611f73565b5b61299b8d828e01612324565b97505060806129ac8d828e01612369565b96505060a08b013567ffffffffffffffff8111156129cd576129cc611f73565b5b6129d98d828e01612324565b95505060c08b013567ffffffffffffffff8111156129fa576129f9611f73565b5b612a068d828e01612324565b94505060e0612a178d828e016128e9565b935050610100612a298d828e016128e9565b925050610120612a3b8d828e01612369565b9150509295989b9194979a5092959850565b600060208284031215612a6357612a62611f6e565b5b600082013567ffffffffffffffff811115612a8157612a80611f73565b5b612a8d84828501612324565b91505092915050565b7f4e487b7100000000000000000000000000000000000000000000000000000000600052602260045260246000fd5b60006002820490506001821680612add57607f821691505b602082108103612af057612aef612a96565b5b50919050565b7f4e616d65206d757374206e6f7420626520656d70747900000000000000000000600082015250565b6000612b2c601683612036565b9150612b3782612af6565b602082019050919050565b60006020820190508181036000830152612b5b81612b1f565b9050919050565b7f4e487b7100000000000000000000000000000000000000000000000000000000600052601160045260246000fd5b6000612b9c82612003565b91507fffffffffffffffffffffffffffffffffffffffffffffffffffffffffffffffff8203612bce57612bcd612b62565b5b600182019050919050565b600081905092915050565b6000612bef8261202b565b612bf98185612bd9565b9350612c09818560208601612047565b80840191505092915050565b6000612c218284612be4565b915081905092915050565b7f4f6e6c792061646d696e2063616e20706572666f726d2074686973206163746960008201527f6f6e000000000000000000000000000000000000000000000000000000000000602082015250565b6000612c88602283612036565b9150612c9382612c2c565b604082019050919050565b60006020820190508181036000830152612cb781612c7b565b9050919050565b7f4e487b7100000000000000000000000000000000000000000000000000000000600052603260045260246000fd5b7f4e487b7100000000000000000000000000000000000000000000000000000000600052601260045260246000fd5b6000612d2782612003565b9150612d3283612003565b925082612d4257612d41612ced565b5b828204905092915050565b60008160011c9050919050565b6000808291508390505b6001851115612da457808604811115612d8057612d7f612b62565b5b6001851615612d8f5780820291505b8081029050612d9d85612d4d565b9450612d64565b94509492505050565b600082612dbd5760019050612e79565b81612dcb5760009050612e79565b8160018114612de15760028114612deb57612e1a565b6001915050612e79565b60ff841115612dfd57612dfc612b62565b5b8360020a915084821115612e1457612e13612b62565b5b50612e79565b5060208310610133831016604e8410600b8410161715612e4f5782820a905083811115612e4a57612e49612b62565b5b612e79565b612e5c8484846001612d5a565b92509050818404811115612e7357612e72612b62565b5b81810290505b9392505050565b6000612e8b82612003565b9150612e9683612003565b9250612ec37fffffffffffffffffffffffffffffffffffffffffffffffffffffffffffffffff8484612dad565b905092915050565b6000612ed682612003565b9150612ee183612003565b9250817fffffffffffffffffffffffffffffffffffffffffffffffffffffffffffffffff0483118215151615612f1a57612f19612b62565b5b828202905092915050565b6000612f3082612003565b9150612f3b83612003565b925082612f4b57612f4a612ced565b5b828206905092915050565b6000612f6182612003565b9150612f6c83612003565b9250827fffffffffffffffffffffffffffffffffffffffffffffffffffffffffffffffff03821115612fa157612fa0612b62565b5b828201905092915050565b7f2e00000000000000000000000000000000000000000000000000000000000000600082015250565b6000612fe2600183612bd9565b9150612fed82612fac565b600182019050919050565b60006130048285612be4565b915061300f82612fd5565b915061301b8284612be4565b91508190509392505050565b7f50617469656e74206e6f7420666f756e64000000000000000000000000000000600082015250565b600061305d601183612036565b915061306882613027565b602082019050919050565b6000602082019050818103600083015261308c81613050565b9050919050565b600081519050919050565b6000819050602082019050919050565b60007fffffffffffffffffffffffffffffffffffffffff00000000000000000000000082169050919050565b60006130e682516130ae565b80915050919050565b600082821b905092915050565b600061310782613093565b826131118461309e565b905061311c816130da565b9250601482101561315c576131577fffffffffffffffffffffffffffffffffffffffff000000000000000000000000836014036008026130ef565b831692505b5050919050565b600061316e82612003565b915061317983612003565b92508282101561318c5761318b612b62565b5b828203905092915050565b7f4e487b7100000000000000000000000000000000000000000000000000000000600052603160045260246000fd5b60006131d182612003565b9150600082036131e4576131e3612b62565b5b600182039050919050565b7f4368696c6472656e3a2000000000000000000000000000000000000000000000600082015250565b6000613225600a83612bd9565b9150613230826131ef565b600a82019050919050565b7f20252c2000000000000000000000000000000000000000000000000000000000600082015250565b6000613271600483612bd9565b915061327c8261323b565b600482019050919050565b7f5465656e61676572733a20000000000000000000000000000000000000000000600082015250565b60006132bd600b83612bd9565b91506132c882613287565b600b82019050919050565b7f596f756e673a2000000000000000000000000000000000000000000000000000600082015250565b6000613309600783612bd9565b9150613314826132d3565b600782019050919050565b7f456c6465723a2000000000000000000000000000000000000000000000000000600082015250565b6000613355600783612bd9565b91506133608261331f565b600782019050919050565b7f2025000000000000000000000000000000000000000000000000000000000000600082015250565b60006133a1600283612bd9565b91506133ac8261336b565b600282019050919050565b60006133c282613218565b91506133ce8287612be4565b91506133d982613264565b91506133e4826132b0565b91506133f08286612be4565b91506133fb82613264565b9150613406826132fc565b91506134128285612be4565b915061341d82613264565b915061342882613348565b91506134348284612be4565b915061343f82613394565b91508190509594505050505056fea2646970667358221220e8e27bf0b7cf7e7cd469f7c6d799f7003895d6b160f9fb2485b1187ebebbfa0264736f6c634300080d0033",
  "immutableReferences": {},
  "source": "// SPDX-License-Identifier: MIT\npragma solidity >=0.4.22 <0.9.0;\n\ncontract PatientManagement {\n    enum VaccineStatus { NotVaccinated, OneDose, TwoDose }\n\n    event AverageDeathRateChanged(string newAverageDeathRate);\n    event AgePercentagesChanged(string newAgePercentages);\n    event DistrictWithMostPatientsChanged(string newDistrictWithMostPatients);\n\n    struct Patient {\n        uint id;\n        address patientAddress;\n        string name;\n        uint age;\n        string gender;\n        VaccineStatus vaccineStatus;\n        string district;\n        string symptomsDetails;\n        bool isDead;\n        bool hasInfo;\n        uint deathDate;\n    }\n\n    address public admin;\n    mapping(address => Patient) public patients;\n    uint public patientCount;\n    uint public deathCount;\n    address[] public patientAddresses;\n    mapping(string => uint) districtCounts;\n    string mostPatientsDistrict;\n    uint mostPatientsCount;\n\n    modifier onlyAdmin() {\n        require(msg.sender == admin, \"Only admin can perform this action\");\n        _;\n    }\n\n    constructor() {\n    admin = msg.sender; // The first account of Ganache becomes the admin\n}\n\n    function adminSignin() public view returns (bool) {\n        return msg.sender == admin;\n    }\n\n    function patientSignin() public view returns (bool) {\n        return patients[msg.sender].id != 0;\n    }\n\n    function addPatient(\n        string memory _name,\n        uint _age,\n        string memory _gender,\n        VaccineStatus _vaccineStatus,\n        string memory _district,\n        string memory _symptomsDetails\n    ) public {\n        require(bytes(_name).length > 0, \"Name must not be empty\");\n        patientCount++;\n        patients[msg.sender] = Patient({\n            id: patientCount,\n            patientAddress: msg.sender,\n            name: _name,\n            age: _age,\n            gender: _gender,\n            vaccineStatus: _vaccineStatus,\n            district: _district,\n            symptomsDetails: _symptomsDetails,\n            isDead: false,\n            hasInfo: true,\n            deathDate: 0\n        });\n\n        patientAddresses.push(msg.sender);\n        districtCounts[_district]++;\n        if (districtCounts[_district] > mostPatientsCount) {\n            mostPatientsCount = districtCounts[_district];\n            mostPatientsDistrict = _district;\n        }\n    }\n\n    function updatePatient(\n        address _patientAddress,\n        string memory _name,\n        uint _age,\n        string memory _gender,\n        uint _vaccineStatus,\n        string memory _district,\n        string memory _symptomsDetails,\n        bool _isDead,\n        bool _hasInfo,\n        uint _deathDate\n    ) public onlyAdmin {\n        require(patients[_patientAddress].id != 0, \"Patient not found\");\n        Patient storage patient = patients[_patientAddress];\n        patient.name = _name;\n        patient.age = _age;\n        patient.gender = _gender;\n        patient.vaccineStatus = VaccineStatus(_vaccineStatus);\n        patient.district = _district;\n        patient.symptomsDetails = _symptomsDetails;\n        patient.isDead = _isDead;\n        patient.hasInfo = _hasInfo;\n        patient.deathDate = _deathDate;\n\n        if (_deathDate > 0 && _isDead == true) {\n            deathCount++;\n            emit AverageDeathRateChanged(averageDeathRate());\n            emit AgePercentagesChanged(agePercentages());\n            emit DistrictWithMostPatientsChanged(getDistrictWithMostPatients());\n        }\n    }\n\n    function deletePatient(string memory _patientAddressString) public onlyAdmin {\n        address patientAddress = address(bytes20(bytes(_patientAddressString)));\n        delete patients[patientAddress];\n        for (uint i = 0; i < patientAddresses.length; i++) {\n            if (patientAddresses[i] == patientAddress) {\n                for (uint j = i; j < patientAddresses.length - 1; j++) {\n                    patientAddresses[i] = patientAddresses[i + 1];\n                }\n                patientAddresses.pop();\n            }\n        }\n        patientCount--;\n    }\n\n    function getAllPatientAddresses() public view returns (address[] memory) {\n        return patientAddresses;\n    }\n\n    function getAllPatients() public view onlyAdmin returns (Patient[] memory) {\n        Patient[] memory allPatients = new Patient[](patientCount);\n        for (uint i = 0; i < patientCount; i++) {\n            address patientAddress = patientAddresses[i];\n            allPatients[i] = patients[patientAddress];\n        }\n        return allPatients;\n    }\n\n    function averageDeathRate() public view returns (string memory) {\n        if (deathCount > 0) {\n            uint totalDays = 0;\n            uint totalDeaths = 0;\n            uint currentDay = 0;\n\n            for (uint i = 0; i < patientAddresses.length; i++) {\n                if (patients[patientAddresses[i]].isDead && patients[patientAddresses[i]].deathDate > 0) {\n                    if (patients[patientAddresses[i]].deathDate != currentDay) {\n                        totalDays += 1;\n                        currentDay = patients[patientAddresses[i]].deathDate;\n                    }\n                    totalDeaths++;\n                }\n            }\n\n            if (totalDeaths > 0) {\n                return division(2, totalDeaths, totalDays);\n            }\n        }\n        return '0';\n    }\n\n    function getDistrictWithMostPatients() public view returns (string memory) {\n        return mostPatientsDistrict;\n    }\n\n    function division(uint256 decimalPlaces, uint256 numerator, uint256 denominator) public pure returns(string memory) {\n    uint quotient = numerator / denominator;\n    uint remainder = (numerator * (10**decimalPlaces)) / denominator % (10**decimalPlaces);\n    bool rounding = 2 * (remainder % denominator) >= denominator;\n    if (rounding) {\n        remainder += 1;\n    }\n    return string(abi.encodePacked(toString(quotient), '.', toString(remainder)));\n}\n\nfunction toString(uint256 value) internal pure returns (string memory) {\n    if (value == 0) {\n        return \"0\";\n    }\n    uint256 temp = value;\n    uint256 digits;\n    while (temp != 0) {\n        digits++;\n        temp /= 10;\n    }\n    bytes memory buffer = new bytes(digits);\n    while (value != 0) {\n        digits -= 1;\n        buffer[digits] = bytes1(uint8(48 + value % 10));\n        value /= 10;\n    }\n    return string(buffer);\n}\n\n    function agePercentages() public view returns (string memory) {\n        uint childrenCount = 0;\n        uint teenagersCount = 0;\n        uint youngCount = 0;\n        uint elderCount = 0;\n\n        for (uint i = 0; i < patientAddresses.length; i++) {\n            uint age = patients[patientAddresses[i]].age;\n            if (age < 13) {\n                childrenCount++;\n            } else if (age >= 13 && age < 20) {\n                teenagersCount++;\n            } else if (age >= 20 && age < 50) {\n                youngCount++;\n            } else if (age >= 50) {\n                elderCount++;\n            }\n        }\n\n        uint totalCount = patientAddresses.length;\n        string memory childrenPercentage = division(2, childrenCount * 100, totalCount);\n        string memory teenagersPercentage = division(2, teenagersCount * 100, totalCount);\n        string memory youngPercentage = division(2, youngCount * 100, totalCount);\n        string memory elderPercentage = division(2, elderCount * 100, totalCount);\n        return string(abi.encodePacked(\n            \"Children: \", childrenPercentage, \" %, \",\n            \"Teenagers: \", teenagersPercentage, \" %, \",\n            \"Young: \", youngPercentage, \" %, \",\n            \"Elder: \", elderPercentage, \" %\"\n        ));\n    }\n}\n",
  "sourcePath": "/home/lycanthrope/Github/SolidityProject/contracts/PatientManagement.sol",
  "compiler": {
    "name": "solc",
    "version": "0.8.13+commit.abaa5c0e.Emscripten.clang"
  },
  "schemaVersion": "3.4.16",
  "updatedAt": "2024-12-30T11:01:26.081Z",
  "networkType": "ethereum",
  "devdoc": {
    "kind": "dev",
    "methods": {},
    "version": 1
  },
  "userdoc": {
    "kind": "user",
    "methods": {},
    "version": 1
  }
}