{
  "contractName": "PatientManagement",
  "abi": [
    {
      "inputs": [],
      "stateMutability": "nonpayable",
      "type": "constructor"
    },
    {
      "anonymous": false,
      "inputs": [
        {
          "indexed": false,
          "internalType": "string",
          "name": "newAgePercentages",
          "type": "string"
        }
      ],
      "name": "AgePercentagesChanged",
      "type": "event"
    },
    {
      "anonymous": false,
      "inputs": [
        {
          "indexed": false,
          "internalType": "string",
          "name": "newAverageDeathRate",
          "type": "string"
        }
      ],
      "name": "AverageDeathRateChanged",
      "type": "event"
    },
    {
      "anonymous": false,
      "inputs": [
        {
          "indexed": false,
          "internalType": "string",
          "name": "newDistrictWithMostPatients",
          "type": "string"
        }
      ],
      "name": "DistrictWithMostPatientsChanged",
      "type": "event"
    },
    {
      "inputs": [],
      "name": "admin",
      "outputs": [
        {
          "internalType": "address",
          "name": "",
          "type": "address"
        }
      ],
      "stateMutability": "view",
      "type": "function"
    },
    {
      "inputs": [],
      "name": "deathCount",
      "outputs": [
        {
          "internalType": "uint256",
          "name": "",
          "type": "uint256"
        }
      ],
      "stateMutability": "view",
      "type": "function"
    },
    {
      "inputs": [
        {
          "internalType": "uint256",
          "name": "",
          "type": "uint256"
        }
      ],
      "name": "patientAddresses",
      "outputs": [
        {
          "internalType": "address",
          "name": "",
          "type": "address"
        }
      ],
      "stateMutability": "view",
      "type": "function"
    },
    {
      "inputs": [],
      "name": "patientCount",
      "outputs": [
        {
          "internalType": "uint256",
          "name": "",
          "type": "uint256"
        }
      ],
      "stateMutability": "view",
      "type": "function"
    },
    {
      "inputs": [
        {
          "internalType": "address",
          "name": "",
          "type": "address"
        }
      ],
      "name": "patients",
      "outputs": [
        {
          "internalType": "uint256",
          "name": "id",
          "type": "uint256"
        },
        {
          "internalType": "address",
          "name": "patientAddress",
          "type": "address"
        },
        {
          "internalType": "string",
          "name": "name",
          "type": "string"
        },
        {
          "internalType": "uint256",
          "name": "age",
          "type": "uint256"
        },
        {
          "internalType": "string",
          "name": "gender",
          "type": "string"
        },
        {
          "internalType": "enum PatientManagement.VaccineStatus",
          "name": "vaccineStatus",
          "type": "uint8"
        },
        {
          "internalType": "string",
          "name": "district",
          "type": "string"
        },
        {
          "internalType": "string",
          "name": "symptomsDetails",
          "type": "string"
        },
        {
          "internalType": "bool",
          "name": "isDead",
          "type": "bool"
        },
        {
          "internalType": "bool",
          "name": "hasInfo",
          "type": "bool"
        },
        {
          "internalType": "uint256",
          "name": "deathDate",
          "type": "uint256"
        }
      ],
      "stateMutability": "view",
      "type": "function"
    },
    {
      "inputs": [],
      "name": "adminSignin",
      "outputs": [
        {
          "internalType": "bool",
          "name": "",
          "type": "bool"
        }
      ],
      "stateMutability": "view",
      "type": "function"
    },
    {
      "inputs": [],
      "name": "patientSignin",
      "outputs": [
        {
          "internalType": "bool",
          "name": "",
          "type": "bool"
        }
      ],
      "stateMutability": "view",
      "type": "function"
    },
    {
      "inputs": [
        {
          "internalType": "string",
          "name": "_name",
          "type": "string"
        },
        {
          "internalType": "uint256",
          "name": "_age",
          "type": "uint256"
        },
        {
          "internalType": "string",
          "name": "_gender",
          "type": "string"
        },
        {
          "internalType": "enum PatientManagement.VaccineStatus",
          "name": "_vaccineStatus",
          "type": "uint8"
        },
        {
          "internalType": "string",
          "name": "_district",
          "type": "string"
        },
        {
          "internalType": "string",
          "name": "_symptomsDetails",
          "type": "string"
        }
      ],
      "name": "addPatient",
      "outputs": [],
      "stateMutability": "nonpayable",
      "type": "function"
    },
    {
      "inputs": [
        {
          "internalType": "address",
          "name": "_patientAddress",
          "type": "address"
        },
        {
          "internalType": "string",
          "name": "_name",
          "type": "string"
        },
        {
          "internalType": "uint256",
          "name": "_age",
          "type": "uint256"
        },
        {
          "internalType": "string",
          "name": "_gender",
          "type": "string"
        },
        {
          "internalType": "uint256",
          "name": "_vaccineStatus",
          "type": "uint256"
        },
        {
          "internalType": "string",
          "name": "_district",
          "type": "string"
        },
        {
          "internalType": "string",
          "name": "_symptomsDetails",
          "type": "string"
        },
        {
          "internalType": "bool",
          "name": "_isDead",
          "type": "bool"
        },
        {
          "internalType": "bool",
          "name": "_hasInfo",
          "type": "bool"
        },
        {
          "internalType": "uint256",
          "name": "_deathDate",
          "type": "uint256"
        }
      ],
      "name": "updatePatient",
      "outputs": [],
      "stateMutability": "nonpayable",
      "type": "function"
    },
    {
      "inputs": [
        {
          "internalType": "string",
          "name": "_patientAddressString",
          "type": "string"
        }
      ],
      "name": "deletePatient",
      "outputs": [],
      "stateMutability": "nonpayable",
      "type": "function"
    },
    {
      "inputs": [],
      "name": "getAllPatientAddresses",
      "outputs": [
        {
          "internalType": "address[]",
          "name": "",
          "type": "address[]"
        }
      ],
      "stateMutability": "view",
      "type": "function"
    },
    {
      "inputs": [],
      "name": "getAllPatients",
      "outputs": [
        {
          "components": [
            {
              "internalType": "uint256",
              "name": "id",
              "type": "uint256"
            },
            {
              "internalType": "address",
              "name": "patientAddress",
              "type": "address"
            },
            {
              "internalType": "string",
              "name": "name",
              "type": "string"
            },
            {
              "internalType": "uint256",
              "name": "age",
              "type": "uint256"
            },
            {
              "internalType": "string",
              "name": "gender",
              "type": "string"
            },
            {
              "internalType": "enum PatientManagement.VaccineStatus",
              "name": "vaccineStatus",
              "type": "uint8"
            },
            {
              "internalType": "string",
              "name": "district",
              "type": "string"
            },
            {
              "internalType": "string",
              "name": "symptomsDetails",
              "type": "string"
            },
            {
              "internalType": "bool",
              "name": "isDead",
              "type": "bool"
            },
            {
              "internalType": "bool",
              "name": "hasInfo",
              "type": "bool"
            },
            {
              "internalType": "uint256",
              "name": "deathDate",
              "type": "uint256"
            }
          ],
          "internalType": "struct PatientManagement.Patient[]",
          "name": "",
          "type": "tuple[]"
        }
      ],
      "stateMutability": "view",
      "type": "function"
    },
    {
      "inputs": [],
      "name": "averageDeathRate",
      "outputs": [
        {
          "internalType": "string",
          "name": "",
          "type": "string"
        }
      ],
      "stateMutability": "view",
      "type": "function"
    },
    {
      "inputs": [],
      "name": "getDistrictWithMostPatients",
      "outputs": [
        {
          "internalType": "string",
          "name": "",
          "type": "string"
        }
      ],
      "stateMutability": "view",
      "type": "function"
    },
    {
      "inputs": [
        {
          "internalType": "uint256",
          "name": "decimalPlaces",
          "type": "uint256"
        },
        {
          "internalType": "uint256",
          "name": "numerator",
          "type": "uint256"
        },
        {
          "internalType": "uint256",
          "name": "denominator",
          "type": "uint256"
        }
      ],
      "name": "division",
      "outputs": [
        {
          "internalType": "string",
          "name": "result",
          "type": "string"
        }
      ],
      "stateMutability": "pure",
      "type": "function"
    },
    {
      "inputs": [],
      "name": "agePercentages",
      "outputs": [
        {
          "internalType": "string",
          "name": "",
          "type": "string"
        }
      ],
      "stateMutability": "view",
      "type": "function"
    }
  ],
  "bytecode": "0x608060405234801561000f575f80fd5b50335f806101000a81548173ffffffffffffffffffffffffffffffffffffffff021916908373ffffffffffffffffffffffffffffffffffffffff1602179055506135658061005c5f395ff3fe608060405234801561000f575f80fd5b50600436106100fe575f3560e01c8063968d807811610095578063b652807c11610064578063b652807c146102a8578063c9076c9b146102c4578063dd89ed55146102e0578063f851a440146102fe576100fe565b8063968d80781461021e578063a0303c411461023c578063b40621a41461025a578063b40f169114610278576100fe565b80634c9d6881116100d15780634c9d6881146101a65780636d19770d146101c457806375c5a122146101e257806392be3e6514610200576100fe565b80630869cfbc1461010257806317557a9f1461013c57806318a231a9146101585780632336b59114610176575b5f80fd5b61011c60048036038101906101179190611f27565b61031c565b6040516101339b9a99989796959493929190612090565b60405180910390f35b610156600480360381019061015191906122ce565b6105ce565b005b610160610907565b60405161016d9190612607565b60405180910390f35b610190600480360381019061018b9190612627565b610dde565b60405161019d9190612677565b60405180910390f35b6101ae610ea2565b6040516101bb9190612697565b60405180910390f35b6101cc610eeb565b6040516101d99190612677565b60405180910390f35b6101ea610f7b565b6040516101f791906126b0565b60405180910390f35b610208610f81565b6040516102159190612771565b60405180910390f35b61022661100c565b6040516102339190612697565b60405180910390f35b610244611061565b60405161025191906126b0565b60405180910390f35b610262611067565b60405161026f9190612677565b60405180910390f35b610292600480360381019061028d9190612791565b611329565b60405161029f91906127bc565b60405180910390f35b6102c260048036038101906102bd91906127ff565b611364565b005b6102de60048036038101906102d99190612948565b611677565b005b6102e86119c8565b6040516102f59190612677565b60405180910390f35b610306611ba7565b60405161031391906127bc565b60405180910390f35b6001602052805f5260405f205f91509050805f015490806001015f9054906101000a900473ffffffffffffffffffffffffffffffffffffffff1690806002018054610366906129bc565b80601f0160208091040260200160405190810160405280929190818152602001828054610392906129bc565b80156103dd5780601f106103b4576101008083540402835291602001916103dd565b820191905f5260205f20905b8154815290600101906020018083116103c057829003601f168201915b5050505050908060030154908060040180546103f8906129bc565b80601f0160208091040260200160405190810160405280929190818152602001828054610424906129bc565b801561046f5780601f106104465761010080835404028352916020019161046f565b820191905f5260205f20905b81548152906001019060200180831161045257829003601f168201915b505050505090806005015f9054906101000a900460ff1690806006018054610496906129bc565b80601f01602080910402602001604051908101604052809291908181526020018280546104c2906129bc565b801561050d5780601f106104e45761010080835404028352916020019161050d565b820191905f5260205f20905b8154815290600101906020018083116104f057829003601f168201915b505050505090806007018054610522906129bc565b80601f016020809104026020016040519081016040528092919081815260200182805461054e906129bc565b80156105995780601f1061057057610100808354040283529160200191610599565b820191905f5260205f20905b81548152906001019060200180831161057c57829003601f168201915b505050505090806008015f9054906101000a900460ff16908060080160019054906101000a900460ff1690806009015490508b565b5f865111610611576040517f08c379a000000000000000000000000000000000000000000000000000000000815260040161060890612a36565b60405180910390fd5b60025f81548092919061062390612a81565b919050555060405180610160016040528060025481526020013373ffffffffffffffffffffffffffffffffffffffff16815260200187815260200186815260200185815260200184600281111561067d5761067c612003565b5b81526020018381526020018281526020015f151581526020016001151581526020015f81525060015f3373ffffffffffffffffffffffffffffffffffffffff1673ffffffffffffffffffffffffffffffffffffffff1681526020019081526020015f205f820151815f01556020820151816001015f6101000a81548173ffffffffffffffffffffffffffffffffffffffff021916908373ffffffffffffffffffffffffffffffffffffffff16021790555060408201518160020190816107439190612c65565b506060820151816003015560808201518160040190816107639190612c65565b5060a0820151816005015f6101000a81548160ff0219169083600281111561078e5761078d612003565b5b021790555060c08201518160060190816107a89190612c65565b5060e08201518160070190816107be9190612c65565b50610100820151816008015f6101000a81548160ff0219169083151502179055506101208201518160080160016101000a81548160ff0219169083151502179055506101408201518160090155905050600433908060018154018082558091505060019003905f5260205f20015f9091909190916101000a81548173ffffffffffffffffffffffffffffffffffffffff021916908373ffffffffffffffffffffffffffffffffffffffff16021790555060058260405161087e9190612d6e565b90815260200160405180910390205f81548092919061089c90612a81565b91905055506007546005836040516108b49190612d6e565b90815260200160405180910390205411156108ff576005826040516108d99190612d6e565b90815260200160405180910390205460078190555081600690816108fd9190612c65565b505b505050505050565b60605f8054906101000a900473ffffffffffffffffffffffffffffffffffffffff1673ffffffffffffffffffffffffffffffffffffffff163373ffffffffffffffffffffffffffffffffffffffff1614610996576040517f08c379a000000000000000000000000000000000000000000000000000000000815260040161098d90612df4565b60405180910390fd5b5f60025467ffffffffffffffff8111156109b3576109b261215d565b5b6040519080825280602002602001820160405280156109ec57816020015b6109d9611de5565b8152602001906001900390816109d15790505b5090505f5b600254811015610dd6575f60048281548110610a1057610a0f612e12565b5b905f5260205f20015f9054906101000a900473ffffffffffffffffffffffffffffffffffffffff16905060015f8273ffffffffffffffffffffffffffffffffffffffff1673ffffffffffffffffffffffffffffffffffffffff1681526020019081526020015f20604051806101600160405290815f8201548152602001600182015f9054906101000a900473ffffffffffffffffffffffffffffffffffffffff1673ffffffffffffffffffffffffffffffffffffffff1673ffffffffffffffffffffffffffffffffffffffff168152602001600282018054610af1906129bc565b80601f0160208091040260200160405190810160405280929190818152602001828054610b1d906129bc565b8015610b685780601f10610b3f57610100808354040283529160200191610b68565b820191905f5260205f20905b815481529060010190602001808311610b4b57829003601f168201915b5050505050815260200160038201548152602001600482018054610b8b906129bc565b80601f0160208091040260200160405190810160405280929190818152602001828054610bb7906129bc565b8015610c025780601f10610bd957610100808354040283529160200191610c02565b820191905f5260205f20905b815481529060010190602001808311610be557829003601f168201915b50505050508152602001600582015f9054906101000a900460ff166002811115610c2f57610c2e612003565b5b6002811115610c4157610c40612003565b5b8152602001600682018054610c55906129bc565b80601f0160208091040260200160405190810160405280929190818152602001828054610c81906129bc565b8015610ccc5780601f10610ca357610100808354040283529160200191610ccc565b820191905f5260205f20905b815481529060010190602001808311610caf57829003601f168201915b50505050508152602001600782018054610ce5906129bc565b80601f0160208091040260200160405190810160405280929190818152602001828054610d11906129bc565b8015610d5c5780601f10610d3357610100808354040283529160200191610d5c565b820191905f5260205f20905b815481529060010190602001808311610d3f57829003601f168201915b50505050508152602001600882015f9054906101000a900460ff161515151581526020016008820160019054906101000a900460ff16151515158152602001600982015481525050838381518110610db757610db6612e12565b5b6020026020010181905250508080610dce90612a81565b9150506109f1565b508091505090565b60605f805f86600a610df09190612f6e565b90508486610dfe9190612fe5565b92505f85868389610e0f9190613015565b610e199190613056565b6002610e259190613015565b1015905081868389610e379190613015565b610e419190612fe5565b610e4b9190613056565b92508015610e6357600183610e609190613086565b92505b610e6c84611bca565b610e7584611bca565b604051602001610e86929190613103565b6040516020818303038152906040529450505050509392505050565b5f8060015f3373ffffffffffffffffffffffffffffffffffffffff1673ffffffffffffffffffffffffffffffffffffffff1681526020019081526020015f205f01541415905090565b606060068054610efa906129bc565b80601f0160208091040260200160405190810160405280929190818152602001828054610f26906129bc565b8015610f715780601f10610f4857610100808354040283529160200191610f71565b820191905f5260205f20905b815481529060010190602001808311610f5457829003601f168201915b5050505050905090565b60035481565b6060600480548060200260200160405190810160405280929190818152602001828054801561100257602002820191905f5260205f20905b815f9054906101000a900473ffffffffffffffffffffffffffffffffffffffff1673ffffffffffffffffffffffffffffffffffffffff1681526020019060010190808311610fb9575b5050505050905090565b5f805f9054906101000a900473ffffffffffffffffffffffffffffffffffffffff1673ffffffffffffffffffffffffffffffffffffffff163373ffffffffffffffffffffffffffffffffffffffff1614905090565b60025481565b60605f60035411156112ed575f805f805b6004805490508110156112ca5760015f6004838154811061109c5761109b612e12565b5b905f5260205f20015f9054906101000a900473ffffffffffffffffffffffffffffffffffffffff1673ffffffffffffffffffffffffffffffffffffffff1673ffffffffffffffffffffffffffffffffffffffff1681526020019081526020015f206008015f9054906101000a900460ff16801561119357505f60015f6004848154811061112c5761112b612e12565b5b905f5260205f20015f9054906101000a900473ffffffffffffffffffffffffffffffffffffffff1673ffffffffffffffffffffffffffffffffffffffff1673ffffffffffffffffffffffffffffffffffffffff1681526020019081526020015f2060090154115b156112b7578160015f600484815481106111b0576111af612e12565b5b905f5260205f20015f9054906101000a900473ffffffffffffffffffffffffffffffffffffffff1673ffffffffffffffffffffffffffffffffffffffff1673ffffffffffffffffffffffffffffffffffffffff1681526020019081526020015f2060090154146112a8576001846112279190613086565b935060015f600483815481106112405761123f612e12565b5b905f5260205f20015f9054906101000a900473ffffffffffffffffffffffffffffffffffffffff1673ffffffffffffffffffffffffffffffffffffffff1673ffffffffffffffffffffffffffffffffffffffff1681526020019081526020015f206009015491505b82806112b390612a81565b9350505b80806112c290612a81565b915050611078565b505f8211156112e9576112df60028385610dde565b9350505050611326565b5050505b6040518060400160405280600181526020017f300000000000000000000000000000000000000000000000000000000000000081525090505b90565b60048181548110611338575f80fd5b905f5260205f20015f915054906101000a900473ffffffffffffffffffffffffffffffffffffffff1681565b5f8054906101000a900473ffffffffffffffffffffffffffffffffffffffff1673ffffffffffffffffffffffffffffffffffffffff163373ffffffffffffffffffffffffffffffffffffffff16146113f1576040517f08c379a00000000000000000000000000000000000000000000000000000000081526004016113e890612df4565b60405180910390fd5b5f60015f8c73ffffffffffffffffffffffffffffffffffffffff1673ffffffffffffffffffffffffffffffffffffffff1681526020019081526020015f205f015403611472576040517f08c379a00000000000000000000000000000000000000000000000000000000081526004016114699061317b565b60405180910390fd5b5f60015f8c73ffffffffffffffffffffffffffffffffffffffff1673ffffffffffffffffffffffffffffffffffffffff1681526020019081526020015f209050898160020190816114c39190612c65565b50888160030181905550878160040190816114de9190612c65565b508660028111156114f2576114f1612003565b5b816005015f6101000a81548160ff0219169083600281111561151757611516612003565b5b02179055508581600601908161152d9190612c65565b508481600701908161153f9190612c65565b5083816008015f6101000a81548160ff021916908315150217905550828160080160016101000a81548160ff0219169083151502179055508181600901819055505f82118015611593575060011515841515145b1561166a5760035f8154809291906115aa90612a81565b91905055507f407fc563a89fd34ca24a71d737f97596d78a90d3a1e9c2a8bd37285b1a89e5876115d8611067565b6040516115e59190612677565b60405180910390a17f954a212bdbbeea1018df1ac1e39d60a664fff76aa092fad23faed6237da3122a6116166119c8565b6040516116239190612677565b60405180910390a17fd9f7619ad7d2d45abc2eefcfdb730f1e7c1755d2c4de695316c695e63752133a611654610eeb565b6040516116619190612677565b60405180910390a15b5050505050505050505050565b5f8054906101000a900473ffffffffffffffffffffffffffffffffffffffff1673ffffffffffffffffffffffffffffffffffffffff163373ffffffffffffffffffffffffffffffffffffffff1614611704576040517f08c379a00000000000000000000000000000000000000000000000000000000081526004016116fb90612df4565b60405180910390fd5b5f8161170f906131f1565b60601c905060015f8273ffffffffffffffffffffffffffffffffffffffff1673ffffffffffffffffffffffffffffffffffffffff1681526020019081526020015f205f8082015f9055600182015f6101000a81549073ffffffffffffffffffffffffffffffffffffffff0219169055600282015f61178d9190611e64565b600382015f9055600482015f6117a39190611e64565b600582015f6101000a81549060ff0219169055600682015f6117c59190611e64565b600782015f6117d49190611e64565b600882015f6101000a81549060ff02191690556008820160016101000a81549060ff0219169055600982015f905550505f5b6004805490508110156119ac578173ffffffffffffffffffffffffffffffffffffffff166004828154811061183e5761183d612e12565b5b905f5260205f20015f9054906101000a900473ffffffffffffffffffffffffffffffffffffffff1673ffffffffffffffffffffffffffffffffffffffff1603611999575f8190505b60016004805490506118989190613257565b8110156119535760046001836118ae9190613086565b815481106118bf576118be612e12565b5b905f5260205f20015f9054906101000a900473ffffffffffffffffffffffffffffffffffffffff16600483815481106118fb576118fa612e12565b5b905f5260205f20015f6101000a81548173ffffffffffffffffffffffffffffffffffffffff021916908373ffffffffffffffffffffffffffffffffffffffff160217905550808061194b90612a81565b915050611886565b5060048054806119665761196561328a565b5b600190038181905f5260205f20015f6101000a81549073ffffffffffffffffffffffffffffffffffffffff021916905590555b80806119a490612a81565b915050611806565b5060025f8154809291906119bf906132b7565b91905055505050565b60605f805f805f5b600480549050811015611af8575f60015f600484815481106119f5576119f4612e12565b5b905f5260205f20015f9054906101000a900473ffffffffffffffffffffffffffffffffffffffff1673ffffffffffffffffffffffffffffffffffffffff1673ffffffffffffffffffffffffffffffffffffffff1681526020019081526020015f20600301549050600d811015611a78578580611a7090612a81565b965050611ae4565b600d8110158015611a895750601481105b15611aa1578480611a9990612a81565b955050611ae3565b60148110158015611ab25750603281105b15611aca578380611ac290612a81565b945050611ae2565b60328110611ae1578280611add90612a81565b9350505b5b5b5b508080611af090612a81565b9150506119d0565b505f60048054905090505f611b1b6002606488611b159190613015565b84610dde565b90505f611b366002606488611b309190613015565b85610dde565b90505f611b516002606488611b4b9190613015565b86610dde565b90505f611b6c6002606488611b669190613015565b87610dde565b90505f84848484604051602001611b86949392919061349a565b6040516020818303038152906040529050809a505050505050505050505090565b5f8054906101000a900473ffffffffffffffffffffffffffffffffffffffff1681565b60605f6001611bd884611c94565b0190505f8167ffffffffffffffff811115611bf657611bf561215d565b5b6040519080825280601f01601f191660200182016040528015611c285781602001600182028036833780820191505090505b5090505f82602001820190505b600115611c89578080600190039150507f3031323334353637383961626364656600000000000000000000000000000000600a86061a8153600a8581611c7e57611c7d612fb8565b5b0494505f8503611c35575b819350505050919050565b5f805f90507a184f03e93ff9f4daa797ed6e38ed64bf6a1f0100000000000000008310611cf0577a184f03e93ff9f4daa797ed6e38ed64bf6a1f0100000000000000008381611ce657611ce5612fb8565b5b0492506040810190505b6d04ee2d6d415b85acef81000000008310611d2d576d04ee2d6d415b85acef81000000008381611d2357611d22612fb8565b5b0492506020810190505b662386f26fc100008310611d5c57662386f26fc100008381611d5257611d51612fb8565b5b0492506010810190505b6305f5e1008310611d85576305f5e1008381611d7b57611d7a612fb8565b5b0492506008810190505b6127108310611daa576127108381611da057611d9f612fb8565b5b0492506004810190505b60648310611dcd5760648381611dc357611dc2612fb8565b5b0492506002810190505b600a8310611ddc576001810190505b80915050919050565b6040518061016001604052805f81526020015f73ffffffffffffffffffffffffffffffffffffffff168152602001606081526020015f8152602001606081526020015f6002811115611e3a57611e39612003565b5b815260200160608152602001606081526020015f151581526020015f151581526020015f81525090565b508054611e70906129bc565b5f825580601f10611e815750611e9e565b601f0160209004905f5260205f2090810190611e9d9190611ea1565b5b50565b5b80821115611eb8575f815f905550600101611ea2565b5090565b5f604051905090565b5f80fd5b5f80fd5b5f73ffffffffffffffffffffffffffffffffffffffff82169050919050565b5f611ef682611ecd565b9050919050565b611f0681611eec565b8114611f10575f80fd5b50565b5f81359050611f2181611efd565b92915050565b5f60208284031215611f3c57611f3b611ec5565b5b5f611f4984828501611f13565b91505092915050565b5f819050919050565b611f6481611f52565b82525050565b611f7381611eec565b82525050565b5f81519050919050565b5f82825260208201905092915050565b5f5b83811015611fb0578082015181840152602081019050611f95565b5f8484015250505050565b5f601f19601f8301169050919050565b5f611fd582611f79565b611fdf8185611f83565b9350611fef818560208601611f93565b611ff881611fbb565b840191505092915050565b7f4e487b71000000000000000000000000000000000000000000000000000000005f52602160045260245ffd5b6003811061204157612040612003565b5b50565b5f81905061205182612030565b919050565b5f61206082612044565b9050919050565b61207081612056565b82525050565b5f8115159050919050565b61208a81612076565b82525050565b5f610160820190506120a45f83018e611f5b565b6120b1602083018d611f6a565b81810360408301526120c3818c611fcb565b90506120d2606083018b611f5b565b81810360808301526120e4818a611fcb565b90506120f360a0830189612067565b81810360c08301526121058188611fcb565b905081810360e08301526121198187611fcb565b9050612129610100830186612081565b612137610120830185612081565b612145610140830184611f5b565b9c9b505050505050505050505050565b5f80fd5b5f80fd5b7f4e487b71000000000000000000000000000000000000000000000000000000005f52604160045260245ffd5b61219382611fbb565b810181811067ffffffffffffffff821117156121b2576121b161215d565b5b80604052505050565b5f6121c4611ebc565b90506121d0828261218a565b919050565b5f67ffffffffffffffff8211156121ef576121ee61215d565b5b6121f882611fbb565b9050602081019050919050565b828183375f83830152505050565b5f612225612220846121d5565b6121bb565b90508281526020810184848401111561224157612240612159565b5b61224c848285612205565b509392505050565b5f82601f83011261226857612267612155565b5b8135612278848260208601612213565b91505092915050565b61228a81611f52565b8114612294575f80fd5b50565b5f813590506122a581612281565b92915050565b600381106122b7575f80fd5b50565b5f813590506122c8816122ab565b92915050565b5f805f805f8060c087890312156122e8576122e7611ec5565b5b5f87013567ffffffffffffffff81111561230557612304611ec9565b5b61231189828a01612254565b965050602061232289828a01612297565b955050604087013567ffffffffffffffff81111561234357612342611ec9565b5b61234f89828a01612254565b945050606061236089828a016122ba565b935050608087013567ffffffffffffffff81111561238157612380611ec9565b5b61238d89828a01612254565b92505060a087013567ffffffffffffffff8111156123ae576123ad611ec9565b5b6123ba89828a01612254565b9150509295509295509295565b5f81519050919050565b5f82825260208201905092915050565b5f819050602082019050919050565b6123f981611f52565b82525050565b61240881611eec565b82525050565b5f82825260208201905092915050565b5f61242882611f79565b612432818561240e565b9350612442818560208601611f93565b61244b81611fbb565b840191505092915050565b61245f81612056565b82525050565b61246e81612076565b82525050565b5f61016083015f83015161248a5f8601826123f0565b50602083015161249d60208601826123ff565b50604083015184820360408601526124b5828261241e565b91505060608301516124ca60608601826123f0565b50608083015184820360808601526124e2828261241e565b91505060a08301516124f760a0860182612456565b5060c083015184820360c086015261250f828261241e565b91505060e083015184820360e0860152612529828261241e565b915050610100830151612540610100860182612465565b50610120830151612555610120860182612465565b5061014083015161256a6101408601826123f0565b508091505092915050565b5f6125808383612474565b905092915050565b5f602082019050919050565b5f61259e826123c7565b6125a881856123d1565b9350836020820285016125ba856123e1565b805f5b858110156125f557848403895281516125d68582612575565b94506125e183612588565b925060208a019950506001810190506125bd565b50829750879550505050505092915050565b5f6020820190508181035f83015261261f8184612594565b905092915050565b5f805f6060848603121561263e5761263d611ec5565b5b5f61264b86828701612297565b935050602061265c86828701612297565b925050604061266d86828701612297565b9150509250925092565b5f6020820190508181035f83015261268f8184611fcb565b905092915050565b5f6020820190506126aa5f830184612081565b92915050565b5f6020820190506126c35f830184611f5b565b92915050565b5f81519050919050565b5f82825260208201905092915050565b5f819050602082019050919050565b5f6126fd83836123ff565b60208301905092915050565b5f602082019050919050565b5f61271f826126c9565b61272981856126d3565b9350612734836126e3565b805f5b8381101561276457815161274b88826126f2565b975061275683612709565b925050600181019050612737565b5085935050505092915050565b5f6020820190508181035f8301526127898184612715565b905092915050565b5f602082840312156127a6576127a5611ec5565b5b5f6127b384828501612297565b91505092915050565b5f6020820190506127cf5f830184611f6a565b92915050565b6127de81612076565b81146127e8575f80fd5b50565b5f813590506127f9816127d5565b92915050565b5f805f805f805f805f806101408b8d03121561281e5761281d611ec5565b5b5f61282b8d828e01611f13565b9a505060208b013567ffffffffffffffff81111561284c5761284b611ec9565b5b6128588d828e01612254565b99505060406128698d828e01612297565b98505060608b013567ffffffffffffffff81111561288a57612889611ec9565b5b6128968d828e01612254565b97505060806128a78d828e01612297565b96505060a08b013567ffffffffffffffff8111156128c8576128c7611ec9565b5b6128d48d828e01612254565b95505060c08b013567ffffffffffffffff8111156128f5576128f4611ec9565b5b6129018d828e01612254565b94505060e06129128d828e016127eb565b9350506101006129248d828e016127eb565b9250506101206129368d828e01612297565b9150509295989b9194979a5092959850565b5f6020828403121561295d5761295c611ec5565b5b5f82013567ffffffffffffffff81111561297a57612979611ec9565b5b61298684828501612254565b91505092915050565b7f4e487b71000000000000000000000000000000000000000000000000000000005f52602260045260245ffd5b5f60028204905060018216806129d357607f821691505b6020821081036129e6576129e561298f565b5b50919050565b7f4e616d65206d757374206e6f7420626520656d707479000000000000000000005f82015250565b5f612a20601683611f83565b9150612a2b826129ec565b602082019050919050565b5f6020820190508181035f830152612a4d81612a14565b9050919050565b7f4e487b71000000000000000000000000000000000000000000000000000000005f52601160045260245ffd5b5f612a8b82611f52565b91507fffffffffffffffffffffffffffffffffffffffffffffffffffffffffffffffff8203612abd57612abc612a54565b5b600182019050919050565b5f819050815f5260205f209050919050565b5f6020601f8301049050919050565b5f82821b905092915050565b5f60088302612b247fffffffffffffffffffffffffffffffffffffffffffffffffffffffffffffffff82612ae9565b612b2e8683612ae9565b95508019841693508086168417925050509392505050565b5f819050919050565b5f612b69612b64612b5f84611f52565b612b46565b611f52565b9050919050565b5f819050919050565b612b8283612b4f565b612b96612b8e82612b70565b848454612af5565b825550505050565b5f90565b612baa612b9e565b612bb5818484612b79565b505050565b5b81811015612bd857612bcd5f82612ba2565b600181019050612bbb565b5050565b601f821115612c1d57612bee81612ac8565b612bf784612ada565b81016020851015612c06578190505b612c1a612c1285612ada565b830182612bba565b50505b505050565b5f82821c905092915050565b5f612c3d5f1984600802612c22565b1980831691505092915050565b5f612c558383612c2e565b9150826002028217905092915050565b612c6e82611f79565b67ffffffffffffffff811115612c8757612c8661215d565b5b612c9182546129bc565b612c9c828285612bdc565b5f60209050601f831160018114612ccd575f8415612cbb578287015190505b612cc58582612c4a565b865550612d2c565b601f198416612cdb86612ac8565b5f5b82811015612d0257848901518255600182019150602085019450602081019050612cdd565b86831015612d1f5784890151612d1b601f891682612c2e565b8355505b6001600288020188555050505b505050505050565b5f81905092915050565b5f612d4882611f79565b612d528185612d34565b9350612d62818560208601611f93565b80840191505092915050565b5f612d798284612d3e565b915081905092915050565b7f4f6e6c792061646d696e2063616e20706572666f726d207468697320616374695f8201527f6f6e000000000000000000000000000000000000000000000000000000000000602082015250565b5f612dde602283611f83565b9150612de982612d84565b604082019050919050565b5f6020820190508181035f830152612e0b81612dd2565b9050919050565b7f4e487b71000000000000000000000000000000000000000000000000000000005f52603260045260245ffd5b5f8160011c9050919050565b5f808291508390505b6001851115612e9457808604811115612e7057612e6f612a54565b5b6001851615612e7f5780820291505b8081029050612e8d85612e3f565b9450612e54565b94509492505050565b5f82612eac5760019050612f67565b81612eb9575f9050612f67565b8160018114612ecf5760028114612ed957612f08565b6001915050612f67565b60ff841115612eeb57612eea612a54565b5b8360020a915084821115612f0257612f01612a54565b5b50612f67565b5060208310610133831016604e8410600b8410161715612f3d5782820a905083811115612f3857612f37612a54565b5b612f67565b612f4a8484846001612e4b565b92509050818404811115612f6157612f60612a54565b5b81810290505b9392505050565b5f612f7882611f52565b9150612f8383611f52565b9250612fb07fffffffffffffffffffffffffffffffffffffffffffffffffffffffffffffffff8484612e9d565b905092915050565b7f4e487b71000000000000000000000000000000000000000000000000000000005f52601260045260245ffd5b5f612fef82611f52565b9150612ffa83611f52565b92508261300a57613009612fb8565b5b828204905092915050565b5f61301f82611f52565b915061302a83611f52565b925082820261303881611f52565b9150828204841483151761304f5761304e612a54565b5b5092915050565b5f61306082611f52565b915061306b83611f52565b92508261307b5761307a612fb8565b5b828206905092915050565b5f61309082611f52565b915061309b83611f52565b92508282019050808211156130b3576130b2612a54565b5b92915050565b7f2e000000000000000000000000000000000000000000000000000000000000005f82015250565b5f6130ed600183612d34565b91506130f8826130b9565b600182019050919050565b5f61310e8285612d3e565b9150613119826130e1565b91506131258284612d3e565b91508190509392505050565b7f50617469656e74206e6f7420666f756e640000000000000000000000000000005f82015250565b5f613165601183611f83565b915061317082613131565b602082019050919050565b5f6020820190508181035f83015261319281613159565b9050919050565b5f81519050919050565b5f819050602082019050919050565b5f7fffffffffffffffffffffffffffffffffffffffff00000000000000000000000082169050919050565b5f6131e882516131b2565b80915050919050565b5f6131fb82613199565b82613205846131a3565b9050613210816131dd565b925060148210156132505761324b7fffffffffffffffffffffffffffffffffffffffff00000000000000000000000083601403600802612ae9565b831692505b5050919050565b5f61326182611f52565b915061326c83611f52565b925082820390508181111561328457613283612a54565b5b92915050565b7f4e487b71000000000000000000000000000000000000000000000000000000005f52603160045260245ffd5b5f6132c182611f52565b91505f82036132d3576132d2612a54565b5b600182039050919050565b7f4368696c6472656e3a20000000000000000000000000000000000000000000005f82015250565b5f613312600a83612d34565b915061331d826132de565b600a82019050919050565b7f20252c20000000000000000000000000000000000000000000000000000000005f82015250565b5f61335c600483612d34565b915061336782613328565b600482019050919050565b7f5465656e61676572733a200000000000000000000000000000000000000000005f82015250565b5f6133a6600b83612d34565b91506133b182613372565b600b82019050919050565b7f596f756e673a20000000000000000000000000000000000000000000000000005f82015250565b5f6133f0600783612d34565b91506133fb826133bc565b600782019050919050565b7f456c6465723a20000000000000000000000000000000000000000000000000005f82015250565b5f61343a600783612d34565b915061344582613406565b600782019050919050565b7f20250000000000000000000000000000000000000000000000000000000000005f82015250565b5f613484600283612d34565b915061348f82613450565b600282019050919050565b5f6134a482613306565b91506134b08287612d3e565b91506134bb82613350565b91506134c68261339a565b91506134d28286612d3e565b91506134dd82613350565b91506134e8826133e4565b91506134f48285612d3e565b91506134ff82613350565b915061350a8261342e565b91506135168284612d3e565b915061352182613478565b91508190509594505050505056fea264697066735822122059a55bb81061ad0f34620d50dc1e135caa9330f5282b21a99f3a3ad2753fcda164736f6c63430008140033",
  "immutableReferences": {},
  "source": "// SPDX-License-Identifier: GPL-3.0\npragma solidity >=0.7.0 <0.9.0;\nimport \"@openzeppelin/contracts/utils/Strings.sol\";\n\ncontract PatientManagement {\n    enum VaccineStatus { NotVaccinated, OneDose, TwoDose }\n\n    event AverageDeathRateChanged(string newAverageDeathRate);\n\n    event AgePercentagesChanged(string newAgePercentages);\n\n    event DistrictWithMostPatientsChanged(string newDistrictWithMostPatients);\n\n    struct Patient {\n        uint id;\n        address patientAddress;\n        string name;\n        uint age;\n        string gender;\n        VaccineStatus vaccineStatus;\n        string district;\n        string symptomsDetails;\n        bool isDead;\n        bool hasInfo;\n        uint deathDate;\n    }\n\n    address public admin;\n    mapping(address => Patient) public patients;\n    uint public patientCount;\n    uint public deathCount;\n    address[] public patientAddresses;\n\n    /////////////////// For district Calculations\n\n    mapping(string => uint) districtCounts;\n    string mostPatientsDistrict;\n    uint mostPatientsCount;\n\n    /////////////////\n\n\n\n\n    modifier onlyAdmin() {\n        require(msg.sender == admin, \"Only admin can perform this action\");\n        _;\n    }\n\n    constructor() {\n        admin = msg.sender; // The first account of Ganache becomes the admin\n    }\n\n    function adminSignin() public view returns (bool) {\n        return msg.sender == admin;\n    }\n\n    function patientSignin() public view returns (bool) {\n        return patients[msg.sender].id != 0;\n    }\n\n    function addPatient(\n    string memory _name,\n    uint _age,\n    string memory _gender,\n    VaccineStatus _vaccineStatus,\n    string memory _district,\n    string memory _symptomsDetails\n) public {\n    require(bytes(_name).length > 0, \"Name must not be empty\");\n\n    patientCount++;\n\n    patients[msg.sender] = Patient({\n        id: patientCount,\n        patientAddress: msg.sender,\n        name: _name,\n        age: _age,\n        gender: _gender,\n        vaccineStatus: _vaccineStatus,\n        district: _district,\n        symptomsDetails: _symptomsDetails,\n        isDead: false,\n        hasInfo: true,\n        deathDate: 0\n    });\n\n    patientAddresses.push(msg.sender); // Add the patient's address to the array\n    \n    // Updating district counts\n    districtCounts[_district]++;\n    \n    if (districtCounts[_district] > mostPatientsCount) {\n        mostPatientsCount = districtCounts[_district];\n        mostPatientsDistrict = _district;\n    }\n}\n\n\n    function updatePatient(\n        address _patientAddress,\n        string memory _name,\n        uint _age,\n        string memory _gender,\n        uint _vaccineStatus,\n        string memory _district,\n        string memory _symptomsDetails,\n        bool _isDead,\n        bool _hasInfo,\n        uint _deathDate\n    ) public onlyAdmin {\n        // address patientAddress = address(bytes20(bytes(_patientAddress)));\n        require(patients[_patientAddress].id != 0, \"Patient not found\");\n\n        // Update patient data in the patients mapping\n        Patient storage patient = patients[_patientAddress];\n        patient.name = _name;\n        patient.age = _age;\n        patient.gender = _gender;\n        patient.vaccineStatus = VaccineStatus(_vaccineStatus);\n        patient.district = _district;\n        patient.symptomsDetails = _symptomsDetails;\n        patient.isDead = _isDead;\n        patient.hasInfo = _hasInfo;\n        patient.deathDate = _deathDate;\n        \n        if (_deathDate > 0 && _isDead == true) {\n            deathCount++;\n            emit AverageDeathRateChanged(averageDeathRate()); \n            emit AgePercentagesChanged(agePercentages()); \n            emit DistrictWithMostPatientsChanged(getDistrictWithMostPatients()); \n        }\n\n    }\n    \n\n    function deletePatient(string memory _patientAddressString) public onlyAdmin {\n        address patientAddress = address(bytes20(bytes(_patientAddressString)));\n        // Deleting patient data from the patients mapping\n        delete patients[patientAddress];\n        // Deleting patient address from the patientAddresses array\n        for (uint i = 0; i < patientAddresses.length; i++) {\n            if (patientAddresses[i] == patientAddress) {\n                for (uint j = i; j < patientAddresses.length - 1; j++) {\n                    patientAddresses[i] = patientAddresses[i + 1];\n                }\n                patientAddresses.pop();\n            }\n        }\n            patientCount--;\n        }\n\n\n    function getAllPatientAddresses() public view returns (address[] memory) {\n        return patientAddresses;\n}\n\n    function getAllPatients() public view onlyAdmin returns (Patient[] memory) {\n    Patient[] memory allPatients = new Patient[](patientCount);\n\n    for (uint i = 0; i < patientCount; i++) {\n        address patientAddress = patientAddresses[i];\n        allPatients[i] = patients[patientAddress];\n    }\n    return allPatients; \n}\n\n/////////////////////////////Average Death Rate \n\n    function averageDeathRate() public view returns (string memory) {\n    if (deathCount > 0) {\n        uint totalDays = 0;\n        uint totalDeaths = 0;\n        uint currentDay = 0;\n\n        for (uint i = 0; i < patientAddresses.length; i++) {\n            if (patients[patientAddresses[i]].isDead && patients[patientAddresses[i]].deathDate > 0) {\n                // totalDays += (block.timestamp - patients[patientAddresses[i]].deathDate) / 1 days;\n                if (patients[patientAddresses[i]].deathDate!=currentDay){\n                    totalDays+=1;\n                    currentDay=patients[patientAddresses[i]].deathDate;\n                }\n                totalDeaths++;\n            }\n        }\n\n        if (totalDeaths > 0) {\n            return division(2,totalDeaths,totalDays);\n        }\n    }\n    return '0';\n}\n\n/////////////////////Highest patient District\n\n    function getDistrictWithMostPatients() public view returns (string memory) {\n        return mostPatientsDistrict;\n    }\n\n\n////////////////////////Age Percentages \n\n    using Strings for uint256;\n    function division(uint256 decimalPlaces, uint256 numerator, uint256 denominator) public pure returns(string memory result) {\n        uint quotient;\n        uint remainder;\n        uint256 factor = 10**decimalPlaces;\n        quotient  = numerator / denominator;\n        bool rounding = 2 * ((numerator * factor) % denominator) >= denominator;\n        remainder = (numerator * factor / denominator) % factor;\n        if (rounding) {\n            remainder += 1;\n        }\n        result = string(abi.encodePacked(quotient.toString(), '.', remainder.toString()));\n        // return result\n        return result;\n    }\n\nfunction agePercentages() public view returns (string memory) {\n    uint childrenCount = 0;\n    uint teenagersCount = 0;\n    uint youngCount = 0;\n    uint elderCount = 0;\n\n    for (uint i = 0; i < patientAddresses.length; i++) {\n        uint age = patients[patientAddresses[i]].age;\n\n        if (age < 13) {\n            childrenCount++;\n        } else if (age >= 13 && age < 20) {\n            teenagersCount++;\n        } else if (age >= 20 && age < 50) {\n            youngCount++;\n        } else if (age >= 50) {\n            elderCount++;\n        }\n    }\n\n    uint totalCount = patientAddresses.length;\n\n    string memory childrenPercentage = division(2, childrenCount*100, totalCount);\n    string memory teenagersPercentage = division(2, teenagersCount*100, totalCount);\n    string memory youngPercentage = division(2, youngCount*100, totalCount);\n    string memory elderPercentage = division(2, elderCount*100, totalCount);\n    string memory percentages = string(\n        abi.encodePacked(\n            \"Children: \", childrenPercentage, \" %, \",\n            \"Teenagers: \", teenagersPercentage, \" %, \",\n            \"Young: \", youngPercentage, \" %, \",\n            \"Elder: \", elderPercentage, \" %\"\n        )\n    );\n\n    return percentages;\n}\n\n}\n",
  "sourcePath": "/home/lycanthrope/Github/SolidityProject/contracts/PatientManagement.sol",
  "compiler": {
    "name": "solc",
    "version": "0.8.20+commit.a1b79de6.Emscripten.clang"
  },
  "schemaVersion": "3.4.16",
  "updatedAt": "2024-12-30T10:08:12.952Z",
  "devdoc": {
    "kind": "dev",
    "methods": {},
    "version": 1
  },
  "userdoc": {
    "kind": "user",
    "methods": {},
    "version": 1
  }
}