{
  "contractName": "PatientManagement",
  "abi": [
    {
      "inputs": [
        {
          "internalType": "address[]",
          "name": "initialDoctors",
          "type": "address[]"
        }
      ],
      "stateMutability": "nonpayable",
      "type": "constructor"
    },
    {
      "anonymous": false,
      "inputs": [
        {
          "indexed": false,
          "internalType": "string",
          "name": "newAgePercentages",
          "type": "string"
        }
      ],
      "name": "AgePercentagesChanged",
      "type": "event"
    },
    {
      "anonymous": false,
      "inputs": [
        {
          "indexed": true,
          "internalType": "uint256",
          "name": "id",
          "type": "uint256"
        },
        {
          "indexed": true,
          "internalType": "address",
          "name": "patient",
          "type": "address"
        },
        {
          "indexed": true,
          "internalType": "address",
          "name": "doctor",
          "type": "address"
        },
        {
          "indexed": false,
          "internalType": "uint256",
          "name": "dateTime",
          "type": "uint256"
        }
      ],
      "name": "AppointmentBooked",
      "type": "event"
    },
    {
      "anonymous": false,
      "inputs": [
        {
          "indexed": false,
          "internalType": "string",
          "name": "newAverageDeathRate",
          "type": "string"
        }
      ],
      "name": "AverageDeathRateChanged",
      "type": "event"
    },
    {
      "anonymous": false,
      "inputs": [
        {
          "indexed": false,
          "internalType": "string",
          "name": "newDistrictWithMostPatients",
          "type": "string"
        }
      ],
      "name": "DistrictWithMostPatientsChanged",
      "type": "event"
    },
    {
      "inputs": [],
      "name": "admin",
      "outputs": [
        {
          "internalType": "address",
          "name": "",
          "type": "address"
        }
      ],
      "stateMutability": "view",
      "type": "function",
      "constant": true
    },
    {
      "inputs": [
        {
          "internalType": "uint256",
          "name": "",
          "type": "uint256"
        }
      ],
      "name": "appointments",
      "outputs": [
        {
          "internalType": "uint256",
          "name": "id",
          "type": "uint256"
        },
        {
          "internalType": "address",
          "name": "patient",
          "type": "address"
        },
        {
          "internalType": "address",
          "name": "doctor",
          "type": "address"
        },
        {
          "internalType": "uint256",
          "name": "dateTime",
          "type": "uint256"
        },
        {
          "internalType": "bool",
          "name": "confirmed",
          "type": "bool"
        }
      ],
      "stateMutability": "view",
      "type": "function",
      "constant": true
    },
    {
      "inputs": [],
      "name": "deathCount",
      "outputs": [
        {
          "internalType": "uint256",
          "name": "",
          "type": "uint256"
        }
      ],
      "stateMutability": "view",
      "type": "function",
      "constant": true
    },
    {
      "inputs": [
        {
          "internalType": "address",
          "name": "",
          "type": "address"
        }
      ],
      "name": "doctors",
      "outputs": [
        {
          "internalType": "bool",
          "name": "",
          "type": "bool"
        }
      ],
      "stateMutability": "view",
      "type": "function",
      "constant": true
    },
    {
      "inputs": [],
      "name": "nextAppointmentId",
      "outputs": [
        {
          "internalType": "uint256",
          "name": "",
          "type": "uint256"
        }
      ],
      "stateMutability": "view",
      "type": "function",
      "constant": true
    },
    {
      "inputs": [
        {
          "internalType": "uint256",
          "name": "",
          "type": "uint256"
        }
      ],
      "name": "patientAddresses",
      "outputs": [
        {
          "internalType": "address",
          "name": "",
          "type": "address"
        }
      ],
      "stateMutability": "view",
      "type": "function",
      "constant": true
    },
    {
      "inputs": [],
      "name": "patientCount",
      "outputs": [
        {
          "internalType": "uint256",
          "name": "",
          "type": "uint256"
        }
      ],
      "stateMutability": "view",
      "type": "function",
      "constant": true
    },
    {
      "inputs": [
        {
          "internalType": "address",
          "name": "",
          "type": "address"
        }
      ],
      "name": "patients",
      "outputs": [
        {
          "internalType": "uint256",
          "name": "id",
          "type": "uint256"
        },
        {
          "internalType": "address",
          "name": "patientAddress",
          "type": "address"
        },
        {
          "internalType": "string",
          "name": "name",
          "type": "string"
        },
        {
          "internalType": "uint256",
          "name": "age",
          "type": "uint256"
        },
        {
          "internalType": "string",
          "name": "gender",
          "type": "string"
        },
        {
          "internalType": "enum PatientManagement.VaccineStatus",
          "name": "vaccineStatus",
          "type": "uint8"
        },
        {
          "internalType": "string",
          "name": "district",
          "type": "string"
        },
        {
          "internalType": "string",
          "name": "symptomsDetails",
          "type": "string"
        },
        {
          "internalType": "bool",
          "name": "isDead",
          "type": "bool"
        },
        {
          "internalType": "bool",
          "name": "hasInfo",
          "type": "bool"
        },
        {
          "internalType": "uint256",
          "name": "deathDate",
          "type": "uint256"
        }
      ],
      "stateMutability": "view",
      "type": "function",
      "constant": true
    },
    {
      "inputs": [],
      "name": "adminSignin",
      "outputs": [
        {
          "internalType": "bool",
          "name": "",
          "type": "bool"
        }
      ],
      "stateMutability": "view",
      "type": "function",
      "constant": true
    },
    {
      "inputs": [],
      "name": "patientSignin",
      "outputs": [
        {
          "internalType": "bool",
          "name": "",
          "type": "bool"
        }
      ],
      "stateMutability": "view",
      "type": "function",
      "constant": true
    },
    {
      "inputs": [
        {
          "internalType": "string",
          "name": "_name",
          "type": "string"
        },
        {
          "internalType": "uint256",
          "name": "_age",
          "type": "uint256"
        },
        {
          "internalType": "string",
          "name": "_gender",
          "type": "string"
        },
        {
          "internalType": "enum PatientManagement.VaccineStatus",
          "name": "_vaccineStatus",
          "type": "uint8"
        },
        {
          "internalType": "string",
          "name": "_district",
          "type": "string"
        },
        {
          "internalType": "string",
          "name": "_symptomsDetails",
          "type": "string"
        }
      ],
      "name": "addPatient",
      "outputs": [],
      "stateMutability": "nonpayable",
      "type": "function"
    },
    {
      "inputs": [
        {
          "internalType": "address",
          "name": "_patientAddress",
          "type": "address"
        },
        {
          "internalType": "string",
          "name": "_name",
          "type": "string"
        },
        {
          "internalType": "uint256",
          "name": "_age",
          "type": "uint256"
        },
        {
          "internalType": "string",
          "name": "_gender",
          "type": "string"
        },
        {
          "internalType": "uint256",
          "name": "_vaccineStatus",
          "type": "uint256"
        },
        {
          "internalType": "string",
          "name": "_district",
          "type": "string"
        },
        {
          "internalType": "string",
          "name": "_symptomsDetails",
          "type": "string"
        },
        {
          "internalType": "bool",
          "name": "_isDead",
          "type": "bool"
        },
        {
          "internalType": "bool",
          "name": "_hasInfo",
          "type": "bool"
        },
        {
          "internalType": "uint256",
          "name": "_deathDate",
          "type": "uint256"
        }
      ],
      "name": "updatePatient",
      "outputs": [],
      "stateMutability": "nonpayable",
      "type": "function"
    },
    {
      "inputs": [
        {
          "internalType": "string",
          "name": "_patientAddressString",
          "type": "string"
        }
      ],
      "name": "deletePatient",
      "outputs": [],
      "stateMutability": "nonpayable",
      "type": "function"
    },
    {
      "inputs": [],
      "name": "getAllPatientAddresses",
      "outputs": [
        {
          "internalType": "address[]",
          "name": "",
          "type": "address[]"
        }
      ],
      "stateMutability": "view",
      "type": "function",
      "constant": true
    },
    {
      "inputs": [],
      "name": "getAllPatients",
      "outputs": [
        {
          "components": [
            {
              "internalType": "uint256",
              "name": "id",
              "type": "uint256"
            },
            {
              "internalType": "address",
              "name": "patientAddress",
              "type": "address"
            },
            {
              "internalType": "string",
              "name": "name",
              "type": "string"
            },
            {
              "internalType": "uint256",
              "name": "age",
              "type": "uint256"
            },
            {
              "internalType": "string",
              "name": "gender",
              "type": "string"
            },
            {
              "internalType": "enum PatientManagement.VaccineStatus",
              "name": "vaccineStatus",
              "type": "uint8"
            },
            {
              "internalType": "string",
              "name": "district",
              "type": "string"
            },
            {
              "internalType": "string",
              "name": "symptomsDetails",
              "type": "string"
            },
            {
              "internalType": "bool",
              "name": "isDead",
              "type": "bool"
            },
            {
              "internalType": "bool",
              "name": "hasInfo",
              "type": "bool"
            },
            {
              "internalType": "uint256",
              "name": "deathDate",
              "type": "uint256"
            }
          ],
          "internalType": "struct PatientManagement.Patient[]",
          "name": "",
          "type": "tuple[]"
        }
      ],
      "stateMutability": "view",
      "type": "function",
      "constant": true
    },
    {
      "inputs": [],
      "name": "averageDeathRate",
      "outputs": [
        {
          "internalType": "string",
          "name": "",
          "type": "string"
        }
      ],
      "stateMutability": "view",
      "type": "function",
      "constant": true
    },
    {
      "inputs": [],
      "name": "getDistrictWithMostPatients",
      "outputs": [
        {
          "internalType": "string",
          "name": "",
          "type": "string"
        }
      ],
      "stateMutability": "view",
      "type": "function",
      "constant": true
    },
    {
      "inputs": [
        {
          "internalType": "uint256",
          "name": "decimalPlaces",
          "type": "uint256"
        },
        {
          "internalType": "uint256",
          "name": "numerator",
          "type": "uint256"
        },
        {
          "internalType": "uint256",
          "name": "denominator",
          "type": "uint256"
        }
      ],
      "name": "division",
      "outputs": [
        {
          "internalType": "string",
          "name": "",
          "type": "string"
        }
      ],
      "stateMutability": "pure",
      "type": "function",
      "constant": true
    },
    {
      "inputs": [],
      "name": "agePercentages",
      "outputs": [
        {
          "internalType": "string",
          "name": "",
          "type": "string"
        }
      ],
      "stateMutability": "view",
      "type": "function",
      "constant": true
    },
    {
      "inputs": [
        {
          "internalType": "address",
          "name": "doctor",
          "type": "address"
        },
        {
          "internalType": "uint256",
          "name": "dateTime",
          "type": "uint256"
        }
      ],
      "name": "bookAppointment",
      "outputs": [],
      "stateMutability": "payable",
      "type": "function",
      "payable": true
    },
    {
      "inputs": [
        {
          "internalType": "address",
          "name": "doctor",
          "type": "address"
        }
      ],
      "name": "getAppointmentsByDoctor",
      "outputs": [
        {
          "internalType": "uint256[]",
          "name": "",
          "type": "uint256[]"
        },
        {
          "internalType": "address[]",
          "name": "",
          "type": "address[]"
        },
        {
          "internalType": "uint256[]",
          "name": "",
          "type": "uint256[]"
        }
      ],
      "stateMutability": "view",
      "type": "function",
      "constant": true
    },
    {
      "inputs": [],
      "name": "getAllAppointments",
      "outputs": [
        {
          "components": [
            {
              "internalType": "uint256",
              "name": "id",
              "type": "uint256"
            },
            {
              "internalType": "address",
              "name": "patient",
              "type": "address"
            },
            {
              "internalType": "address",
              "name": "doctor",
              "type": "address"
            },
            {
              "internalType": "uint256",
              "name": "dateTime",
              "type": "uint256"
            },
            {
              "internalType": "bool",
              "name": "confirmed",
              "type": "bool"
            }
          ],
          "internalType": "struct PatientManagement.Appointment[]",
          "name": "",
          "type": "tuple[]"
        }
      ],
      "stateMutability": "view",
      "type": "function",
      "constant": true
    }
  ],
  "bytecode": "0x60806040523480156200001157600080fd5b506040516200470d3803806200470d83398181016040528101906200003791906200030c565b336000806101000a81548173ffffffffffffffffffffffffffffffffffffffff021916908373ffffffffffffffffffffffffffffffffffffffff16021790555060005b81518110156200010e5760018060008484815181106200009f576200009e6200035d565b5b602002602001015173ffffffffffffffffffffffffffffffffffffffff1673ffffffffffffffffffffffffffffffffffffffff16815260200190815260200160002060006101000a81548160ff02191690831515021790555080806200010590620003c5565b9150506200007a565b5060016009819055505062000412565b6000604051905090565b600080fd5b600080fd5b600080fd5b6000601f19601f8301169050919050565b7f4e487b7100000000000000000000000000000000000000000000000000000000600052604160045260246000fd5b620001828262000137565b810181811067ffffffffffffffff82111715620001a457620001a362000148565b5b80604052505050565b6000620001b96200011e565b9050620001c7828262000177565b919050565b600067ffffffffffffffff821115620001ea57620001e962000148565b5b602082029050602081019050919050565b600080fd5b600073ffffffffffffffffffffffffffffffffffffffff82169050919050565b60006200022d8262000200565b9050919050565b6200023f8162000220565b81146200024b57600080fd5b50565b6000815190506200025f8162000234565b92915050565b60006200027c6200027684620001cc565b620001ad565b90508083825260208201905060208402830185811115620002a257620002a1620001fb565b5b835b81811015620002cf5780620002ba88826200024e565b845260208401935050602081019050620002a4565b5050509392505050565b600082601f830112620002f157620002f062000132565b5b81516200030384826020860162000265565b91505092915050565b60006020828403121562000325576200032462000128565b5b600082015167ffffffffffffffff8111156200034657620003456200012d565b5b6200035484828501620002d9565b91505092915050565b7f4e487b7100000000000000000000000000000000000000000000000000000000600052603260045260246000fd5b7f4e487b7100000000000000000000000000000000000000000000000000000000600052601160045260246000fd5b6000819050919050565b6000620003d282620003bb565b91507fffffffffffffffffffffffffffffffffffffffffffffffffffffffffffffffff82036200040757620004066200038c565b5b600182019050919050565b6142eb80620004226000396000f3fe6080604052600436106101355760003560e01c806392be3e65116100ab578063b40f16911161006f578063b40f169114610452578063b652807c1461048f578063c9076c9b146104b8578063dd89ed55146104e1578063eef289961461050c578063f851a4401461052857610135565b806392be3e6514610369578063968d807814610394578063a0303c41146103bf578063a9583c22146103ea578063b40621a41461042757610135565b80634c9d6881116100fd5780634c9d6881146102535780635ea83bb01461027e5780636d19770d146102bd57806375c5a122146102e85780637933570c1461031357806389dcc4a21461033e57610135565b80630869cfbc1461013a57806312dc90131461018157806317557a9f146101c257806318a231a9146101eb5780632336b59114610216575b600080fd5b34801561014657600080fd5b50610161600480360381019061015c9190612b0b565b610553565b6040516101789b9a99989796959493929190612c8b565b60405180910390f35b34801561018d57600080fd5b506101a860048036038101906101a39190612d7e565b610814565b6040516101b9959493929190612dab565b60405180910390f35b3480156101ce57600080fd5b506101e960048036038101906101e49190612f58565b610897565b005b3480156101f757600080fd5b50610200610c02565b60405161020d91906132a1565b60405180910390f35b34801561022257600080fd5b5061023d600480360381019061023891906132c3565b6110ee565b60405161024a9190613316565b60405180910390f35b34801561025f57600080fd5b506102686111b1565b6040516102759190613338565b60405180910390f35b34801561028a57600080fd5b506102a560048036038101906102a09190612b0b565b6111fe565b6040516102b4939291906134b1565b60405180910390f35b3480156102c957600080fd5b506102d26115da565b6040516102df9190613316565b60405180910390f35b3480156102f457600080fd5b506102fd61166c565b60405161030a91906134fd565b60405180910390f35b34801561031f57600080fd5b50610328611672565b604051610335919061362f565b60405180910390f35b34801561034a57600080fd5b50610353611829565b60405161036091906134fd565b60405180910390f35b34801561037557600080fd5b5061037e61182f565b60405161038b9190613651565b60405180910390f35b3480156103a057600080fd5b506103a96118bd565b6040516103b69190613338565b60405180910390f35b3480156103cb57600080fd5b506103d4611914565b6040516103e191906134fd565b60405180910390f35b3480156103f657600080fd5b50610411600480360381019061040c9190612b0b565b61191a565b60405161041e9190613338565b60405180910390f35b34801561043357600080fd5b5061043c61193a565b6040516104499190613316565b60405180910390f35b34801561045e57600080fd5b5061047960048036038101906104749190612d7e565b611c16565b6040516104869190613673565b60405180910390f35b34801561049b57600080fd5b506104b660048036038101906104b191906136ba565b611c55565b005b3480156104c457600080fd5b506104df60048036038101906104da9190613809565b611f90565b005b3480156104ed57600080fd5b506104f66122ff565b6040516105039190613316565b60405180910390f35b61052660048036038101906105219190613852565b6124e7565b005b34801561053457600080fd5b5061053d61274f565b60405161054a9190613673565b60405180910390f35b60026020528060005260406000206000915090508060000154908060010160009054906101000a900473ffffffffffffffffffffffffffffffffffffffff16908060020180546105a2906138c1565b80601f01602080910402602001604051908101604052809291908181526020018280546105ce906138c1565b801561061b5780601f106105f05761010080835404028352916020019161061b565b820191906000526020600020905b8154815290600101906020018083116105fe57829003601f168201915b505050505090806003015490806004018054610636906138c1565b80601f0160208091040260200160405190810160405280929190818152602001828054610662906138c1565b80156106af5780601f10610684576101008083540402835291602001916106af565b820191906000526020600020905b81548152906001019060200180831161069257829003601f168201915b5050505050908060050160009054906101000a900460ff16908060060180546106d7906138c1565b80601f0160208091040260200160405190810160405280929190818152602001828054610703906138c1565b80156107505780601f1061072557610100808354040283529160200191610750565b820191906000526020600020905b81548152906001019060200180831161073357829003601f168201915b505050505090806007018054610765906138c1565b80601f0160208091040260200160405190810160405280929190818152602001828054610791906138c1565b80156107de5780601f106107b3576101008083540402835291602001916107de565b820191906000526020600020905b8154815290600101906020018083116107c157829003601f168201915b5050505050908060080160009054906101000a900460ff16908060080160019054906101000a900460ff1690806009015490508b565b600a6020528060005260406000206000915090508060000154908060010160009054906101000a900473ffffffffffffffffffffffffffffffffffffffff16908060020160009054906101000a900473ffffffffffffffffffffffffffffffffffffffff16908060030154908060040160009054906101000a900460ff16905085565b60008651116108db576040517f08c379a00000000000000000000000000000000000000000000000000000000081526004016108d29061393e565b60405180910390fd5b600360008154809291906108ee9061398d565b919050555060405180610160016040528060035481526020013373ffffffffffffffffffffffffffffffffffffffff16815260200187815260200186815260200185815260200184600281111561094857610947612bf9565b5b81526020018381526020018281526020016000151581526020016001151581526020016000815250600260003373ffffffffffffffffffffffffffffffffffffffff1673ffffffffffffffffffffffffffffffffffffffff1681526020019081526020016000206000820151816000015560208201518160010160006101000a81548173ffffffffffffffffffffffffffffffffffffffff021916908373ffffffffffffffffffffffffffffffffffffffff1602179055506040820151816002019080519060200190610a1c9291906128d3565b50606082015181600301556080820151816004019080519060200190610a439291906128d3565b5060a08201518160050160006101000a81548160ff02191690836002811115610a6f57610a6e612bf9565b5b021790555060c0820151816006019080519060200190610a909291906128d3565b5060e0820151816007019080519060200190610aad9291906128d3565b506101008201518160080160006101000a81548160ff0219169083151502179055506101208201518160080160016101000a81548160ff02191690831515021790555061014082015181600901559050506005339080600181540180825580915050600190039060005260206000200160009091909190916101000a81548173ffffffffffffffffffffffffffffffffffffffff021916908373ffffffffffffffffffffffffffffffffffffffff160217905550600682604051610b719190613a11565b90815260200160405180910390206000815480929190610b909061398d565b9190505550600854600683604051610ba89190613a11565b9081526020016040518091039020541115610bfa57600682604051610bcd9190613a11565b9081526020016040518091039020546008819055508160079080519060200190610bf89291906128d3565b505b505050505050565b606060008054906101000a900473ffffffffffffffffffffffffffffffffffffffff1673ffffffffffffffffffffffffffffffffffffffff163373ffffffffffffffffffffffffffffffffffffffff1614610c92576040517f08c379a0000000000000000000000000000000000000000000000000000000008152600401610c8990613a9a565b60405180910390fd5b600060035467ffffffffffffffff811115610cb057610caf612e08565b5b604051908082528060200260200182016040528015610ce957816020015b610cd6612959565b815260200190600190039081610cce5790505b50905060005b6003548110156110e657600060058281548110610d0f57610d0e613aba565b5b9060005260206000200160009054906101000a900473ffffffffffffffffffffffffffffffffffffffff169050600260008273ffffffffffffffffffffffffffffffffffffffff1673ffffffffffffffffffffffffffffffffffffffff16815260200190815260200160002060405180610160016040529081600082015481526020016001820160009054906101000a900473ffffffffffffffffffffffffffffffffffffffff1673ffffffffffffffffffffffffffffffffffffffff1673ffffffffffffffffffffffffffffffffffffffff168152602001600282018054610df7906138c1565b80601f0160208091040260200160405190810160405280929190818152602001828054610e23906138c1565b8015610e705780601f10610e4557610100808354040283529160200191610e70565b820191906000526020600020905b815481529060010190602001808311610e5357829003601f168201915b5050505050815260200160038201548152602001600482018054610e93906138c1565b80601f0160208091040260200160405190810160405280929190818152602001828054610ebf906138c1565b8015610f0c5780601f10610ee157610100808354040283529160200191610f0c565b820191906000526020600020905b815481529060010190602001808311610eef57829003601f168201915b505050505081526020016005820160009054906101000a900460ff166002811115610f3a57610f39612bf9565b5b6002811115610f4c57610f4b612bf9565b5b8152602001600682018054610f60906138c1565b80601f0160208091040260200160405190810160405280929190818152602001828054610f8c906138c1565b8015610fd95780601f10610fae57610100808354040283529160200191610fd9565b820191906000526020600020905b815481529060010190602001808311610fbc57829003601f168201915b50505050508152602001600782018054610ff2906138c1565b80601f016020809104026020016040519081016040528092919081815260200182805461101e906138c1565b801561106b5780601f106110405761010080835404028352916020019161106b565b820191906000526020600020905b81548152906001019060200180831161104e57829003601f168201915b505050505081526020016008820160009054906101000a900460ff161515151581526020016008820160019054906101000a900460ff161515151581526020016009820154815250508383815181106110c7576110c6613aba565b5b60200260200101819052505080806110de9061398d565b915050610cef565b508091505090565b6060600082846110fe9190613b18565b9050600085600a61110f9190613c7c565b8487600a61111d9190613c7c565b876111289190613cc7565b6111329190613b18565b61113c9190613d21565b9050600084858361114d9190613d21565b60026111599190613cc7565b101590508015611173576001826111709190613d52565b91505b61117c83612773565b61118583612773565b604051602001611196929190613df4565b60405160208183030381529060405293505050509392505050565b600080600260003373ffffffffffffffffffffffffffffffffffffffff1673ffffffffffffffffffffffffffffffffffffffff168152602001908152602001600020600001541415905090565b60608060606000600b60008673ffffffffffffffffffffffffffffffffffffffff1673ffffffffffffffffffffffffffffffffffffffff1681526020019081526020016000208054905067ffffffffffffffff81111561126157611260612e08565b5b60405190808252806020026020018201604052801561128f5781602001602082028036833780820191505090505b5090506000600b60008773ffffffffffffffffffffffffffffffffffffffff1673ffffffffffffffffffffffffffffffffffffffff1681526020019081526020016000208054905067ffffffffffffffff8111156112f0576112ef612e08565b5b60405190808252806020026020018201604052801561131e5781602001602082028036833780820191505090505b5090506000600b60008873ffffffffffffffffffffffffffffffffffffffff1673ffffffffffffffffffffffffffffffffffffffff1681526020019081526020016000208054905067ffffffffffffffff81111561137f5761137e612e08565b5b6040519080825280602002602001820160405280156113ad5781602001602082028036833780820191505090505b50905060005b600b60008973ffffffffffffffffffffffffffffffffffffffff1673ffffffffffffffffffffffffffffffffffffffff1681526020019081526020016000208054905081101561153d576000600a6000600b60008c73ffffffffffffffffffffffffffffffffffffffff1673ffffffffffffffffffffffffffffffffffffffff168152602001908152602001600020848154811061145457611453613aba565b5b906000526020600020015481526020019081526020016000209050806000015485838151811061148757611486613aba565b5b6020026020010181815250508060010160009054906101000a900473ffffffffffffffffffffffffffffffffffffffff168483815181106114cb576114ca613aba565b5b602002602001019073ffffffffffffffffffffffffffffffffffffffff16908173ffffffffffffffffffffffffffffffffffffffff1681525050806003015483838151811061151d5761151c613aba565b5b6020026020010181815250505080806115359061398d565b9150506113b3565b5082600582818054806020026020016040519081016040528092919081815260200182805480156115c357602002820191906000526020600020905b8160009054906101000a900473ffffffffffffffffffffffffffffffffffffffff1673ffffffffffffffffffffffffffffffffffffffff1681526020019060010190808311611579575b505050505091509550955095505050509193909250565b6060600780546115e9906138c1565b80601f0160208091040260200160405190810160405280929190818152602001828054611615906138c1565b80156116625780601f1061163757610100808354040283529160200191611662565b820191906000526020600020905b81548152906001019060200180831161164557829003601f168201915b5050505050905090565b60045481565b6060600060016009546116859190613e23565b67ffffffffffffffff81111561169e5761169d612e08565b5b6040519080825280602002602001820160405280156116d757816020015b6116c46129df565b8152602001906001900390816116bc5790505b5090506000600190505b60095481101561182157600a60008281526020019081526020016000206040518060a0016040529081600082015481526020016001820160009054906101000a900473ffffffffffffffffffffffffffffffffffffffff1673ffffffffffffffffffffffffffffffffffffffff1673ffffffffffffffffffffffffffffffffffffffff1681526020016002820160009054906101000a900473ffffffffffffffffffffffffffffffffffffffff1673ffffffffffffffffffffffffffffffffffffffff1673ffffffffffffffffffffffffffffffffffffffff168152602001600382015481526020016004820160009054906101000a900460ff161515151581525050826001836117f29190613e23565b8151811061180357611802613aba565b5b602002602001018190525080806118199061398d565b9150506116e1565b508091505090565b60095481565b606060058054806020026020016040519081016040528092919081815260200182805480156118b357602002820191906000526020600020905b8160009054906101000a900473ffffffffffffffffffffffffffffffffffffffff1673ffffffffffffffffffffffffffffffffffffffff1681526020019060010190808311611869575b5050505050905090565b60008060009054906101000a900473ffffffffffffffffffffffffffffffffffffffff1673ffffffffffffffffffffffffffffffffffffffff163373ffffffffffffffffffffffffffffffffffffffff1614905090565b60035481565b60016020528060005260406000206000915054906101000a900460ff1681565b606060006004541115611bda576000806000805b600580549050811015611bb657600260006005838154811061197357611972613aba565b5b9060005260206000200160009054906101000a900473ffffffffffffffffffffffffffffffffffffffff1673ffffffffffffffffffffffffffffffffffffffff1673ffffffffffffffffffffffffffffffffffffffff16815260200190815260200160002060080160009054906101000a900460ff168015611a75575060006002600060058481548110611a0a57611a09613aba565b5b9060005260206000200160009054906101000a900473ffffffffffffffffffffffffffffffffffffffff1673ffffffffffffffffffffffffffffffffffffffff1673ffffffffffffffffffffffffffffffffffffffff16815260200190815260200160002060090154115b15611ba357816002600060058481548110611a9357611a92613aba565b5b9060005260206000200160009054906101000a900473ffffffffffffffffffffffffffffffffffffffff1673ffffffffffffffffffffffffffffffffffffffff1673ffffffffffffffffffffffffffffffffffffffff1681526020019081526020016000206009015414611b9457600184611b0e9190613d52565b93506002600060058381548110611b2857611b27613aba565b5b9060005260206000200160009054906101000a900473ffffffffffffffffffffffffffffffffffffffff1673ffffffffffffffffffffffffffffffffffffffff1673ffffffffffffffffffffffffffffffffffffffff1681526020019081526020016000206009015491505b8280611b9f9061398d565b9350505b8080611bae9061398d565b91505061194e565b506000821115611bd657611bcc600283856110ee565b9350505050611c13565b5050505b6040518060400160405280600181526020017f300000000000000000000000000000000000000000000000000000000000000081525090505b90565b60058181548110611c2657600080fd5b906000526020600020016000915054906101000a900473ffffffffffffffffffffffffffffffffffffffff1681565b60008054906101000a900473ffffffffffffffffffffffffffffffffffffffff1673ffffffffffffffffffffffffffffffffffffffff163373ffffffffffffffffffffffffffffffffffffffff1614611ce3576040517f08c379a0000000000000000000000000000000000000000000000000000000008152600401611cda90613a9a565b60405180910390fd5b6000600260008c73ffffffffffffffffffffffffffffffffffffffff1673ffffffffffffffffffffffffffffffffffffffff1681526020019081526020016000206000015403611d68576040517f08c379a0000000000000000000000000000000000000000000000000000000008152600401611d5f90613ea3565b60405180910390fd5b6000600260008c73ffffffffffffffffffffffffffffffffffffffff1673ffffffffffffffffffffffffffffffffffffffff168152602001908152602001600020905089816002019080519060200190611dc39291906128d3565b5088816003018190555087816004019080519060200190611de59291906128d3565b50866002811115611df957611df8612bf9565b5b8160050160006101000a81548160ff02191690836002811115611e1f57611e1e612bf9565b5b021790555085816006019080519060200190611e3c9291906128d3565b5084816007019080519060200190611e559291906128d3565b50838160080160006101000a81548160ff021916908315150217905550828160080160016101000a81548160ff021916908315150217905550818160090181905550600082118015611eab575060011515841515145b15611f835760046000815480929190611ec39061398d565b91905055507f407fc563a89fd34ca24a71d737f97596d78a90d3a1e9c2a8bd37285b1a89e587611ef161193a565b604051611efe9190613316565b60405180910390a17f954a212bdbbeea1018df1ac1e39d60a664fff76aa092fad23faed6237da3122a611f2f6122ff565b604051611f3c9190613316565b60405180910390a17fd9f7619ad7d2d45abc2eefcfdb730f1e7c1755d2c4de695316c695e63752133a611f6d6115da565b604051611f7a9190613316565b60405180910390a15b5050505050505050505050565b60008054906101000a900473ffffffffffffffffffffffffffffffffffffffff1673ffffffffffffffffffffffffffffffffffffffff163373ffffffffffffffffffffffffffffffffffffffff161461201e576040517f08c379a000000000000000000000000000000000000000000000000000000000815260040161201590613a9a565b60405180910390fd5b60008161202a90613f2c565b60601c9050600260008273ffffffffffffffffffffffffffffffffffffffff1673ffffffffffffffffffffffffffffffffffffffff1681526020019081526020016000206000808201600090556001820160006101000a81549073ffffffffffffffffffffffffffffffffffffffff02191690556002820160006120ae9190612a3c565b60038201600090556004820160006120c69190612a3c565b6005820160006101000a81549060ff02191690556006820160006120ea9190612a3c565b6007820160006120fa9190612a3c565b6008820160006101000a81549060ff02191690556008820160016101000a81549060ff02191690556009820160009055505060005b6005805490508110156122e2578173ffffffffffffffffffffffffffffffffffffffff166005828154811061216757612166613aba565b5b9060005260206000200160009054906101000a900473ffffffffffffffffffffffffffffffffffffffff1673ffffffffffffffffffffffffffffffffffffffff16036122cf5760008190505b60016005805490506121c59190613e23565b8110156122865760056001836121db9190613d52565b815481106121ec576121eb613aba565b5b9060005260206000200160009054906101000a900473ffffffffffffffffffffffffffffffffffffffff166005838154811061222b5761222a613aba565b5b9060005260206000200160006101000a81548173ffffffffffffffffffffffffffffffffffffffff021916908373ffffffffffffffffffffffffffffffffffffffff160217905550808061227e9061398d565b9150506121b3565b50600580548061229957612298613f93565b5b6001900381819060005260206000200160006101000a81549073ffffffffffffffffffffffffffffffffffffffff021916905590555b80806122da9061398d565b91505061212f565b50600360008154809291906122f690613fc2565b91905055505050565b606060008060008060005b600580549050811015612438576000600260006005848154811061233157612330613aba565b5b9060005260206000200160009054906101000a900473ffffffffffffffffffffffffffffffffffffffff1673ffffffffffffffffffffffffffffffffffffffff1673ffffffffffffffffffffffffffffffffffffffff168152602001908152602001600020600301549050600d8110156123b85785806123b09061398d565b965050612424565b600d81101580156123c95750601481105b156123e15784806123d99061398d565b955050612423565b601481101580156123f25750603281105b1561240a5783806124029061398d565b945050612422565b6032811061242157828061241d9061398d565b9350505b5b5b5b5080806124309061398d565b91505061230a565b5060006005805490509050600061245d60026064886124579190613cc7565b846110ee565b9050600061247960026064886124739190613cc7565b856110ee565b90506000612495600260648861248f9190613cc7565b866110ee565b905060006124b160026064886124ab9190613cc7565b876110ee565b9050838383836040516020016124ca94939291906141b3565b604051602081830303815290604052995050505050505050505090565b670de0b6b3a76400003414612531576040517f08c379a000000000000000000000000000000000000000000000000000000000815260040161252890614295565b60405180910390fd5b6040518060a0016040528060095481526020013373ffffffffffffffffffffffffffffffffffffffff1681526020018373ffffffffffffffffffffffffffffffffffffffff16815260200182815260200160001515815250600a600060095481526020019081526020016000206000820151816000015560208201518160010160006101000a81548173ffffffffffffffffffffffffffffffffffffffff021916908373ffffffffffffffffffffffffffffffffffffffff16021790555060408201518160020160006101000a81548173ffffffffffffffffffffffffffffffffffffffff021916908373ffffffffffffffffffffffffffffffffffffffff1602179055506060820151816003015560808201518160040160006101000a81548160ff021916908315150217905550905050600b60008373ffffffffffffffffffffffffffffffffffffffff1673ffffffffffffffffffffffffffffffffffffffff16815260200190815260200160002060095490806001815401808255809150506001900390600052602060002001600090919091909150558173ffffffffffffffffffffffffffffffffffffffff163373ffffffffffffffffffffffffffffffffffffffff166009547facb872fcf123b50205564145b9e085c652fa06f3d23ae78b288f5aa8cfaaccc38460405161272b91906134fd565b60405180910390a4600960008154809291906127469061398d565b91905055505050565b60008054906101000a900473ffffffffffffffffffffffffffffffffffffffff1681565b6060600082036127ba576040518060400160405280600181526020017f300000000000000000000000000000000000000000000000000000000000000081525090506128ce565b600082905060005b600082146127ec5780806127d59061398d565b915050600a826127e59190613b18565b91506127c2565b60008167ffffffffffffffff81111561280857612807612e08565b5b6040519080825280601f01601f19166020018201604052801561283a5781602001600182028036833780820191505090505b5090505b600085146128c7576001826128539190613e23565b9150600a856128629190613d21565b603061286e9190613d52565b60f81b81838151811061288457612883613aba565b5b60200101907effffffffffffffffffffffffffffffffffffffffffffffffffffffffffffff1916908160001a905350600a856128c09190613b18565b945061283e565b8093505050505b919050565b8280546128df906138c1565b90600052602060002090601f0160209004810192826129015760008555612948565b82601f1061291a57805160ff1916838001178555612948565b82800160010185558215612948579182015b8281111561294757825182559160200191906001019061292c565b5b5090506129559190612a7c565b5090565b60405180610160016040528060008152602001600073ffffffffffffffffffffffffffffffffffffffff168152602001606081526020016000815260200160608152602001600060028111156129b2576129b1612bf9565b5b81526020016060815260200160608152602001600015158152602001600015158152602001600081525090565b6040518060a0016040528060008152602001600073ffffffffffffffffffffffffffffffffffffffff168152602001600073ffffffffffffffffffffffffffffffffffffffff168152602001600081526020016000151581525090565b508054612a48906138c1565b6000825580601f10612a5a5750612a79565b601f016020900490600052602060002090810190612a789190612a7c565b5b50565b5b80821115612a95576000816000905550600101612a7d565b5090565b6000604051905090565b600080fd5b600080fd5b600073ffffffffffffffffffffffffffffffffffffffff82169050919050565b6000612ad882612aad565b9050919050565b612ae881612acd565b8114612af357600080fd5b50565b600081359050612b0581612adf565b92915050565b600060208284031215612b2157612b20612aa3565b5b6000612b2f84828501612af6565b91505092915050565b6000819050919050565b612b4b81612b38565b82525050565b612b5a81612acd565b82525050565b600081519050919050565b600082825260208201905092915050565b60005b83811015612b9a578082015181840152602081019050612b7f565b83811115612ba9576000848401525b50505050565b6000601f19601f8301169050919050565b6000612bcb82612b60565b612bd58185612b6b565b9350612be5818560208601612b7c565b612bee81612baf565b840191505092915050565b7f4e487b7100000000000000000000000000000000000000000000000000000000600052602160045260246000fd5b60038110612c3957612c38612bf9565b5b50565b6000819050612c4a82612c28565b919050565b6000612c5a82612c3c565b9050919050565b612c6a81612c4f565b82525050565b60008115159050919050565b612c8581612c70565b82525050565b600061016082019050612ca1600083018e612b42565b612cae602083018d612b51565b8181036040830152612cc0818c612bc0565b9050612ccf606083018b612b42565b8181036080830152612ce1818a612bc0565b9050612cf060a0830189612c61565b81810360c0830152612d028188612bc0565b905081810360e0830152612d168187612bc0565b9050612d26610100830186612c7c565b612d34610120830185612c7c565b612d42610140830184612b42565b9c9b505050505050505050505050565b612d5b81612b38565b8114612d6657600080fd5b50565b600081359050612d7881612d52565b92915050565b600060208284031215612d9457612d93612aa3565b5b6000612da284828501612d69565b91505092915050565b600060a082019050612dc06000830188612b42565b612dcd6020830187612b51565b612dda6040830186612b51565b612de76060830185612b42565b612df46080830184612c7c565b9695505050505050565b600080fd5b600080fd5b7f4e487b7100000000000000000000000000000000000000000000000000000000600052604160045260246000fd5b612e4082612baf565b810181811067ffffffffffffffff82111715612e5f57612e5e612e08565b5b80604052505050565b6000612e72612a99565b9050612e7e8282612e37565b919050565b600067ffffffffffffffff821115612e9e57612e9d612e08565b5b612ea782612baf565b9050602081019050919050565b82818337600083830152505050565b6000612ed6612ed184612e83565b612e68565b905082815260208101848484011115612ef257612ef1612e03565b5b612efd848285612eb4565b509392505050565b600082601f830112612f1a57612f19612dfe565b5b8135612f2a848260208601612ec3565b91505092915050565b60038110612f4057600080fd5b50565b600081359050612f5281612f33565b92915050565b60008060008060008060c08789031215612f7557612f74612aa3565b5b600087013567ffffffffffffffff811115612f9357612f92612aa8565b5b612f9f89828a01612f05565b9650506020612fb089828a01612d69565b955050604087013567ffffffffffffffff811115612fd157612fd0612aa8565b5b612fdd89828a01612f05565b9450506060612fee89828a01612f43565b935050608087013567ffffffffffffffff81111561300f5761300e612aa8565b5b61301b89828a01612f05565b92505060a087013567ffffffffffffffff81111561303c5761303b612aa8565b5b61304889828a01612f05565b9150509295509295509295565b600081519050919050565b600082825260208201905092915050565b6000819050602082019050919050565b61308a81612b38565b82525050565b61309981612acd565b82525050565b600082825260208201905092915050565b60006130bb82612b60565b6130c5818561309f565b93506130d5818560208601612b7c565b6130de81612baf565b840191505092915050565b6130f281612c4f565b82525050565b61310181612c70565b82525050565b6000610160830160008301516131206000860182613081565b5060208301516131336020860182613090565b506040830151848203604086015261314b82826130b0565b91505060608301516131606060860182613081565b506080830151848203608086015261317882826130b0565b91505060a083015161318d60a08601826130e9565b5060c083015184820360c08601526131a582826130b0565b91505060e083015184820360e08601526131bf82826130b0565b9150506101008301516131d66101008601826130f8565b506101208301516131eb6101208601826130f8565b50610140830151613200610140860182613081565b508091505092915050565b60006132178383613107565b905092915050565b6000602082019050919050565b600061323782613055565b6132418185613060565b93508360208202850161325385613071565b8060005b8581101561328f5784840389528151613270858261320b565b945061327b8361321f565b925060208a01995050600181019050613257565b50829750879550505050505092915050565b600060208201905081810360008301526132bb818461322c565b905092915050565b6000806000606084860312156132dc576132db612aa3565b5b60006132ea86828701612d69565b93505060206132fb86828701612d69565b925050604061330c86828701612d69565b9150509250925092565b600060208201905081810360008301526133308184612bc0565b905092915050565b600060208201905061334d6000830184612c7c565b92915050565b600081519050919050565b600082825260208201905092915050565b6000819050602082019050919050565b600061338b8383613081565b60208301905092915050565b6000602082019050919050565b60006133af82613353565b6133b9818561335e565b93506133c48361336f565b8060005b838110156133f55781516133dc888261337f565b97506133e783613397565b9250506001810190506133c8565b5085935050505092915050565b600081519050919050565b600082825260208201905092915050565b6000819050602082019050919050565b600061343a8383613090565b60208301905092915050565b6000602082019050919050565b600061345e82613402565b613468818561340d565b93506134738361341e565b8060005b838110156134a457815161348b888261342e565b975061349683613446565b925050600181019050613477565b5085935050505092915050565b600060608201905081810360008301526134cb81866133a4565b905081810360208301526134df8185613453565b905081810360408301526134f381846133a4565b9050949350505050565b60006020820190506135126000830184612b42565b92915050565b600081519050919050565b600082825260208201905092915050565b6000819050602082019050919050565b60a08201600082015161355a6000850182613081565b50602082015161356d6020850182613090565b5060408201516135806040850182613090565b5060608201516135936060850182613081565b5060808201516135a660808501826130f8565b50505050565b60006135b88383613544565b60a08301905092915050565b6000602082019050919050565b60006135dc82613518565b6135e68185613523565b93506135f183613534565b8060005b8381101561362257815161360988826135ac565b9750613614836135c4565b9250506001810190506135f5565b5085935050505092915050565b6000602082019050818103600083015261364981846135d1565b905092915050565b6000602082019050818103600083015261366b8184613453565b905092915050565b60006020820190506136886000830184612b51565b92915050565b61369781612c70565b81146136a257600080fd5b50565b6000813590506136b48161368e565b92915050565b6000806000806000806000806000806101408b8d0312156136de576136dd612aa3565b5b60006136ec8d828e01612af6565b9a505060208b013567ffffffffffffffff81111561370d5761370c612aa8565b5b6137198d828e01612f05565b995050604061372a8d828e01612d69565b98505060608b013567ffffffffffffffff81111561374b5761374a612aa8565b5b6137578d828e01612f05565b97505060806137688d828e01612d69565b96505060a08b013567ffffffffffffffff81111561378957613788612aa8565b5b6137958d828e01612f05565b95505060c08b013567ffffffffffffffff8111156137b6576137b5612aa8565b5b6137c28d828e01612f05565b94505060e06137d38d828e016136a5565b9350506101006137e58d828e016136a5565b9250506101206137f78d828e01612d69565b9150509295989b9194979a5092959850565b60006020828403121561381f5761381e612aa3565b5b600082013567ffffffffffffffff81111561383d5761383c612aa8565b5b61384984828501612f05565b91505092915050565b6000806040838503121561386957613868612aa3565b5b600061387785828601612af6565b925050602061388885828601612d69565b9150509250929050565b7f4e487b7100000000000000000000000000000000000000000000000000000000600052602260045260246000fd5b600060028204905060018216806138d957607f821691505b6020821081036138ec576138eb613892565b5b50919050565b7f4e616d65206d757374206e6f7420626520656d70747900000000000000000000600082015250565b6000613928601683612b6b565b9150613933826138f2565b602082019050919050565b600060208201905081810360008301526139578161391b565b9050919050565b7f4e487b7100000000000000000000000000000000000000000000000000000000600052601160045260246000fd5b600061399882612b38565b91507fffffffffffffffffffffffffffffffffffffffffffffffffffffffffffffffff82036139ca576139c961395e565b5b600182019050919050565b600081905092915050565b60006139eb82612b60565b6139f581856139d5565b9350613a05818560208601612b7c565b80840191505092915050565b6000613a1d82846139e0565b915081905092915050565b7f4f6e6c792061646d696e2063616e20706572666f726d2074686973206163746960008201527f6f6e000000000000000000000000000000000000000000000000000000000000602082015250565b6000613a84602283612b6b565b9150613a8f82613a28565b604082019050919050565b60006020820190508181036000830152613ab381613a77565b9050919050565b7f4e487b7100000000000000000000000000000000000000000000000000000000600052603260045260246000fd5b7f4e487b7100000000000000000000000000000000000000000000000000000000600052601260045260246000fd5b6000613b2382612b38565b9150613b2e83612b38565b925082613b3e57613b3d613ae9565b5b828204905092915050565b60008160011c9050919050565b6000808291508390505b6001851115613ba057808604811115613b7c57613b7b61395e565b5b6001851615613b8b5780820291505b8081029050613b9985613b49565b9450613b60565b94509492505050565b600082613bb95760019050613c75565b81613bc75760009050613c75565b8160018114613bdd5760028114613be757613c16565b6001915050613c75565b60ff841115613bf957613bf861395e565b5b8360020a915084821115613c1057613c0f61395e565b5b50613c75565b5060208310610133831016604e8410600b8410161715613c4b5782820a905083811115613c4657613c4561395e565b5b613c75565b613c588484846001613b56565b92509050818404811115613c6f57613c6e61395e565b5b81810290505b9392505050565b6000613c8782612b38565b9150613c9283612b38565b9250613cbf7fffffffffffffffffffffffffffffffffffffffffffffffffffffffffffffffff8484613ba9565b905092915050565b6000613cd282612b38565b9150613cdd83612b38565b9250817fffffffffffffffffffffffffffffffffffffffffffffffffffffffffffffffff0483118215151615613d1657613d1561395e565b5b828202905092915050565b6000613d2c82612b38565b9150613d3783612b38565b925082613d4757613d46613ae9565b5b828206905092915050565b6000613d5d82612b38565b9150613d6883612b38565b9250827fffffffffffffffffffffffffffffffffffffffffffffffffffffffffffffffff03821115613d9d57613d9c61395e565b5b828201905092915050565b7f2e00000000000000000000000000000000000000000000000000000000000000600082015250565b6000613dde6001836139d5565b9150613de982613da8565b600182019050919050565b6000613e0082856139e0565b9150613e0b82613dd1565b9150613e1782846139e0565b91508190509392505050565b6000613e2e82612b38565b9150613e3983612b38565b925082821015613e4c57613e4b61395e565b5b828203905092915050565b7f50617469656e74206e6f7420666f756e64000000000000000000000000000000600082015250565b6000613e8d601183612b6b565b9150613e9882613e57565b602082019050919050565b60006020820190508181036000830152613ebc81613e80565b9050919050565b600081519050919050565b6000819050602082019050919050565b60007fffffffffffffffffffffffffffffffffffffffff00000000000000000000000082169050919050565b6000613f168251613ede565b80915050919050565b600082821b905092915050565b6000613f3782613ec3565b82613f4184613ece565b9050613f4c81613f0a565b92506014821015613f8c57613f877fffffffffffffffffffffffffffffffffffffffff00000000000000000000000083601403600802613f1f565b831692505b5050919050565b7f4e487b7100000000000000000000000000000000000000000000000000000000600052603160045260246000fd5b6000613fcd82612b38565b915060008203613fe057613fdf61395e565b5b600182039050919050565b7f4368696c6472656e3a2000000000000000000000000000000000000000000000600082015250565b6000614021600a836139d5565b915061402c82613feb565b600a82019050919050565b7f20252c2000000000000000000000000000000000000000000000000000000000600082015250565b600061406d6004836139d5565b915061407882614037565b600482019050919050565b7f5465656e61676572733a20000000000000000000000000000000000000000000600082015250565b60006140b9600b836139d5565b91506140c482614083565b600b82019050919050565b7f596f756e673a2000000000000000000000000000000000000000000000000000600082015250565b60006141056007836139d5565b9150614110826140cf565b600782019050919050565b7f456c6465723a2000000000000000000000000000000000000000000000000000600082015250565b60006141516007836139d5565b915061415c8261411b565b600782019050919050565b7f2025000000000000000000000000000000000000000000000000000000000000600082015250565b600061419d6002836139d5565b91506141a882614167565b600282019050919050565b60006141be82614014565b91506141ca82876139e0565b91506141d582614060565b91506141e0826140ac565b91506141ec82866139e0565b91506141f782614060565b9150614202826140f8565b915061420e82856139e0565b915061421982614060565b915061422482614144565b915061423082846139e0565b915061423b82614190565b915081905095945050505050565b7f426f6f6b696e672072657175697265732065786163746c792031204554480000600082015250565b600061427f601e83612b6b565b915061428a82614249565b602082019050919050565b600060208201905081810360008301526142ae81614272565b905091905056fea2646970667358221220e804fbac476fb33b2884a3de0bda8ba149bc4ae4faafbc06b9f26df54db8b29364736f6c634300080d0033",
  "immutableReferences": {},
  "source": "// SPDX-License-Identifier: MIT\npragma solidity >=0.4.22 <0.9.0;\n\ncontract PatientManagement {\n    enum VaccineStatus { NotVaccinated, OneDose, TwoDose }\n\n    event AverageDeathRateChanged(string newAverageDeathRate);\n    event AgePercentagesChanged(string newAgePercentages);\n    event DistrictWithMostPatientsChanged(string newDistrictWithMostPatients);\n\n    struct Patient {\n        uint id;\n        address patientAddress;\n        string name;\n        uint age;\n        string gender;\n        VaccineStatus vaccineStatus;\n        string district;\n        string symptomsDetails;\n        bool isDead;\n        bool hasInfo;\n        uint deathDate;\n    }\n\n    address public admin;\n    mapping(address => bool) public doctors; // Added mapping to track doctors\n    mapping(address => Patient) public patients;\n    uint public patientCount;\n    uint public deathCount;\n    address[] public patientAddresses;\n    mapping(string => uint) districtCounts;\n    string mostPatientsDistrict;\n    uint mostPatientsCount;\n\n    modifier onlyAdmin() {\n        require(msg.sender == admin, \"Only admin can perform this action\");\n        _;\n    }\n\n    constructor(address[] memory initialDoctors) {\n        admin = msg.sender; // The first account of Ganache becomes the admin\n        for (uint i = 0; i < initialDoctors.length; i++) {\n            doctors[initialDoctors[i]] = true;\n        }\n        nextAppointmentId = 1;\n    }\n\n    function adminSignin() public view returns (bool) {\n        return msg.sender == admin;\n    }\n\n    function patientSignin() public view returns (bool) {\n        return patients[msg.sender].id != 0;\n    }\n\n    function addPatient(\n        string memory _name,\n        uint _age,\n        string memory _gender,\n        VaccineStatus _vaccineStatus,\n        string memory _district,\n        string memory _symptomsDetails\n    ) public {\n        require(bytes(_name).length > 0, \"Name must not be empty\");\n        patientCount++;\n        patients[msg.sender] = Patient({\n            id: patientCount,\n            patientAddress: msg.sender,\n            name: _name,\n            age: _age,\n            gender: _gender,\n            vaccineStatus: _vaccineStatus,\n            district: _district,\n            symptomsDetails: _symptomsDetails,\n            isDead: false,\n            hasInfo: true,\n            deathDate: 0\n        });\n\n        patientAddresses.push(msg.sender);\n        districtCounts[_district]++;\n        if (districtCounts[_district] > mostPatientsCount) {\n            mostPatientsCount = districtCounts[_district];\n            mostPatientsDistrict = _district;\n        }\n    }\n\n    function updatePatient(\n        address _patientAddress,\n        string memory _name,\n        uint _age,\n        string memory _gender,\n        uint _vaccineStatus,\n        string memory _district,\n        string memory _symptomsDetails,\n        bool _isDead,\n        bool _hasInfo,\n        uint _deathDate\n    ) public onlyAdmin {\n        require(patients[_patientAddress].id != 0, \"Patient not found\");\n        Patient storage patient = patients[_patientAddress];\n        patient.name = _name;\n        patient.age = _age;\n        patient.gender = _gender;\n        patient.vaccineStatus = VaccineStatus(_vaccineStatus);\n        patient.district = _district;\n        patient.symptomsDetails = _symptomsDetails;\n        patient.isDead = _isDead;\n        patient.hasInfo = _hasInfo;\n        patient.deathDate = _deathDate;\n\n        if (_deathDate > 0 && _isDead == true) {\n            deathCount++;\n            emit AverageDeathRateChanged(averageDeathRate());\n            emit AgePercentagesChanged(agePercentages());\n            emit DistrictWithMostPatientsChanged(getDistrictWithMostPatients());\n        }\n    }\n\n    function deletePatient(string memory _patientAddressString) public onlyAdmin {\n        address patientAddress = address(bytes20(bytes(_patientAddressString)));\n        delete patients[patientAddress];\n        for (uint i = 0; i < patientAddresses.length; i++) {\n            if (patientAddresses[i] == patientAddress) {\n                for (uint j = i; j < patientAddresses.length - 1; j++) {\n                    patientAddresses[i] = patientAddresses[i + 1];\n                }\n                patientAddresses.pop();\n            }\n        }\n        patientCount--;\n    }\n\n    function getAllPatientAddresses() public view returns (address[] memory) {\n        return patientAddresses;\n    }\n\n    function getAllPatients() public view onlyAdmin returns (Patient[] memory) {\n        Patient[] memory allPatients = new Patient[](patientCount);\n        for (uint i = 0; i < patientCount; i++) {\n            address patientAddress = patientAddresses[i];\n            allPatients[i] = patients[patientAddress];\n        }\n        return allPatients;\n    }\n\n    function averageDeathRate() public view returns (string memory) {\n        if (deathCount > 0) {\n            uint totalDays = 0;\n            uint totalDeaths = 0;\n            uint currentDay = 0;\n\n            for (uint i = 0; i < patientAddresses.length; i++) {\n                if (patients[patientAddresses[i]].isDead && patients[patientAddresses[i]].deathDate > 0) {\n                    if (patients[patientAddresses[i]].deathDate != currentDay) {\n                        totalDays += 1;\n                        currentDay = patients[patientAddresses[i]].deathDate;\n                    }\n                    totalDeaths++;\n                }\n            }\n\n            if (totalDeaths > 0) {\n                return division(2, totalDeaths, totalDays);\n            }\n        }\n        return '0';\n    }\n\n    function getDistrictWithMostPatients() public view returns (string memory) {\n        return mostPatientsDistrict;\n    }\n\n    function division(uint256 decimalPlaces, uint256 numerator, uint256 denominator) public pure returns(string memory) {\n    uint quotient = numerator / denominator;\n    uint remainder = (numerator * (10**decimalPlaces)) / denominator % (10**decimalPlaces);\n    bool rounding = 2 * (remainder % denominator) >= denominator;\n    if (rounding) {\n        remainder += 1;\n    }\n    return string(abi.encodePacked(toString(quotient), '.', toString(remainder)));\n}\n\nfunction toString(uint256 value) internal pure returns (string memory) {\n    if (value == 0) {\n        return \"0\";\n    }\n    uint256 temp = value;\n    uint256 digits;\n    while (temp != 0) {\n        digits++;\n        temp /= 10;\n    }\n    bytes memory buffer = new bytes(digits);\n    while (value != 0) {\n        digits -= 1;\n        buffer[digits] = bytes1(uint8(48 + value % 10));\n        value /= 10;\n    }\n    return string(buffer);\n}\n\n    function agePercentages() public view returns (string memory) {\n        uint childrenCount = 0;\n        uint teenagersCount = 0;\n        uint youngCount = 0;\n        uint elderCount = 0;\n\n        for (uint i = 0; i < patientAddresses.length; i++) {\n            uint age = patients[patientAddresses[i]].age;\n            if (age < 13) {\n                childrenCount++;\n            } else if (age >= 13 && age < 20) {\n                teenagersCount++;\n            } else if (age >= 20 && age < 50) {\n                youngCount++;\n            } else if (age >= 50) {\n                elderCount++;\n            }\n        }\n\n        uint totalCount = patientAddresses.length;\n        string memory childrenPercentage = division(2, childrenCount * 100, totalCount);\n        string memory teenagersPercentage = division(2, teenagersCount * 100, totalCount);\n        string memory youngPercentage = division(2, youngCount * 100, totalCount);\n        string memory elderPercentage = division(2, elderCount * 100, totalCount);\n        return string(abi.encodePacked(\n            \"Children: \", childrenPercentage, \" %, \",\n            \"Teenagers: \", teenagersPercentage, \" %, \",\n            \"Young: \", youngPercentage, \" %, \",\n            \"Elder: \", elderPercentage, \" %\"\n        ));\n    }\n\nstruct Appointment {\n        uint256 id;\n        address patient;\n        address doctor;  // In this context, doctor refers to an admin.\n        uint256 dateTime;\n        bool confirmed;\n    }\n\n    uint256 public nextAppointmentId;\n    mapping(uint256 => Appointment) public appointments;\n    mapping(address => uint256[]) private doctorAppointments;\n\n    event AppointmentBooked(uint256 indexed id, address indexed patient, address indexed doctor, uint256 dateTime);\n\n\n\n    function bookAppointment(address doctor, uint256 dateTime) external payable {\n        require(msg.value == 1 ether, \"Booking requires exactly 1 ETH\");\n        appointments[nextAppointmentId] = Appointment(nextAppointmentId, msg.sender, doctor, dateTime, false);\n        doctorAppointments[doctor].push(nextAppointmentId);\n        emit AppointmentBooked(nextAppointmentId, msg.sender, doctor, dateTime);\n        nextAppointmentId++;\n    }\n\n function getAppointmentsByDoctor(address doctor) public view returns (uint256[] memory, address[] memory, uint256[] memory) {\n    uint256[] memory ids = new uint256[](doctorAppointments[doctor].length);\n    address[] memory doctorAddresses = new address[](doctorAppointments[doctor].length); // Renamed to avoid shadowing\n    uint256[] memory dateTimes = new uint256[](doctorAppointments[doctor].length);\n\n    for (uint i = 0; i < doctorAppointments[doctor].length; i++) {\n        Appointment storage appointment = appointments[doctorAppointments[doctor][i]];\n        ids[i] = appointment.id;\n        doctorAddresses[i] = appointment.patient; // Use new variable name\n        dateTimes[i] = appointment.dateTime;\n    }\n\n    return (ids, patientAddresses, dateTimes);\n}\n\n\n\n\n    function getAllAppointments() external view returns (Appointment[] memory) {\n        Appointment[] memory allAppointments = new Appointment[](nextAppointmentId - 1);\n        for (uint256 i = 1; i < nextAppointmentId; i++) {\n            allAppointments[i - 1] = appointments[i];\n        }\n        return allAppointments;\n    }\n}\n",
  "sourcePath": "/home/lycanthrope/Github/SolidityProject/contracts/PatientManagement.sol",
  "compiler": {
    "name": "solc",
    "version": "0.8.13+commit.abaa5c0e.Emscripten.clang"
  },
  "schemaVersion": "3.4.16",
  "updatedAt": "2024-12-30T15:33:17.826Z",
  "networkType": "ethereum",
  "devdoc": {
    "kind": "dev",
    "methods": {},
    "version": 1
  },
  "userdoc": {
    "kind": "user",
    "methods": {},
    "version": 1
  }
}